{
  "transactions": [
    {
      "hash": "0x5f62e2b2efc762d2c80d3037773bc3ac621eb1253132d25ad6eb84e379928f63",
      "transactionType": "CALL",
      "contractName": null,
      "contractAddress": "0x89e7fdbd1ea30300719357a1584c28ee34bcb4be",
      "function": "mint(address,uint256)",
      "arguments": [
        "0x75998e806D0BE5B37c5DE74AcfA0006B3C7DCdfF",
        "10000000000000000000000000000"
      ],
      "transaction": {
        "from": "0x75998e806d0be5b37c5de74acfa0006b3c7dcdff",
        "to": "0x89e7fdbd1ea30300719357a1584c28ee34bcb4be",
        "gas": "0xb93e",
        "value": "0x0",
        "input": "0x40c10f1900000000000000000000000075998e806d0be5b37c5de74acfa0006b3c7dcdff0000000000000000000000000000000000000000204fce5e3e25026110000000",
        "nonce": "0x35",
        "chainId": "0xaa36a7"
      },
      "additionalContracts": [],
      "isFixedGasLimit": false
    },
    {
      "hash": "0xe8d05572f12dcaae8519057d6158a366c92ce5e5d6ee4dc65c758a7dd52b79ec",
      "transactionType": "CALL",
      "contractName": null,
      "contractAddress": "0x89e7fdbd1ea30300719357a1584c28ee34bcb4be",
      "function": "approve(address,uint256)",
      "arguments": [
        "0xC532a74256D3Db42D0Bf7a0400fEFDbad7694008",
        "10000000000000000000000000000"
      ],
      "transaction": {
        "from": "0x75998e806d0be5b37c5de74acfa0006b3c7dcdff",
        "to": "0x89e7fdbd1ea30300719357a1584c28ee34bcb4be",
        "gas": "0x1092e",
        "value": "0x0",
        "input": "0x095ea7b3000000000000000000000000c532a74256d3db42d0bf7a0400fefdbad76940080000000000000000000000000000000000000000204fce5e3e25026110000000",
        "nonce": "0x36",
        "chainId": "0xaa36a7"
      },
      "additionalContracts": [],
      "isFixedGasLimit": false
    },
    {
      "hash": "0x0c6c17712f79e295c2eda0c1cdf10a1d384058ee1662a7690e1fd32c76d21f79",
      "transactionType": "CALL",
      "contractName": null,
      "contractAddress": "0x7e29ee6ee5ed4195c797b06f20b0a500ea30a79c",
      "function": "approve(address,uint256)",
      "arguments": [
        "0xC532a74256D3Db42D0Bf7a0400fEFDbad7694008",
        "5000000000000000000000000"
      ],
      "transaction": {
        "from": "0x75998e806d0be5b37c5de74acfa0006b3c7dcdff",
        "to": "0x7e29ee6ee5ed4195c797b06f20b0a500ea30a79c",
        "gas": "0x1090a",
        "value": "0x0",
        "input": "0x095ea7b3000000000000000000000000c532a74256d3db42d0bf7a0400fefdbad76940080000000000000000000000000000000000000000000422ca8b0a00a425000000",
        "nonce": "0x37",
        "chainId": "0xaa36a7"
      },
      "additionalContracts": [],
      "isFixedGasLimit": false
    },
    {
      "hash": "0x517b6d72f5be3982554750a07af606f460d7f8cd2750cc346590b6827c180f2c",
      "transactionType": "CALL",
      "contractName": null,
      "contractAddress": "0xc532a74256d3db42d0bf7a0400fefdbad7694008",
      "function": "addLiquidity(address,address,uint256,uint256,uint256,uint256,address,uint256)",
      "arguments": [
        "0x89E7fdbd1EA30300719357A1584C28ee34bcB4bE",
        "0x7E29ee6eE5Ed4195C797B06f20b0a500eA30a79C",
        "10000000000000000000000000000",
        "5000000000000000000000000",
        "0",
        "0",
        "0x75998e806D0BE5B37c5DE74AcfA0006B3C7DCdfF",
        "1723107432"
      ],
      "transaction": {
        "from": "0x75998e806d0be5b37c5de74acfa0006b3c7dcdff",
        "to": "0xc532a74256d3db42d0bf7a0400fefdbad7694008",
        "gas": "0x3b126",
        "value": "0x0",
        "input": "0xe8e3370000000000000000000000000089e7fdbd1ea30300719357a1584c28ee34bcb4be0000000000000000000000007e29ee6ee5ed4195c797b06f20b0a500ea30a79c0000000000000000000000000000000000000000204fce5e3e250261100000000000000000000000000000000000000000000000000422ca8b0a00a4250000000000000000000000000000000000000000000000000000000000000000000000000000000000000000000000000000000000000000000000000000000000000000000000000000000000000075998e806d0be5b37c5de74acfa0006b3c7dcdff0000000000000000000000000000000000000000000000000000000066b48868",
        "nonce": "0x38",
        "chainId": "0xaa36a7"
      },
      "additionalContracts": [],
      "isFixedGasLimit": false
    }
  ],
  "receipts": [
    {
      "status": "0x1",
      "cumulativeGasUsed": "0x4cca9c",
      "logs": [
        {
          "address": "0x89e7fdbd1ea30300719357a1584c28ee34bcb4be",
          "topics": [
            "0xddf252ad1be2c89b69c2b068fc378daa952ba7f163c4a11628f55a4df523b3ef",
            "0x0000000000000000000000000000000000000000000000000000000000000000",
            "0x00000000000000000000000075998e806d0be5b37c5de74acfa0006b3c7dcdff"
          ],
          "data": "0x0000000000000000000000000000000000000000204fce5e3e25026110000000",
          "blockHash": "0xdb54419b31c8089847de9c2dca9b6a395ea38c05967ee47c07f5508afbaafd9a",
          "blockNumber": "0x6290f6",
          "transactionHash": "0x5f62e2b2efc762d2c80d3037773bc3ac621eb1253132d25ad6eb84e379928f63",
          "transactionIndex": "0x21",
          "logIndex": "0x4c",
          "removed": false
        }
      ],
      "logsBloom": "0x00200000000000100000000000000000000000000000000000000000000000000000000000000000000000000000000000000000000000080000000000000000000000000000000000000008000000000000000000000000000000000000000000000000020000000000000000000800000000000000000000000010000000000000000010000000000000000000000000000000000000000000000000000000000000000000000000000000000000000000000000000002000000000000000000000002000000000000000000000000000000000000000000000000000020000000000000000000000000001000000000000000000000000000000000000000",
      "type": "0x2",
      "transactionHash": "0x5f62e2b2efc762d2c80d3037773bc3ac621eb1253132d25ad6eb84e379928f63",
      "transactionIndex": "0x21",
      "blockHash": "0xdb54419b31c8089847de9c2dca9b6a395ea38c05967ee47c07f5508afbaafd9a",
      "blockNumber": "0x6290f6",
      "gasUsed": "0x861e",
      "effectiveGasPrice": "0x5073d2da1",
      "from": "0x75998e806d0be5b37c5de74acfa0006b3c7dcdff",
      "to": "0x89e7fdbd1ea30300719357a1584c28ee34bcb4be",
      "contractAddress": null
    },
    {
      "status": "0x1",
      "cumulativeGasUsed": "0x4e6efa",
      "logs": [
        {
          "address": "0x89e7fdbd1ea30300719357a1584c28ee34bcb4be",
          "topics": [
            "0x8c5be1e5ebec7d5bd14f71427d1e84f3dd0314c0f7b2291e5b200ac8c7c3b925",
            "0x00000000000000000000000075998e806d0be5b37c5de74acfa0006b3c7dcdff",
            "0x000000000000000000000000c532a74256d3db42d0bf7a0400fefdbad7694008"
          ],
          "data": "0x0000000000000000000000000000000000000000204fce5e3e25026110000000",
          "blockHash": "0xdb54419b31c8089847de9c2dca9b6a395ea38c05967ee47c07f5508afbaafd9a",
          "blockNumber": "0x6290f6",
          "transactionHash": "0xe8d05572f12dcaae8519057d6158a366c92ce5e5d6ee4dc65c758a7dd52b79ec",
          "transactionIndex": "0x24",
          "logIndex": "0x4d",
          "removed": false
        }
      ],
      "logsBloom": "0x00200000000000100000000000000000000000000000000000000000000800000000000000000000000000000000000000000000000000080000000000200000000000000000000000000000000000000000000000000000000000000000000000000000000000000000000000040000000000000000000000000000000000000000000010000000000000000000000000000000000000000000000000000000020000000000000000000000000000000000000000000002000000000000000000000100000000000000000000000000000000000000000000000000000000000010000000000000000000001000000000000000000000000000000000000000",
      "type": "0x2",
      "transactionHash": "0xe8d05572f12dcaae8519057d6158a366c92ce5e5d6ee4dc65c758a7dd52b79ec",
      "transactionIndex": "0x24",
      "blockHash": "0xdb54419b31c8089847de9c2dca9b6a395ea38c05967ee47c07f5508afbaafd9a",
      "blockNumber": "0x6290f6",
      "gasUsed": "0xb552",
      "effectiveGasPrice": "0x5073d2da1",
      "from": "0x75998e806d0be5b37c5de74acfa0006b3c7dcdff",
      "to": "0x89e7fdbd1ea30300719357a1584c28ee34bcb4be",
      "contractAddress": null
    },
    {
      "status": "0x1",
      "cumulativeGasUsed": "0x50776a",
      "logs": [
        {
          "address": "0x7e29ee6ee5ed4195c797b06f20b0a500ea30a79c",
          "topics": [
            "0x8c5be1e5ebec7d5bd14f71427d1e84f3dd0314c0f7b2291e5b200ac8c7c3b925",
            "0x00000000000000000000000075998e806d0be5b37c5de74acfa0006b3c7dcdff",
            "0x000000000000000000000000c532a74256d3db42d0bf7a0400fefdbad7694008"
          ],
          "data": "0x0000000000000000000000000000000000000000000422ca8b0a00a425000000",
          "blockHash": "0xdb54419b31c8089847de9c2dca9b6a395ea38c05967ee47c07f5508afbaafd9a",
          "blockNumber": "0x6290f6",
          "transactionHash": "0x0c6c17712f79e295c2eda0c1cdf10a1d384058ee1662a7690e1fd32c76d21f79",
          "transactionIndex": "0x26",
          "logIndex": "0x4f",
          "removed": false
        }
      ],
      "logsBloom": "0x00000000000000100000000000000000000000000004000000000000000800000000000000000000000000000000000000000000000000000000000000200000000000000000000000000000000000000000000000000000000000000000000000000000000000000000000000040000000000000000000000000000000080000000000010000000000002000000000000000000000000000000000000000000020000000000000000000000000000000000000000000002000000000000000000000100000000000000000000000000000000000000000000000000000000000010000000000000000000000000000000000000000000000000000000000000",
      "type": "0x2",
      "transactionHash": "0x0c6c17712f79e295c2eda0c1cdf10a1d384058ee1662a7690e1fd32c76d21f79",
      "transactionIndex": "0x26",
      "blockHash": "0xdb54419b31c8089847de9c2dca9b6a395ea38c05967ee47c07f5508afbaafd9a",
      "blockNumber": "0x6290f6",
      "gasUsed": "0xb53a",
      "effectiveGasPrice": "0x5073d2da1",
      "from": "0x75998e806d0be5b37c5de74acfa0006b3c7dcdff",
      "to": "0x7e29ee6ee5ed4195c797b06f20b0a500ea30a79c",
      "contractAddress": null
    },
    {
      "status": "0x1",
      "cumulativeGasUsed": "0x5323b0",
      "logs": [
        {
          "address": "0x89e7fdbd1ea30300719357a1584c28ee34bcb4be",
          "topics": [
            "0xddf252ad1be2c89b69c2b068fc378daa952ba7f163c4a11628f55a4df523b3ef",
            "0x00000000000000000000000075998e806d0be5b37c5de74acfa0006b3c7dcdff",
            "0x000000000000000000000000b56ed26463adbc40f25e6c627a2cff41954f5738"
          ],
          "data": "0x0000000000000000000000000000000000000000204fce5e3e25026110000000",
          "blockHash": "0xdb54419b31c8089847de9c2dca9b6a395ea38c05967ee47c07f5508afbaafd9a",
          "blockNumber": "0x6290f6",
          "transactionHash": "0x517b6d72f5be3982554750a07af606f460d7f8cd2750cc346590b6827c180f2c",
          "transactionIndex": "0x27",
          "logIndex": "0x50",
          "removed": false
        },
        {
          "address": "0x7e29ee6ee5ed4195c797b06f20b0a500ea30a79c",
          "topics": [
            "0xddf252ad1be2c89b69c2b068fc378daa952ba7f163c4a11628f55a4df523b3ef",
            "0x00000000000000000000000075998e806d0be5b37c5de74acfa0006b3c7dcdff",
            "0x000000000000000000000000b56ed26463adbc40f25e6c627a2cff41954f5738"
          ],
          "data": "0x0000000000000000000000000000000000000000000422ca8b0a00a425000000",
          "blockHash": "0xdb54419b31c8089847de9c2dca9b6a395ea38c05967ee47c07f5508afbaafd9a",
          "blockNumber": "0x6290f6",
          "transactionHash": "0x517b6d72f5be3982554750a07af606f460d7f8cd2750cc346590b6827c180f2c",
          "transactionIndex": "0x27",
          "logIndex": "0x51",
          "removed": false
        },
        {
          "address": "0xb56ed26463adbc40f25e6c627a2cff41954f5738",
          "topics": [
            "0xddf252ad1be2c89b69c2b068fc378daa952ba7f163c4a11628f55a4df523b3ef",
            "0x0000000000000000000000000000000000000000000000000000000000000000",
            "0x00000000000000000000000075998e806d0be5b37c5de74acfa0006b3c7dcdff"
          ],
          "data": "0x000000000000000000000000000000000000000000b8f694cb8f209a9a89d934",
          "blockHash": "0xdb54419b31c8089847de9c2dca9b6a395ea38c05967ee47c07f5508afbaafd9a",
          "blockNumber": "0x6290f6",
          "transactionHash": "0x517b6d72f5be3982554750a07af606f460d7f8cd2750cc346590b6827c180f2c",
          "transactionIndex": "0x27",
          "logIndex": "0x52",
          "removed": false
        },
        {
          "address": "0xb56ed26463adbc40f25e6c627a2cff41954f5738",
          "topics": [
            "0x1c411e9a96e071241c2f21f7726b17ae89e3cab4c78be50e062b03a9fffbbad1"
          ],
          "data": "0x000000000000000000000000000000000000000000042d610c6df149a0400000000000000000000000000000000000000000000020a286311aed0f33f4000000",
          "blockHash": "0xdb54419b31c8089847de9c2dca9b6a395ea38c05967ee47c07f5508afbaafd9a",
          "blockNumber": "0x6290f6",
          "transactionHash": "0x517b6d72f5be3982554750a07af606f460d7f8cd2750cc346590b6827c180f2c",
          "transactionIndex": "0x27",
          "logIndex": "0x53",
          "removed": false
        },
        {
          "address": "0xb56ed26463adbc40f25e6c627a2cff41954f5738",
          "topics": [
            "0x4c209b5fc8ad50758f13e2e1088ba56a560dff690a1c6fef26394f4c03821c4f",
            "0x000000000000000000000000c532a74256d3db42d0bf7a0400fefdbad7694008"
          ],
          "data": "0x0000000000000000000000000000000000000000000422ca8b0a00a4250000000000000000000000000000000000000000000000204fce5e3e25026110000000",
          "blockHash": "0xdb54419b31c8089847de9c2dca9b6a395ea38c05967ee47c07f5508afbaafd9a",
          "blockNumber": "0x6290f6",
          "transactionHash": "0x517b6d72f5be3982554750a07af606f460d7f8cd2750cc346590b6827c180f2c",
          "transactionIndex": "0x27",
          "logIndex": "0x54",
          "removed": false
        }
      ],
      "logsBloom": "0x00200000000000100000000080000000000000008014000000000000000801000008000000000000000002000000000000000000000100080000000000000000000000000000000000000008000000000000000000000000000000000000000000000000020000000000000000040800000000000008000000000010000080000000000010000000000002000000000000000000000000080000000000000000000000000000000000000000000000000000000000000002000400000000000000000102000000000000000000020000000000000000001000000000000020000000000000000000000000001000000000000000000000000000000000000000",
      "type": "0x2",
      "transactionHash": "0x517b6d72f5be3982554750a07af606f460d7f8cd2750cc346590b6827c180f2c",
      "transactionIndex": "0x27",
      "blockHash": "0xdb54419b31c8089847de9c2dca9b6a395ea38c05967ee47c07f5508afbaafd9a",
      "blockNumber": "0x6290f6",
      "gasUsed": "0x2ac46",
      "effectiveGasPrice": "0x5073d2da1",
      "from": "0x75998e806d0be5b37c5de74acfa0006b3c7dcdff",
      "to": "0xc532a74256d3db42d0bf7a0400fefdbad7694008",
      "contractAddress": null
    }
  ],
  "libraries": [],
  "pending": [],
  "returns": {},
  "timestamp": 1723106573,
  "chain": 11155111,
  "commit": "84b1ee4"
}