{
  "transactions": [
    {
      "hash": "0x315e3ce4742987eaac13b4f7c6dc735ea1c76816b87f334d4d18f833baa73ed8",
      "transactionType": "CALL",
      "contractName": null,
      "contractAddress": "0x89e7fdbd1ea30300719357a1584c28ee34bcb4be",
      "function": "mint(address,uint256)",
      "arguments": [
        "0x75998e806D0BE5B37c5DE74AcfA0006B3C7DCdfF",
        "1000000000000000000000000000000000000"
      ],
      "transaction": {
        "from": "0x75998e806d0be5b37c5de74acfa0006b3c7dcdff",
        "to": "0x89e7fdbd1ea30300719357a1584c28ee34bcb4be",
        "gas": "0x171e6",
        "value": "0x0",
        "input": "0x40c10f1900000000000000000000000075998e806d0be5b37c5de74acfa0006b3c7dcdff0000000000000000000000000000000000c097ce7bc90715b34b9f1000000000",
        "nonce": "0x2e",
        "chainId": "0xaa36a7"
      },
      "additionalContracts": [],
      "isFixedGasLimit": false
    },
    {
      "hash": "0xab2de3f341714729ae6843e3e578b97553a788c3fe2b8773c0a59db9bc6310d3",
      "transactionType": "CALL",
      "contractName": null,
      "contractAddress": "0x89e7fdbd1ea30300719357a1584c28ee34bcb4be",
      "function": "approve(address,uint256)",
      "arguments": [
        "0xC532a74256D3Db42D0Bf7a0400fEFDbad7694008",
        "1000000000000000000000000000000000000"
      ],
      "transaction": {
        "from": "0x75998e806d0be5b37c5de74acfa0006b3c7dcdff",
        "to": "0x89e7fdbd1ea30300719357a1584c28ee34bcb4be",
        "gas": "0x10951",
        "value": "0x0",
        "input": "0x095ea7b3000000000000000000000000c532a74256d3db42d0bf7a0400fefdbad76940080000000000000000000000000000000000c097ce7bc90715b34b9f1000000000",
        "nonce": "0x2f",
        "chainId": "0xaa36a7"
      },
      "additionalContracts": [],
      "isFixedGasLimit": false
    },
    {
      "hash": "0xd1420fccb8634aacb6845d03c189458d6ab0161309e352294aee0c1f2752d164",
      "transactionType": "CALL",
      "contractName": null,
      "contractAddress": "0x7e29ee6ee5ed4195c797b06f20b0a500ea30a79c",
      "function": "approve(address,uint256)",
      "arguments": [
        "0xC532a74256D3Db42D0Bf7a0400fEFDbad7694008",
        "50000000000000000000000000000000"
      ],
      "transaction": {
        "from": "0x75998e806d0be5b37c5de74acfa0006b3c7dcdff",
        "to": "0x7e29ee6ee5ed4195c797b06f20b0a500ea30a79c",
        "gas": "0x10951",
        "value": "0x0",
        "input": "0x095ea7b3000000000000000000000000c532a74256d3db42d0bf7a0400fefdbad7694008000000000000000000000000000000000000027716b6a0adc2d677c080000000",
        "nonce": "0x30",
        "chainId": "0xaa36a7"
      },
      "additionalContracts": [],
      "isFixedGasLimit": false
    }
  ],
  "receipts": [
    {
      "status": "0x1",
      "cumulativeGasUsed": "0x127edf0",
      "logs": [
        {
          "address": "0x89e7fdbd1ea30300719357a1584c28ee34bcb4be",
          "topics": [
            "0xddf252ad1be2c89b69c2b068fc378daa952ba7f163c4a11628f55a4df523b3ef",
            "0x0000000000000000000000000000000000000000000000000000000000000000",
            "0x00000000000000000000000075998e806d0be5b37c5de74acfa0006b3c7dcdff"
          ],
          "data": "0x0000000000000000000000000000000000c097ce7bc90715b34b9f1000000000",
          "blockHash": "0xc809e3491aa71da708f3d2c799f9347d628a9b43ea979bdb85411f81bf91a762",
          "blockNumber": "0x6290eb",
          "transactionHash": "0x315e3ce4742987eaac13b4f7c6dc735ea1c76816b87f334d4d18f833baa73ed8",
          "transactionIndex": "0x22",
          "logIndex": "0xf0",
          "removed": false
        }
      ],
      "logsBloom": "0x00200000000000100000000000000000000000000000000000000000000000000000000000000000000000000000000000000000000000080000000000000000000000000000000000000008000000000000000000000000000000000000000000000000020000000000000000000800000000000000000000000010000000000000000010000000000000000000000000000000000000000000000000000000000000000000000000000000000000000000000000000002000000000000000000000002000000000000000000000000000000000000000000000000000020000000000000000000000000001000000000000000000000000000000000000000",
      "type": "0x2",
      "transactionHash": "0x315e3ce4742987eaac13b4f7c6dc735ea1c76816b87f334d4d18f833baa73ed8",
      "transactionIndex": "0x22",
      "blockHash": "0xc809e3491aa71da708f3d2c799f9347d628a9b43ea979bdb85411f81bf91a762",
      "blockNumber": "0x6290eb",
      "gasUsed": "0x10bce",
      "effectiveGasPrice": "0x34aa5723b",
      "from": "0x75998e806d0be5b37c5de74acfa0006b3c7dcdff",
      "to": "0x89e7fdbd1ea30300719357a1584c28ee34bcb4be",
      "contractAddress": null
    },
    {
      "status": "0x1",
      "cumulativeGasUsed": "0x128a35a",
      "logs": [
        {
          "address": "0x89e7fdbd1ea30300719357a1584c28ee34bcb4be",
          "topics": [
            "0x8c5be1e5ebec7d5bd14f71427d1e84f3dd0314c0f7b2291e5b200ac8c7c3b925",
            "0x00000000000000000000000075998e806d0be5b37c5de74acfa0006b3c7dcdff",
            "0x000000000000000000000000c532a74256d3db42d0bf7a0400fefdbad7694008"
          ],
          "data": "0x0000000000000000000000000000000000c097ce7bc90715b34b9f1000000000",
          "blockHash": "0xc809e3491aa71da708f3d2c799f9347d628a9b43ea979bdb85411f81bf91a762",
          "blockNumber": "0x6290eb",
          "transactionHash": "0xab2de3f341714729ae6843e3e578b97553a788c3fe2b8773c0a59db9bc6310d3",
          "transactionIndex": "0x23",
          "logIndex": "0xf1",
          "removed": false
        }
      ],
      "logsBloom": "0x00200000000000100000000000000000000000000000000000000000000800000000000000000000000000000000000000000000000000080000000000200000000000000000000000000000000000000000000000000000000000000000000000000000000000000000000000040000000000000000000000000000000000000000000010000000000000000000000000000000000000000000000000000000020000000000000000000000000000000000000000000002000000000000000000000100000000000000000000000000000000000000000000000000000000000010000000000000000000001000000000000000000000000000000000000000",
      "type": "0x2",
      "transactionHash": "0xab2de3f341714729ae6843e3e578b97553a788c3fe2b8773c0a59db9bc6310d3",
      "transactionIndex": "0x23",
      "blockHash": "0xc809e3491aa71da708f3d2c799f9347d628a9b43ea979bdb85411f81bf91a762",
      "blockNumber": "0x6290eb",
      "gasUsed": "0xb56a",
      "effectiveGasPrice": "0x34aa5723b",
      "from": "0x75998e806d0be5b37c5de74acfa0006b3c7dcdff",
      "to": "0x89e7fdbd1ea30300719357a1584c28ee34bcb4be",
      "contractAddress": null
    },
    {
      "status": "0x1",
      "cumulativeGasUsed": "0x12958c4",
      "logs": [
        {
          "address": "0x7e29ee6ee5ed4195c797b06f20b0a500ea30a79c",
          "topics": [
            "0x8c5be1e5ebec7d5bd14f71427d1e84f3dd0314c0f7b2291e5b200ac8c7c3b925",
            "0x00000000000000000000000075998e806d0be5b37c5de74acfa0006b3c7dcdff",
            "0x000000000000000000000000c532a74256d3db42d0bf7a0400fefdbad7694008"
          ],
          "data": "0x000000000000000000000000000000000000027716b6a0adc2d677c080000000",
          "blockHash": "0xc809e3491aa71da708f3d2c799f9347d628a9b43ea979bdb85411f81bf91a762",
          "blockNumber": "0x6290eb",
          "transactionHash": "0xd1420fccb8634aacb6845d03c189458d6ab0161309e352294aee0c1f2752d164",
          "transactionIndex": "0x24",
          "logIndex": "0xf2",
          "removed": false
        }
      ],
      "logsBloom": "0x00000000000000100000000000000000000000000004000000000000000800000000000000000000000000000000000000000000000000000000000000200000000000000000000000000000000000000000000000000000000000000000000000000000000000000000000000040000000000000000000000000000000080000000000010000000000002000000000000000000000000000000000000000000020000000000000000000000000000000000000000000002000000000000000000000100000000000000000000000000000000000000000000000000000000000010000000000000000000000000000000000000000000000000000000000000",
      "type": "0x2",
      "transactionHash": "0xd1420fccb8634aacb6845d03c189458d6ab0161309e352294aee0c1f2752d164",
      "transactionIndex": "0x24",
      "blockHash": "0xc809e3491aa71da708f3d2c799f9347d628a9b43ea979bdb85411f81bf91a762",
      "blockNumber": "0x6290eb",
      "gasUsed": "0xb56a",
      "effectiveGasPrice": "0x34aa5723b",
      "from": "0x75998e806d0be5b37c5de74acfa0006b3c7dcdff",
      "to": "0x7e29ee6ee5ed4195c797b06f20b0a500ea30a79c",
      "contractAddress": null
    }
  ],
  "libraries": [],
  "pending": [],
  "returns": {},
  "timestamp": 1723106417,
  "chain": 11155111,
  "commit": "84b1ee4"
}