{
  "transactions": [
    {
      "hash": "0x9d3ae923bb725add3907633b6d0e539628ec89920cdbb2045df6c9b15bc092cc",
      "transactionType": "CALL",
      "contractName": null,
      "contractAddress": "0x89e7fdbd1ea30300719357a1584c28ee34bcb4be",
      "function": "mint(address,uint256)",
      "arguments": [
        "0x75998e806D0BE5B37c5DE74AcfA0006B3C7DCdfF",
        "1000000000000000000000000000000000"
      ],
      "transaction": {
        "from": "0x75998e806d0be5b37c5de74acfa0006b3c7dcdff",
        "to": "0x89e7fdbd1ea30300719357a1584c28ee34bcb4be",
        "gas": "0xc436",
        "value": "0x0",
        "input": "0x40c10f1900000000000000000000000075998e806d0be5b37c5de74acfa0006b3c7dcdff000000000000000000000000000000000000314dc6448d9338c15b0a00000000",
        "nonce": "0x51",
        "chainId": "0xaa36a7"
      },
      "additionalContracts": [],
      "isFixedGasLimit": false
    },
    {
      "hash": "0x91c046c869611f6472668c849a9c94a810d728f0bf05c05b463cab2832d13a31",
      "transactionType": "CALL",
      "contractName": null,
      "contractAddress": "0x89e7fdbd1ea30300719357a1584c28ee34bcb4be",
      "function": "approve(address,uint256)",
      "arguments": [
        "0xC532a74256D3Db42D0Bf7a0400fEFDbad7694008",
        "1000000000000000000000000000000000"
      ],
      "transaction": {
        "from": "0x75998e806d0be5b37c5de74acfa0006b3c7dcdff",
        "to": "0x89e7fdbd1ea30300719357a1584c28ee34bcb4be",
        "gas": "0xfa82",
        "value": "0x0",
        "input": "0x095ea7b3000000000000000000000000c532a74256d3db42d0bf7a0400fefdbad7694008000000000000000000000000000000000000314dc6448d9338c15b0a00000000",
        "nonce": "0x52",
        "chainId": "0xaa36a7"
      },
      "additionalContracts": [],
      "isFixedGasLimit": false
    },
    {
      "hash": "0xffd49527ac513f35cfbd7d5165e24c4ab17822a347026b2d734c89100735a9f6",
      "transactionType": "CALL",
      "contractName": null,
      "contractAddress": "0x3af31c01444f14f5761b7205685bc92663d5bdfb",
      "function": "approve(address,uint256)",
      "arguments": [
        "0xC532a74256D3Db42D0Bf7a0400fEFDbad7694008",
        "500000000000000000000000000000"
      ],
      "transaction": {
        "from": "0x75998e806d0be5b37c5de74acfa0006b3c7dcdff",
        "to": "0x3af31c01444f14f5761b7205685bc92663d5bdfb",
        "gas": "0xfa82",
        "value": "0x0",
        "input": "0x095ea7b3000000000000000000000000c532a74256d3db42d0bf7a0400fefdbad769400800000000000000000000000000000000000000064f964e68233a76f520000000",
        "nonce": "0x53",
        "chainId": "0xaa36a7"
      },
      "additionalContracts": [],
      "isFixedGasLimit": false
    },
    {
      "hash": "0x89eaba2816ead797a75d568b5fdf3812ca0d6c1147765537bef3d7e384bbe187",
      "transactionType": "CALL",
      "contractName": null,
      "contractAddress": "0xc532a74256d3db42d0bf7a0400fefdbad7694008",
      "function": "addLiquidity(address,address,uint256,uint256,uint256,uint256,address,uint256)",
      "arguments": [
        "0x89E7fdbd1EA30300719357A1584C28ee34bcB4bE",
        "0x3aF31C01444f14F5761b7205685bc92663d5bDfB",
        "1000000000000000000000000000000000",
        "500000000000000000000000000000",
        "0",
        "0",
        "0x75998e806D0BE5B37c5DE74AcfA0006B3C7DCdfF",
        "1723107840"
      ],
      "transaction": {
        "from": "0x75998e806d0be5b37c5de74acfa0006b3c7dcdff",
        "to": "0xc532a74256d3db42d0bf7a0400fefdbad7694008",
        "gas": "0x3cda3",
        "value": "0x0",
        "input": "0xe8e3370000000000000000000000000089e7fdbd1ea30300719357a1584c28ee34bcb4be0000000000000000000000003af31c01444f14f5761b7205685bc92663d5bdfb000000000000000000000000000000000000314dc6448d9338c15b0a0000000000000000000000000000000000000000000000064f964e68233a76f5200000000000000000000000000000000000000000000000000000000000000000000000000000000000000000000000000000000000000000000000000000000000000000000000000000000000000075998e806d0be5b37c5de74acfa0006b3c7dcdff0000000000000000000000000000000000000000000000000000000066b48a00",
        "nonce": "0x54",
        "chainId": "0xaa36a7"
      },
      "additionalContracts": [],
      "isFixedGasLimit": false
    }
  ],
  "receipts": [
    {
      "status": "0x1",
      "cumulativeGasUsed": "0x17f6b1c",
      "logs": [
        {
          "address": "0x89e7fdbd1ea30300719357a1584c28ee34bcb4be",
          "topics": [
            "0xddf252ad1be2c89b69c2b068fc378daa952ba7f163c4a11628f55a4df523b3ef",
            "0x0000000000000000000000000000000000000000000000000000000000000000",
            "0x00000000000000000000000075998e806d0be5b37c5de74acfa0006b3c7dcdff"
          ],
          "data": "0x000000000000000000000000000000000000314dc6448d9338c15b0a00000000",
          "blockHash": "0xa24fc3e282c4fb7bd5d71fa679a4fae441c11fcb7e1961c0cd0924637a210022",
          "blockNumber": "0x629114",
          "transactionHash": "0x9d3ae923bb725add3907633b6d0e539628ec89920cdbb2045df6c9b15bc092cc",
          "transactionIndex": "0xa5",
          "logIndex": "0x12f",
          "removed": false
        }
      ],
      "logsBloom": "0x00200000000000100000000000000000000000000000000000000000000000000000000000000000000000000000000000000000000000080000000000000000000000000000000000000008000000000000000000000000000000000000000000000000020000000000000000000800000000000000000000000010000000000000000010000000000000000000000000000000000000000000000000000000000000000000000000000000000000000000000000000002000000000000000000000002000000000000000000000000000000000000000000000000000020000000000000000000000000001000000000000000000000000000000000000000",
      "type": "0x2",
      "transactionHash": "0x9d3ae923bb725add3907633b6d0e539628ec89920cdbb2045df6c9b15bc092cc",
      "transactionIndex": "0xa5",
      "blockHash": "0xa24fc3e282c4fb7bd5d71fa679a4fae441c11fcb7e1961c0cd0924637a210022",
      "blockNumber": "0x629114",
      "gasUsed": "0x862a",
      "effectiveGasPrice": "0x554faa354",
      "from": "0x75998e806d0be5b37c5de74acfa0006b3c7dcdff",
      "to": "0x89e7fdbd1ea30300719357a1584c28ee34bcb4be",
      "contractAddress": null
    },
    {
      "status": "0x1",
      "cumulativeGasUsed": "0x180207a",
      "logs": [
        {
          "address": "0x89e7fdbd1ea30300719357a1584c28ee34bcb4be",
          "topics": [
            "0x8c5be1e5ebec7d5bd14f71427d1e84f3dd0314c0f7b2291e5b200ac8c7c3b925",
            "0x00000000000000000000000075998e806d0be5b37c5de74acfa0006b3c7dcdff",
            "0x000000000000000000000000c532a74256d3db42d0bf7a0400fefdbad7694008"
          ],
          "data": "0x000000000000000000000000000000000000314dc6448d9338c15b0a00000000",
          "blockHash": "0xa24fc3e282c4fb7bd5d71fa679a4fae441c11fcb7e1961c0cd0924637a210022",
          "blockNumber": "0x629114",
          "transactionHash": "0x91c046c869611f6472668c849a9c94a810d728f0bf05c05b463cab2832d13a31",
          "transactionIndex": "0xa6",
          "logIndex": "0x130",
          "removed": false
        }
      ],
      "logsBloom": "0x00200000000000100000000000000000000000000000000000000000000800000000000000000000000000000000000000000000000000080000000000200000000000000000000000000000000000000000000000000000000000000000000000000000000000000000000000040000000000000000000000000000000000000000000010000000000000000000000000000000000000000000000000000000020000000000000000000000000000000000000000000002000000000000000000000100000000000000000000000000000000000000000000000000000000000010000000000000000000001000000000000000000000000000000000000000",
      "type": "0x2",
      "transactionHash": "0x91c046c869611f6472668c849a9c94a810d728f0bf05c05b463cab2832d13a31",
      "transactionIndex": "0xa6",
      "blockHash": "0xa24fc3e282c4fb7bd5d71fa679a4fae441c11fcb7e1961c0cd0924637a210022",
      "blockNumber": "0x629114",
      "gasUsed": "0xb55e",
      "effectiveGasPrice": "0x554faa354",
      "from": "0x75998e806d0be5b37c5de74acfa0006b3c7dcdff",
      "to": "0x89e7fdbd1ea30300719357a1584c28ee34bcb4be",
      "contractAddress": null
    },
    {
      "status": "0x1",
      "cumulativeGasUsed": "0x180d5d8",
      "logs": [
        {
          "address": "0x3af31c01444f14f5761b7205685bc92663d5bdfb",
          "topics": [
            "0x8c5be1e5ebec7d5bd14f71427d1e84f3dd0314c0f7b2291e5b200ac8c7c3b925",
            "0x00000000000000000000000075998e806d0be5b37c5de74acfa0006b3c7dcdff",
            "0x000000000000000000000000c532a74256d3db42d0bf7a0400fefdbad7694008"
          ],
          "data": "0x00000000000000000000000000000000000000064f964e68233a76f520000000",
          "blockHash": "0xa24fc3e282c4fb7bd5d71fa679a4fae441c11fcb7e1961c0cd0924637a210022",
          "blockNumber": "0x629114",
          "transactionHash": "0xffd49527ac513f35cfbd7d5165e24c4ab17822a347026b2d734c89100735a9f6",
          "transactionIndex": "0xa7",
          "logIndex": "0x131",
          "removed": false
        }
      ],
      "logsBloom": "0x00000000000000100000000000000000000000000000000000000000000800000000000000000000000000000800000000000000000000000000000000200000000000000000000000000000000000000000000000000000000000000000000000000000000000000000000000040000000000000000000000000000000000000000000010000000000000000000000000000000000000000000000000000000020000000000000000000000000000000000000000000002000000000000000000000100000000000000000000000000000000000000000000000000000000000010000008000000000000000000000000200000000000000000000000000000",
      "type": "0x2",
      "transactionHash": "0xffd49527ac513f35cfbd7d5165e24c4ab17822a347026b2d734c89100735a9f6",
      "transactionIndex": "0xa7",
      "blockHash": "0xa24fc3e282c4fb7bd5d71fa679a4fae441c11fcb7e1961c0cd0924637a210022",
      "blockNumber": "0x629114",
      "gasUsed": "0xb55e",
      "effectiveGasPrice": "0x554faa354",
      "from": "0x75998e806d0be5b37c5de74acfa0006b3c7dcdff",
      "to": "0x3af31c01444f14f5761b7205685bc92663d5bdfb",
      "contractAddress": null
    },
    {
      "status": "0x1",
      "cumulativeGasUsed": "0x18396be",
      "logs": [
        {
          "address": "0x89e7fdbd1ea30300719357a1584c28ee34bcb4be",
          "topics": [
            "0xddf252ad1be2c89b69c2b068fc378daa952ba7f163c4a11628f55a4df523b3ef",
            "0x00000000000000000000000075998e806d0be5b37c5de74acfa0006b3c7dcdff",
            "0x0000000000000000000000004508856d890fee54878d28ea08a6c9c30ab82195"
          ],
          "data": "0x000000000000000000000000000000000000314dc6448d9338c15b0a00000000",
          "blockHash": "0xa24fc3e282c4fb7bd5d71fa679a4fae441c11fcb7e1961c0cd0924637a210022",
          "blockNumber": "0x629114",
          "transactionHash": "0x89eaba2816ead797a75d568b5fdf3812ca0d6c1147765537bef3d7e384bbe187",
          "transactionIndex": "0xa8",
          "logIndex": "0x132",
          "removed": false
        },
        {
          "address": "0x3af31c01444f14f5761b7205685bc92663d5bdfb",
          "topics": [
            "0xddf252ad1be2c89b69c2b068fc378daa952ba7f163c4a11628f55a4df523b3ef",
            "0x00000000000000000000000075998e806d0be5b37c5de74acfa0006b3c7dcdff",
            "0x0000000000000000000000004508856d890fee54878d28ea08a6c9c30ab82195"
          ],
          "data": "0x00000000000000000000000000000000000000064f964e68233a76f520000000",
          "blockHash": "0xa24fc3e282c4fb7bd5d71fa679a4fae441c11fcb7e1961c0cd0924637a210022",
          "blockNumber": "0x629114",
          "transactionHash": "0x89eaba2816ead797a75d568b5fdf3812ca0d6c1147765537bef3d7e384bbe187",
          "transactionIndex": "0xa8",
          "logIndex": "0x133",
          "removed": false
        },
        {
          "address": "0x4508856d890fee54878d28ea08a6c9c30ab82195",
          "topics": [
            "0xddf252ad1be2c89b69c2b068fc378daa952ba7f163c4a11628f55a4df523b3ef",
            "0x0000000000000000000000000000000000000000000000000000000000000000",
            "0x00000000000000000000000075998e806d0be5b37c5de74acfa0006b3c7dcdff"
          ],
          "data": "0x000000000000000000000000000000000000011a3b40cb1b451fe80e977302d0",
          "blockHash": "0xa24fc3e282c4fb7bd5d71fa679a4fae441c11fcb7e1961c0cd0924637a210022",
          "blockNumber": "0x629114",
          "transactionHash": "0x89eaba2816ead797a75d568b5fdf3812ca0d6c1147765537bef3d7e384bbe187",
          "transactionIndex": "0xa8",
          "logIndex": "0x134",
          "removed": false
        },
        {
          "address": "0x4508856d890fee54878d28ea08a6c9c30ab82195",
          "topics": [
            "0x1c411e9a96e071241c2f21f7726b17ae89e3cab4c78be50e062b03a9fffbbad1"
          ],
          "data": "0x000000000000000000000000000000000000000c9f2c9cd04674edea40000000000000000000000000000000000000000000629b8c891b267182b61400000000",
          "blockHash": "0xa24fc3e282c4fb7bd5d71fa679a4fae441c11fcb7e1961c0cd0924637a210022",
          "blockNumber": "0x629114",
          "transactionHash": "0x89eaba2816ead797a75d568b5fdf3812ca0d6c1147765537bef3d7e384bbe187",
          "transactionIndex": "0xa8",
          "logIndex": "0x135",
          "removed": false
        },
        {
          "address": "0x4508856d890fee54878d28ea08a6c9c30ab82195",
          "topics": [
            "0x4c209b5fc8ad50758f13e2e1088ba56a560dff690a1c6fef26394f4c03821c4f",
            "0x000000000000000000000000c532a74256d3db42d0bf7a0400fefdbad7694008"
          ],
          "data": "0x00000000000000000000000000000000000000064f964e68233a76f520000000000000000000000000000000000000000000314dc6448d9338c15b0a00000000",
          "blockHash": "0xa24fc3e282c4fb7bd5d71fa679a4fae441c11fcb7e1961c0cd0924637a210022",
          "blockNumber": "0x629114",
          "transactionHash": "0x89eaba2816ead797a75d568b5fdf3812ca0d6c1147765537bef3d7e384bbe187",
          "transactionIndex": "0xa8",
          "logIndex": "0x136",
          "removed": false
        }
      ],
      "logsBloom": "0x00200000000000100000000080000000000000000000000000000000000801000000400000000000000000000800000000000000000000180000000000000000000000000000000000000008000800000000000000000000000000000000000000000000020000000000000000040800000000000008000000000010000000000000080010002000000000000000000010000000000000080000000000000000000000000000000000000000000000000000000000000002000000000000000000000102000000000000000000020000000000000000001000000000000020000000000008000000000000001000000000200000000000000000000000000000",
      "type": "0x2",
      "transactionHash": "0x89eaba2816ead797a75d568b5fdf3812ca0d6c1147765537bef3d7e384bbe187",
      "transactionIndex": "0xa8",
      "blockHash": "0xa24fc3e282c4fb7bd5d71fa679a4fae441c11fcb7e1961c0cd0924637a210022",
      "blockNumber": "0x629114",
      "gasUsed": "0x2c0e6",
      "effectiveGasPrice": "0x554faa354",
      "from": "0x75998e806d0be5b37c5de74acfa0006b3c7dcdff",
      "to": "0xc532a74256d3db42d0bf7a0400fefdbad7694008",
      "contractAddress": null
    }
  ],
  "libraries": [],
  "pending": [],
  "returns": {},
  "timestamp": 1723106970,
  "chain": 11155111,
  "commit": "84b1ee4"
}