{
  "transactions": [
    {
      "hash": "0xfbeda9d5d55966cabadeb709328d8e5e46c07c4dd14690e78d08084cde19e580",
      "transactionType": "CALL",
      "contractName": null,
      "contractAddress": "0x89e7fdbd1ea30300719357a1584c28ee34bcb4be",
      "function": "mint(address,uint256)",
      "arguments": [
        "0x75998e806D0BE5B37c5DE74AcfA0006B3C7DCdfF",
        "100000000000000000000000000000000"
      ],
      "transaction": {
        "from": "0x75998e806d0be5b37c5de74acfa0006b3c7dcdff",
        "to": "0x89e7fdbd1ea30300719357a1584c28ee34bcb4be",
        "gas": "0xc436",
        "value": "0x0",
        "input": "0x40c10f1900000000000000000000000075998e806d0be5b37c5de74acfa0006b3c7dcdff00000000000000000000000000000000000004ee2d6d415b85acef8100000000",
        "nonce": "0x41",
        "chainId": "0xaa36a7"
      },
      "additionalContracts": [],
      "isFixedGasLimit": false
    },
    {
      "hash": "0x8138636c4916b2f5a4c177eff06e0dd8ede74cc7d757b0bf1cd8e2983dd980a4",
      "transactionType": "CALL",
      "contractName": null,
      "contractAddress": "0x89e7fdbd1ea30300719357a1584c28ee34bcb4be",
      "function": "approve(address,uint256)",
      "arguments": [
        "0xC532a74256D3Db42D0Bf7a0400fEFDbad7694008",
        "100000000000000000000000000000000"
      ],
      "transaction": {
        "from": "0x75998e806d0be5b37c5de74acfa0006b3c7dcdff",
        "to": "0x89e7fdbd1ea30300719357a1584c28ee34bcb4be",
        "gas": "0xfa82",
        "value": "0x0",
        "input": "0x095ea7b3000000000000000000000000c532a74256d3db42d0bf7a0400fefdbad769400800000000000000000000000000000000000004ee2d6d415b85acef8100000000",
        "nonce": "0x42",
        "chainId": "0xaa36a7"
      },
      "additionalContracts": [],
      "isFixedGasLimit": false
    },
    {
      "hash": "0xfaa9a3c181283c70ccee491dea49f4703a43651d5ed73bbcc88d3797749d0b94",
      "transactionType": "CALL",
      "contractName": null,
      "contractAddress": "0x7e29ee6ee5ed4195c797b06f20b0a500ea30a79c",
      "function": "approve(address,uint256)",
      "arguments": [
        "0xC532a74256D3Db42D0Bf7a0400fEFDbad7694008",
        "50000000000000000000000000000"
      ],
      "transaction": {
        "from": "0x75998e806d0be5b37c5de74acfa0006b3c7dcdff",
        "to": "0x7e29ee6ee5ed4195c797b06f20b0a500ea30a79c",
        "gas": "0x1092e",
        "value": "0x0",
        "input": "0x095ea7b3000000000000000000000000c532a74256d3db42d0bf7a0400fefdbad76940080000000000000000000000000000000000000000a18f07d736b90be550000000",
        "nonce": "0x43",
        "chainId": "0xaa36a7"
      },
      "additionalContracts": [],
      "isFixedGasLimit": false
    },
    {
      "hash": "0x6fc91cce445128adfca392641494c598626dc9037051e27580e99a0cc6fb011d",
      "transactionType": "CALL",
      "contractName": null,
      "contractAddress": "0xc532a74256d3db42d0bf7a0400fefdbad7694008",
      "function": "addLiquidity(address,address,uint256,uint256,uint256,uint256,address,uint256)",
      "arguments": [
        "0x89E7fdbd1EA30300719357A1584C28ee34bcB4bE",
        "0x7E29ee6eE5Ed4195C797B06f20b0a500eA30a79C",
        "100000000000000000000000000000000",
        "50000000000000000000000000000",
        "0",
        "0",
        "0x75998e806D0BE5B37c5DE74AcfA0006B3C7DCdfF",
        "1723107588"
      ],
      "transaction": {
        "from": "0x75998e806d0be5b37c5de74acfa0006b3c7dcdff",
        "to": "0xc532a74256d3db42d0bf7a0400fefdbad7694008",
        "gas": "0x30a76",
        "value": "0x0",
        "input": "0xe8e3370000000000000000000000000089e7fdbd1ea30300719357a1584c28ee34bcb4be0000000000000000000000007e29ee6ee5ed4195c797b06f20b0a500ea30a79c00000000000000000000000000000000000004ee2d6d415b85acef81000000000000000000000000000000000000000000000000a18f07d736b90be5500000000000000000000000000000000000000000000000000000000000000000000000000000000000000000000000000000000000000000000000000000000000000000000000000000000000000075998e806d0be5b37c5de74acfa0006b3c7dcdff0000000000000000000000000000000000000000000000000000000066b48904",
        "nonce": "0x44",
        "chainId": "0xaa36a7"
      },
      "additionalContracts": [],
      "isFixedGasLimit": false
    }
  ],
  "receipts": [
    {
      "status": "0x1",
      "cumulativeGasUsed": "0x5bf851",
      "logs": [
        {
          "address": "0x89e7fdbd1ea30300719357a1584c28ee34bcb4be",
          "topics": [
            "0xddf252ad1be2c89b69c2b068fc378daa952ba7f163c4a11628f55a4df523b3ef",
            "0x0000000000000000000000000000000000000000000000000000000000000000",
            "0x00000000000000000000000075998e806d0be5b37c5de74acfa0006b3c7dcdff"
          ],
          "data": "0x00000000000000000000000000000000000004ee2d6d415b85acef8100000000",
          "blockHash": "0xc0ea6a667325c41f9cbd00773905d8c8e0910a448f89ecbf64abc7399232209e",
          "blockNumber": "0x629101",
          "transactionHash": "0xfbeda9d5d55966cabadeb709328d8e5e46c07c4dd14690e78d08084cde19e580",
          "transactionIndex": "0x27",
          "logIndex": "0x52",
          "removed": false
        }
      ],
      "logsBloom": "0x00200000000000100000000000000000000000000000000000000000000000000000000000000000000000000000000000000000000000080000000000000000000000000000000000000008000000000000000000000000000000000000000000000000020000000000000000000800000000000000000000000010000000000000000010000000000000000000000000000000000000000000000000000000000000000000000000000000000000000000000000000002000000000000000000000002000000000000000000000000000000000000000000000000000020000000000000000000000000001000000000000000000000000000000000000000",
      "type": "0x2",
      "transactionHash": "0xfbeda9d5d55966cabadeb709328d8e5e46c07c4dd14690e78d08084cde19e580",
      "transactionIndex": "0x27",
      "blockHash": "0xc0ea6a667325c41f9cbd00773905d8c8e0910a448f89ecbf64abc7399232209e",
      "blockNumber": "0x629101",
      "gasUsed": "0x862a",
      "effectiveGasPrice": "0x4674f25cb",
      "from": "0x75998e806d0be5b37c5de74acfa0006b3c7dcdff",
      "to": "0x89e7fdbd1ea30300719357a1584c28ee34bcb4be",
      "contractAddress": null
    },
    {
      "status": "0x1",
      "cumulativeGasUsed": "0x5cadaf",
      "logs": [
        {
          "address": "0x89e7fdbd1ea30300719357a1584c28ee34bcb4be",
          "topics": [
            "0x8c5be1e5ebec7d5bd14f71427d1e84f3dd0314c0f7b2291e5b200ac8c7c3b925",
            "0x00000000000000000000000075998e806d0be5b37c5de74acfa0006b3c7dcdff",
            "0x000000000000000000000000c532a74256d3db42d0bf7a0400fefdbad7694008"
          ],
          "data": "0x00000000000000000000000000000000000004ee2d6d415b85acef8100000000",
          "blockHash": "0xc0ea6a667325c41f9cbd00773905d8c8e0910a448f89ecbf64abc7399232209e",
          "blockNumber": "0x629101",
          "transactionHash": "0x8138636c4916b2f5a4c177eff06e0dd8ede74cc7d757b0bf1cd8e2983dd980a4",
          "transactionIndex": "0x28",
          "logIndex": "0x53",
          "removed": false
        }
      ],
      "logsBloom": "0x00200000000000100000000000000000000000000000000000000000000800000000000000000000000000000000000000000000000000080000000000200000000000000000000000000000000000000000000000000000000000000000000000000000000000000000000000040000000000000000000000000000000000000000000010000000000000000000000000000000000000000000000000000000020000000000000000000000000000000000000000000002000000000000000000000100000000000000000000000000000000000000000000000000000000000010000000000000000000001000000000000000000000000000000000000000",
      "type": "0x2",
      "transactionHash": "0x8138636c4916b2f5a4c177eff06e0dd8ede74cc7d757b0bf1cd8e2983dd980a4",
      "transactionIndex": "0x28",
      "blockHash": "0xc0ea6a667325c41f9cbd00773905d8c8e0910a448f89ecbf64abc7399232209e",
      "blockNumber": "0x629101",
      "gasUsed": "0xb55e",
      "effectiveGasPrice": "0x4674f25cb",
      "from": "0x75998e806d0be5b37c5de74acfa0006b3c7dcdff",
      "to": "0x89e7fdbd1ea30300719357a1584c28ee34bcb4be",
      "contractAddress": null
    },
    {
      "status": "0x1",
      "cumulativeGasUsed": "0x5d6301",
      "logs": [
        {
          "address": "0x7e29ee6ee5ed4195c797b06f20b0a500ea30a79c",
          "topics": [
            "0x8c5be1e5ebec7d5bd14f71427d1e84f3dd0314c0f7b2291e5b200ac8c7c3b925",
            "0x00000000000000000000000075998e806d0be5b37c5de74acfa0006b3c7dcdff",
            "0x000000000000000000000000c532a74256d3db42d0bf7a0400fefdbad7694008"
          ],
          "data": "0x0000000000000000000000000000000000000000a18f07d736b90be550000000",
          "blockHash": "0xc0ea6a667325c41f9cbd00773905d8c8e0910a448f89ecbf64abc7399232209e",
          "blockNumber": "0x629101",
          "transactionHash": "0xfaa9a3c181283c70ccee491dea49f4703a43651d5ed73bbcc88d3797749d0b94",
          "transactionIndex": "0x29",
          "logIndex": "0x54",
          "removed": false
        }
      ],
      "logsBloom": "0x00000000000000100000000000000000000000000004000000000000000800000000000000000000000000000000000000000000000000000000000000200000000000000000000000000000000000000000000000000000000000000000000000000000000000000000000000040000000000000000000000000000000080000000000010000000000002000000000000000000000000000000000000000000020000000000000000000000000000000000000000000002000000000000000000000100000000000000000000000000000000000000000000000000000000000010000000000000000000000000000000000000000000000000000000000000",
      "type": "0x2",
      "transactionHash": "0xfaa9a3c181283c70ccee491dea49f4703a43651d5ed73bbcc88d3797749d0b94",
      "transactionIndex": "0x29",
      "blockHash": "0xc0ea6a667325c41f9cbd00773905d8c8e0910a448f89ecbf64abc7399232209e",
      "blockNumber": "0x629101",
      "gasUsed": "0xb552",
      "effectiveGasPrice": "0x4674f25cb",
      "from": "0x75998e806d0be5b37c5de74acfa0006b3c7dcdff",
      "to": "0x7e29ee6ee5ed4195c797b06f20b0a500ea30a79c",
      "contractAddress": null
    },
    {
      "status": "0x1",
      "cumulativeGasUsed": "0x5f9699",
      "logs": [
        {
          "address": "0x89e7fdbd1ea30300719357a1584c28ee34bcb4be",
          "topics": [
            "0xddf252ad1be2c89b69c2b068fc378daa952ba7f163c4a11628f55a4df523b3ef",
            "0x00000000000000000000000075998e806d0be5b37c5de74acfa0006b3c7dcdff",
            "0x000000000000000000000000b56ed26463adbc40f25e6c627a2cff41954f5738"
          ],
          "data": "0x00000000000000000000000000000000000004ee2d6d415b85acef8100000000",
          "blockHash": "0xc0ea6a667325c41f9cbd00773905d8c8e0910a448f89ecbf64abc7399232209e",
          "blockNumber": "0x629101",
          "transactionHash": "0x6fc91cce445128adfca392641494c598626dc9037051e27580e99a0cc6fb011d",
          "transactionIndex": "0x2a",
          "logIndex": "0x55",
          "removed": false
        },
        {
          "address": "0x7e29ee6ee5ed4195c797b06f20b0a500ea30a79c",
          "topics": [
            "0xddf252ad1be2c89b69c2b068fc378daa952ba7f163c4a11628f55a4df523b3ef",
            "0x00000000000000000000000075998e806d0be5b37c5de74acfa0006b3c7dcdff",
            "0x000000000000000000000000b56ed26463adbc40f25e6c627a2cff41954f5738"
          ],
          "data": "0x0000000000000000000000000000000000000000a18f07d736b90be550000000",
          "blockHash": "0xc0ea6a667325c41f9cbd00773905d8c8e0910a448f89ecbf64abc7399232209e",
          "blockNumber": "0x629101",
          "transactionHash": "0x6fc91cce445128adfca392641494c598626dc9037051e27580e99a0cc6fb011d",
          "transactionIndex": "0x2a",
          "logIndex": "0x56",
          "removed": false
        },
        {
          "address": "0xb56ed26463adbc40f25e6c627a2cff41954f5738",
          "topics": [
            "0xddf252ad1be2c89b69c2b068fc378daa952ba7f163c4a11628f55a4df523b3ef",
            "0x0000000000000000000000000000000000000000000000000000000000000000",
            "0x00000000000000000000000075998e806d0be5b37c5de74acfa0006b3c7dcdff"
          ],
          "data": "0x000000000000000000000000000000000000001c3920144f86e99734a8b47f40",
          "blockHash": "0xc0ea6a667325c41f9cbd00773905d8c8e0910a448f89ecbf64abc7399232209e",
          "blockNumber": "0x629101",
          "transactionHash": "0x6fc91cce445128adfca392641494c598626dc9037051e27580e99a0cc6fb011d",
          "transactionIndex": "0x2a",
          "logIndex": "0x57",
          "removed": false
        },
        {
          "address": "0xb56ed26463adbc40f25e6c627a2cff41954f5738",
          "topics": [
            "0x1c411e9a96e071241c2f21f7726b17ae89e3cab4c78be50e062b03a9fffbbad1"
          ],
          "data": "0x0000000000000000000000000000000000000000a4ce6374e2f77d6bd840000000000000000000000000000000000000000005078c69012d2d83da8974000000",
          "blockHash": "0xc0ea6a667325c41f9cbd00773905d8c8e0910a448f89ecbf64abc7399232209e",
          "blockNumber": "0x629101",
          "transactionHash": "0x6fc91cce445128adfca392641494c598626dc9037051e27580e99a0cc6fb011d",
          "transactionIndex": "0x2a",
          "logIndex": "0x58",
          "removed": false
        },
        {
          "address": "0xb56ed26463adbc40f25e6c627a2cff41954f5738",
          "topics": [
            "0x4c209b5fc8ad50758f13e2e1088ba56a560dff690a1c6fef26394f4c03821c4f",
            "0x000000000000000000000000c532a74256d3db42d0bf7a0400fefdbad7694008"
          ],
          "data": "0x0000000000000000000000000000000000000000a18f07d736b90be55000000000000000000000000000000000000000000004ee2d6d415b85acef8100000000",
          "blockHash": "0xc0ea6a667325c41f9cbd00773905d8c8e0910a448f89ecbf64abc7399232209e",
          "blockNumber": "0x629101",
          "transactionHash": "0x6fc91cce445128adfca392641494c598626dc9037051e27580e99a0cc6fb011d",
          "transactionIndex": "0x2a",
          "logIndex": "0x59",
          "removed": false
        }
      ],
      "logsBloom": "0x00200000000000100000000080000000000000008014000000000000000801000008000000000000000002000000000000000000000100080000000000000000000000000000000000000008000000000000000000000000000000000000000000000000020000000000000000040800000000000008000000000010000080000000000010000000000002000000000000000000000000080000000000000000000000000000000000000000000000000000000000000002000400000000000000000102000000000000000000020000000000000000001000000000000020000000000000000000000000001000000000000000000000000000000000000000",
      "type": "0x2",
      "transactionHash": "0x6fc91cce445128adfca392641494c598626dc9037051e27580e99a0cc6fb011d",
      "transactionIndex": "0x2a",
      "blockHash": "0xc0ea6a667325c41f9cbd00773905d8c8e0910a448f89ecbf64abc7399232209e",
      "blockNumber": "0x629101",
      "gasUsed": "0x23398",
      "effectiveGasPrice": "0x4674f25cb",
      "from": "0x75998e806d0be5b37c5de74acfa0006b3c7dcdff",
      "to": "0xc532a74256d3db42d0bf7a0400fefdbad7694008",
      "contractAddress": null
    }
  ],
  "libraries": [],
  "pending": [],
  "returns": {},
  "timestamp": 1723106717,
  "chain": 11155111,
  "commit": "84b1ee4"
}