{
  "transactions": [
    {
      "hash": "0x4af6b1dfcb546ed52e8f03e2687b1a6343e3b0c759faeaed6f14c368f13d50a3",
      "transactionType": "CALL",
      "contractName": null,
      "contractAddress": "0xe7a527bd98566fdc99ea72bf16c6cc4efe3606a0",
      "function": "mint(address,uint256)",
      "arguments": [
        "0x75998e806D0BE5B37c5DE74AcfA0006B3C7DCdfF",
        "10000000000000000000000"
      ],
      "transaction": {
        "from": "0x75998e806d0be5b37c5de74acfa0006b3c7dcdff",
        "to": "0xe7a527bd98566fdc99ea72bf16c6cc4efe3606a0",
        "gas": "0xc413",
        "value": "0x0",
        "input": "0x40c10f1900000000000000000000000075998e806d0be5b37c5de74acfa0006b3c7dcdff00000000000000000000000000000000000000000000021e19e0c9bab2400000",
        "nonce": "0xbb",
        "chainId": "0x14a34"
      },
      "additionalContracts": [],
      "isFixedGasLimit": false
    },
    {
      "hash": "0x032ec2274b6a462ec20d2ec3a14b30285191794246defbb17569c2c3d5064225",
      "transactionType": "CALL",
      "contractName": null,
      "contractAddress": "0xe7a527bd98566fdc99ea72bf16c6cc4efe3606a0",
      "function": "approve(address,uint256)",
      "arguments": [
        "0x0F40B7d90062ca05B1ba6A230ddC681FC29D964F",
        "100000000000000000000000000"
      ],
      "transaction": {
        "from": "0x75998e806d0be5b37c5de74acfa0006b3c7dcdff",
        "to": "0xe7a527bd98566fdc99ea72bf16c6cc4efe3606a0",
        "gas": "0xa76b",
        "value": "0x0",
        "input": "0x095ea7b30000000000000000000000000f40b7d90062ca05b1ba6a230ddc681fc29d964f00000000000000000000000000000000000000000052b7d2dcc80cd2e4000000",
        "nonce": "0xbc",
        "chainId": "0x14a34"
      },
      "additionalContracts": [],
      "isFixedGasLimit": false
    },
    {
      "hash": "0xe530f3e4f25ceb80ccae8e0f99bf31d7759222326b548dda48de4d05db9e7d7e",
      "transactionType": "CALL",
      "contractName": null,
      "contractAddress": "0x0f40b7d90062ca05b1ba6a230ddc681fc29d964f",
      "function": "addOrder(address,address,uint8,int256,uint256)",
      "arguments": [
        "0x0f5C50184EF3ADF2581fd115A0eB4f3cC7F296A1",
        "0x0FB99723Aee6f420beAD13e6bBB79b7E6F034298",
        "0",
        "7039924380046",
        "100000000000000000000"
      ],
      "transaction": {
        "from": "0x75998e806d0be5b37c5de74acfa0006b3c7dcdff",
        "to": "0x0f40b7d90062ca05b1ba6a230ddc681fc29d964f",
        "gas": "0x42f27",
        "value": "0x0",
        "input": "0xd1cd871d0000000000000000000000000f5c50184ef3adf2581fd115a0eb4f3cc7f296a10000000000000000000000000fb99723aee6f420bead13e6bbb79b7e6f0342980000000000000000000000000000000000000000000000000000000000000000000000000000000000000000000000000000000000000000000006671c31218e0000000000000000000000000000000000000000000000056bc75e2d63100000",
        "nonce": "0xbd",
        "chainId": "0x14a34"
      },
      "additionalContracts": [],
      "isFixedGasLimit": false
    }
  ],
  "receipts": [
    {
      "status": "0x1",
      "cumulativeGasUsed": "0x139c3c",
      "logs": [
        {
          "address": "0xe7a527bd98566fdc99ea72bf16c6cc4efe3606a0",
          "topics": [
            "0xddf252ad1be2c89b69c2b068fc378daa952ba7f163c4a11628f55a4df523b3ef",
            "0x0000000000000000000000000000000000000000000000000000000000000000",
            "0x00000000000000000000000075998e806d0be5b37c5de74acfa0006b3c7dcdff"
          ],
          "data": "0x00000000000000000000000000000000000000000000021e19e0c9bab2400000",
          "blockHash": "0x5f6da8ac113c07d9214ba40c358ff1f274349a5fecacb538137e7a44764b4637",
          "blockNumber": "0xd1d390",
          "transactionHash": "0x4af6b1dfcb546ed52e8f03e2687b1a6343e3b0c759faeaed6f14c368f13d50a3",
          "transactionIndex": "0x5",
          "logIndex": "0x20",
          "removed": false
        }
      ],
      "logsBloom": "0x00000000000200100000000000000000000000000000000000000000000000000000000000000000000000000000000000000000000000000000000000000000000000000000000000000008000000000000000000000000000000000000000000000000020000000001000000000800000000000000000000000010000000000000000010000000000000000000000000000000000000000000000000000000000000000000000000000000000000000000000000000002000000000000000000000002000000000000000000000000000000000000000000000000000020000000000000000000000000000000000000000000000000000002000000000000",
      "type": "0x2",
      "transactionHash": "0x4af6b1dfcb546ed52e8f03e2687b1a6343e3b0c759faeaed6f14c368f13d50a3",
      "transactionIndex": "0x5",
      "blockHash": "0x5f6da8ac113c07d9214ba40c358ff1f274349a5fecacb538137e7a44764b4637",
      "blockNumber": "0xd1d390",
      "gasUsed": "0x8612",
      "effectiveGasPrice": "0x10ca55",
      "from": "0x75998e806d0be5b37c5de74acfa0006b3c7dcdff",
      "to": "0xe7a527bd98566fdc99ea72bf16c6cc4efe3606a0",
      "contractAddress": null,
      "l1BaseFeeScalar": "0x44d",
      "l1BlobBaseFee": "0x4b397535f8",
      "l1BlobBaseFeeScalar": "0xa118b",
      "l1Fee": "0x136565d0f81c",
      "l1GasPrice": "0xf7ce2ec4",
      "l1GasUsed": "0x640"
    },
    {
      "status": "0x1",
      "cumulativeGasUsed": "0x140eb6",
      "logs": [
        {
          "address": "0xe7a527bd98566fdc99ea72bf16c6cc4efe3606a0",
          "topics": [
            "0x8c5be1e5ebec7d5bd14f71427d1e84f3dd0314c0f7b2291e5b200ac8c7c3b925",
            "0x00000000000000000000000075998e806d0be5b37c5de74acfa0006b3c7dcdff",
            "0x0000000000000000000000000f40b7d90062ca05b1ba6a230ddc681fc29d964f"
          ],
          "data": "0x00000000000000000000000000000000000000000052b7d2dcc80cd2e4000000",
          "blockHash": "0x5f6da8ac113c07d9214ba40c358ff1f274349a5fecacb538137e7a44764b4637",
          "blockNumber": "0xd1d390",
          "transactionHash": "0x032ec2274b6a462ec20d2ec3a14b30285191794246defbb17569c2c3d5064225",
          "transactionIndex": "0x6",
          "logIndex": "0x21",
          "removed": false
        }
      ],
      "logsBloom": "0x00000020000200100000000000000000000000000000000000000000000000000000000000000000000000000000000000000000000000000000000000200000000000000000000000000000000000000000000000000000000000000000000000000000000000000001000000000000000000000000000000000000000000000000000010000000000000000000000000000000000000000000000000000000020000000000000000000000000000000000000000000002004000000000000000000000000000000000000000000000000000000000000000040000000000000010000000000000000000000000000000000000000000000002000000000000",
      "type": "0x2",
      "transactionHash": "0x032ec2274b6a462ec20d2ec3a14b30285191794246defbb17569c2c3d5064225",
      "transactionIndex": "0x6",
      "blockHash": "0x5f6da8ac113c07d9214ba40c358ff1f274349a5fecacb538137e7a44764b4637",
      "blockNumber": "0xd1d390",
      "gasUsed": "0x727a",
      "effectiveGasPrice": "0x10ca55",
      "from": "0x75998e806d0be5b37c5de74acfa0006b3c7dcdff",
      "to": "0xe7a527bd98566fdc99ea72bf16c6cc4efe3606a0",
      "contractAddress": null,
      "l1BaseFeeScalar": "0x44d",
      "l1BlobBaseFee": "0x4b397535f8",
      "l1BlobBaseFeeScalar": "0xa118b",
      "l1Fee": "0x136565d0f81c",
      "l1GasPrice": "0xf7ce2ec4",
      "l1GasUsed": "0x640"
    },
    {
      "status": "0x1",
      "cumulativeGasUsed": "0xb758d",
      "logs": [
        {
          "address": "0xe7a527bd98566fdc99ea72bf16c6cc4efe3606a0",
          "topics": [
            "0xddf252ad1be2c89b69c2b068fc378daa952ba7f163c4a11628f55a4df523b3ef",
            "0x00000000000000000000000075998e806d0be5b37c5de74acfa0006b3c7dcdff",
            "0x0000000000000000000000000f40b7d90062ca05b1ba6a230ddc681fc29d964f"
          ],
          "data": "0x0000000000000000000000000000000000000000000000056bc75e2d63100000",
          "blockHash": "0xe942da5c782ecb13ee90c53f6fd0063e59adfa1af713fa0eab1fa8b3f4a0f86b",
          "blockNumber": "0xd1d391",
          "transactionHash": "0xe530f3e4f25ceb80ccae8e0f99bf31d7759222326b548dda48de4d05db9e7d7e",
          "transactionIndex": "0x3",
          "logIndex": "0x5",
          "removed": false
        },
        {
          "address": "0xef9319139a38c58d8997d91dcccc8a80980df2cd",
          "topics": [
            "0xbede694013ca1bc9c4f8bc14371466ebd58cd1cbe41a2b3d75c213957ac764c5"
          ],
          "data": "0x00000000000000000000000000000000000000000000000000000000000000010000000000000000000000000f5c50184ef3adf2581fd115a0eb4f3cc7f296a10000000000000000000000000000000000000000000000000000000000000000",
          "blockHash": "0xe942da5c782ecb13ee90c53f6fd0063e59adfa1af713fa0eab1fa8b3f4a0f86b",
          "blockNumber": "0xd1d391",
          "transactionHash": "0xe530f3e4f25ceb80ccae8e0f99bf31d7759222326b548dda48de4d05db9e7d7e",
          "transactionIndex": "0x3",
          "logIndex": "0x6",
          "removed": false
        }
      ],
      "logsBloom": "0x00000020000200100000000000004000000000000000000000000000000000000000000000000800000000002000000000000000000000000000000000000000000000000000000000000008000000000000000000000000000000000000000000000000000000000005000000000000000000000000000000000010000000000000000010000000000000000000000000000000000000000000000000000000000000000000000000000000000000000000000000000002004000000000000000000002000000200000000000000000000000000000000000040000000000000000000000000000000000000000000000000800000000000002000000000000",
      "type": "0x2",
      "transactionHash": "0xe530f3e4f25ceb80ccae8e0f99bf31d7759222326b548dda48de4d05db9e7d7e",
      "transactionIndex": "0x3",
      "blockHash": "0xe942da5c782ecb13ee90c53f6fd0063e59adfa1af713fa0eab1fa8b3f4a0f86b",
      "blockNumber": "0xd1d391",
      "gasUsed": "0x2dc6a",
      "effectiveGasPrice": "0x10ca55",
      "from": "0x75998e806d0be5b37c5de74acfa0006b3c7dcdff",
      "to": "0x0f40b7d90062ca05b1ba6a230ddc681fc29d964f",
      "contractAddress": null,
      "l1BaseFeeScalar": "0x44d",
      "l1BlobBaseFee": "0x4b397535f8",
      "l1BlobBaseFeeScalar": "0xa118b",
      "l1Fee": "0x17b3f595e012",
      "l1GasPrice": "0xf7ce2ec4",
      "l1GasUsed": "0x7a3"
    }
  ],
  "libraries": [],
  "pending": [],
  "returns": {},
  "timestamp": 1723270663,
  "chain": 84532,
  "commit": "b97c1b3"
}