{
  "transactions": [
    {
      "hash": "0xd077e5c27872b259e62fc6f3d9b685e486438cab3532d5522d0ae7f25087f663",
      "transactionType": "CREATE",
      "contractName": "CrossChainTokenRouter",
      "contractAddress": "0xbfcb4e1eebc37cd6224f45355089037e92e8be76",
      "function": null,
      "arguments": null,
      "transaction": {
        "from": "0x75998e806d0be5b37c5de74acfa0006b3c7dcdff",
        "gas": "0x194e97",
        "value": "0x0",
        "input": "0x6080604052348015600f57600080fd5b506116238061001f6000396000f3fe608060405234801561001057600080fd5b50600436106100575760003560e01c80630faa90e21461005c5780639d857e9114610071578063af8c5f3a14610108578063c2068fc714610164578063f357f6c214610177575b600080fd5b61006f61006a366004610606565b61018a565b005b6100dc61007f36600461065a565b6040805180820182526000808252602091820181905267ffffffffffffffff9490941684528381528184206001600160a01b0393841685528152928190208151808301909252805483168252600101549091169181019190915290565b6040805182516001600160a01b0390811682526020938401511692810192909252015b60405180910390f35b61014461011636600461065a565b6000602081815292815260408082209093529081522080546001909101546001600160a01b03918216911682565b604080516001600160a01b039384168152929091166020830152016100ff565b61006f61017236600461068d565b610299565b61006f6101853660046106d1565b6104d3565b600081838560405161019b906105c5565b6001600160a01b03938416815291831660208301529091166040820152606001604051809103906000f0801580156101d7573d6000803e3d6000fd5b506040805180820182526001600160a01b038381168083526000602080850182815267ffffffffffffffff8d168084528383528784208d8716808652908452888520975188549088166001600160a01b031991821617895592516001909801805498909716979092169690961790945585519485528401929092529282019290925260608101919091529091507f23100b01664d2b1a34cfa556c0db93a24e5b6224316568a8e25fdd0bd679426f906080015b60405180910390a15050505050565b67ffffffffffffffff83166000908152602081815260408083206001600160a01b038089168552908352928190208151808301909252805484168252600101549092169082018190528491906103365760405162461bcd60e51b815260206004820152601f60248201527f44657374696e6174696f6e20706f6f6c206e6f7420726567697374657265640060448201526064015b60405180910390fd5b6040516323b872dd60e01b8152336004820152306024820152604481018490526001600160a01b038716906323b872dd906064016020604051808303816000875af1158015610389573d6000803e3d6000fd5b505050506040513d601f19601f820116820180604052508101906103ad9190610714565b50805160405163095ea7b360e01b81526001600160a01b039182166004820152602481018590529087169063095ea7b3906044016020604051808303816000875af1158015610400573d6000803e3d6000fd5b505050506040513d601f19601f820116820180604052508101906104249190610714565b5080516020808301516040805180820182526001600160a01b038981168252938101888152915163fee8c14d60e01b815267ffffffffffffffff881660048201529284166024840152518316604483015251606482015291169063fee8c14d906084016020604051808303816000875af11580156104a6573d6000803e3d6000fd5b505050506040513d601f19601f820116820180604052508101906104ca919061073d565b50505050505050565b67ffffffffffffffff83166000908152602081815260408083206001600160a01b038087168552925290912080549091166105505760405162461bcd60e51b815260206004820152601a60248201527f536f7572636520706f6f6c206e6f742072656769737465726564000000000000604482015260640161032d565b6001810180546001600160a01b031981166001600160a01b038581169182179093556040805167ffffffffffffffff891681528785166020820152939092169183018290526060830152907fed17835cdc80e2a61f2eca59dd0c5aa1781bb0254d17691128c3489b18654b309060800161028a565b610e978061075783390190565b803567ffffffffffffffff811681146105ea57600080fd5b919050565b80356001600160a01b03811681146105ea57600080fd5b6000806000806080858703121561061c57600080fd5b610625856105d2565b9350610633602086016105ef565b9250610641604086016105ef565b915061064f606086016105ef565b905092959194509250565b6000806040838503121561066d57600080fd5b610676836105d2565b9150610684602084016105ef565b90509250929050565b600080600080608085870312156106a357600080fd5b6106ac856105ef565b9350602085013592506106c1604086016105ef565b9396929550929360600135925050565b6000806000606084860312156106e657600080fd5b6106ef846105d2565b92506106fd602085016105ef565b915061070b604085016105ef565b90509250925092565b60006020828403121561072657600080fd5b8151801515811461073657600080fd5b9392505050565b60006020828403121561074f57600080fd5b505191905056fe60a060405234801561001057600080fd5b50604051610e97380380610e9783398101604081905261002f916100b3565b826001600160a01b03811661005e576040516335fdcccd60e21b81526000600482015260240160405180910390fd5b6001600160a01b03908116608052600080549382166001600160a01b0319948516179055600180549290911691909216179055506100f6565b80516001600160a01b03811681146100ae57600080fd5b919050565b6000806000606084860312156100c857600080fd5b6100d184610097565b92506100df60208501610097565b91506100ed60408501610097565b90509250925092565b608051610d806101176000396000818160dc015261018a0152610d806000f3fe608060405234801561001057600080fd5b50600436106100625760003560e01c806301ffc9a71461006757806385572ffb1461008f5780638fe3c636146100a4578063b0f479a1146100da578063fc0c546a14610114578063fee8c14d14610127575b600080fd5b61007a610075366004610812565b610148565b60405190151581526020015b60405180910390f35b6100a261009d366004610843565b61017f565b005b6004546005546100bb916001600160a01b03169082565b604080516001600160a01b039093168352602083019190915201610086565b7f00000000000000000000000000000000000000000000000000000000000000005b6040516001600160a01b039091168152602001610086565b6001546100fc906001600160a01b031681565b61013a6101353660046108ae565b6101e3565b604051908152602001610086565b60006001600160e01b031982166385572ffb60e01b148061017957506001600160e01b031982166301ffc9a760e01b145b92915050565b336001600160a01b037f000000000000000000000000000000000000000000000000000000000000000016146101cf576040516335fdcccd60e21b81523360048201526024015b60405180910390fd5b6101e06101db82610aaf565b6105ac565b50565b6000805481906101ff90859085906001600160a01b03166106c6565b90506000306001600160a01b031663b0f479a16040518163ffffffff1660e01b8152600401602060405180830381865afa158015610241573d6000803e3d6000fd5b505050506040513d601f19601f820116820180604052508101906102659190610b65565b90506000816001600160a01b03166320487ded88856040518363ffffffff1660e01b8152600401610297929190610bc8565b602060405180830381865afa1580156102b4573d6000803e3d6000fd5b505050506040513d601f19601f820116820180604052508101906102d89190610ca8565b6000546040516370a0823160e01b81523060048201529192506001600160a01b0316906370a0823190602401602060405180830381865afa158015610321573d6000803e3d6000fd5b505050506040513d601f19601f820116820180604052508101906103459190610ca8565b8111156103dc576000546040516370a0823160e01b81523060048201526001600160a01b03909116906370a0823190602401602060405180830381865afa158015610394573d6000803e3d6000fd5b505050506040513d601f19601f820116820180604052508101906103b89190610ca8565b604051634787a10360e11b81526004810191909152602481018290526044016101c6565b60005460405163095ea7b360e01b81526001600160a01b038481166004830152602482018490529091169063095ea7b3906044016020604051808303816000875af115801561042f573d6000803e3d6000fd5b505050506040513d601f19601f820116820180604052508101906104539190610cc1565b506001546040516323b872dd60e01b8152336004820152306024820152602087013560448201526001600160a01b03909116906323b872dd906064016020604051808303816000875af11580156104ae573d6000803e3d6000fd5b505050506040513d601f19601f820116820180604052508101906104d29190610cc1565b506040516396f4e9f960e01b81526001600160a01b038316906396f4e9f990610501908a908790600401610bc8565b6020604051808303816000875af1158015610520573d6000803e3d6000fd5b505050506040513d601f19601f820116820180604052508101906105449190610ca8565b600054604080516001600160a01b03808b168252909216602083015281018390529094506001600160401b0388169085907f9fb548811cfe022ba6400d8533a80d63fbc228e596f93603959dc47b1886af549060600160405180910390a35050509392505050565b8051600255606081015180516000916105cd91810160209081019101610ce3565b8051600480546001600160a01b0319166001600160a01b0392831690811782556020840151600581905560015460405163a9059cbb60e01b815293840192909252602483015292935091169063a9059cbb906044016020604051808303816000875af1158015610641573d6000803e3d6000fd5b505050506040513d601f19601f820116820180604052508101906106659190610cc1565b506020808301518351835184840151604080516001600160a01b039093168352948201526001600160401b039092169290917f9e0cedd023f625fb8db19f2eb903c24aa1a45f05fd9ef9431a80505ad65e30fe910160405180910390a35050565b6107016040518060a0016040528060608152602001606081526020016060815260200160006001600160a01b03168152602001606081525090565b6040805160a081019091526001600160a01b03851660c08201528060e081016040516020818303038152906040528152602001846040516020016107459190610d1f565b60408051601f19818403018152919052815260200160006040519080825280602002602001820160405280156107a157816020015b604080518082019091526000808252602082015281526020019060019003908161077a5790505b508152602001836001600160a01b03168152602001610808604051806020016040528062030d4081525060408051915160248084019190915281518084039091018152604490920190526020810180516001600160e01b03166397a657c960e01b17905290565b9052949350505050565b60006020828403121561082457600080fd5b81356001600160e01b03198116811461083c57600080fd5b9392505050565b60006020828403121561085557600080fd5b81356001600160401b0381111561086b57600080fd5b820160a0818503121561083c57600080fd5b80356001600160401b038116811461089457600080fd5b919050565b6001600160a01b03811681146101e057600080fd5b600080600083850360808112156108c457600080fd5b6108cd8561087d565b935060208501356108dd81610899565b92506040603f19820112156108f157600080fd5b506040840190509250925092565b634e487b7160e01b600052604160045260246000fd5b604080519081016001600160401b0381118282101715610937576109376108ff565b60405290565b60405160a081016001600160401b0381118282101715610937576109376108ff565b604051601f8201601f191681016001600160401b0381118282101715610987576109876108ff565b604052919050565b600082601f8301126109a057600080fd5b81356001600160401b038111156109b9576109b96108ff565b6109cc601f8201601f191660200161095f565b8181528460208386010111156109e157600080fd5b816020850160208301376000918101602001919091529392505050565b600082601f830112610a0f57600080fd5b81356001600160401b03811115610a2857610a286108ff565b610a3760208260051b0161095f565b8082825260208201915060208360061b860101925085831115610a5957600080fd5b602085015b83811015610aa55760408188031215610a7657600080fd5b610a7e610915565b8135610a8981610899565b8152602082810135818301529084529290920191604001610a5e565b5095945050505050565b600060a08236031215610ac157600080fd5b610ac961093d565b82358152610ad96020840161087d565b602082015260408301356001600160401b03811115610af757600080fd5b610b033682860161098f565b60408301525060608301356001600160401b03811115610b2257600080fd5b610b2e3682860161098f565b60608301525060808301356001600160401b03811115610b4d57600080fd5b610b59368286016109fe565b60808301525092915050565b600060208284031215610b7757600080fd5b815161083c81610899565b6000815180845260005b81811015610ba857602081850181015186830182015201610b8c565b506000602082860101526020601f19601f83011685010191505092915050565b6001600160401b0383168152604060208201526000825160a06040840152610bf360e0840182610b82565b90506020840151603f19848303016060850152610c108282610b82565b6040860151858203603f19016080870152805180835260209182019450600093509101905b80831015610c6c57835180516001600160a01b03168352602090810151818401529093019260019290920191604090910190610c35565b5060608601516001600160a01b031660a08601526080860151858203603f190160c08701529250610c9d8184610b82565b979650505050505050565b600060208284031215610cba57600080fd5b5051919050565b600060208284031215610cd357600080fd5b8151801515811461083c57600080fd5b60006040828403128015610cf657600080fd5b50610cff610915565b8251610d0a81610899565b81526020928301519281019290925250919050565b604081018235610d2e81610899565b6001600160a01b0316825260209283013592909101919091529056fea264697066735822122061a15886b78cdfc66e80aae766e5615c268b5c7f99ac058a6de92d9956120c9164736f6c634300081a0033a264697066735822122060d0b3aef6da03f2a1665645a097b37d276525da5cfee647f31fe09626aab68a64736f6c634300081a0033",
        "nonce": "0xd2",
        "chainId": "0x14a34"
      },
      "additionalContracts": [],
      "isFixedGasLimit": false
    },
    {
      "hash": "0xd5502680285dae7fc40f654461ec00d9c63f6a74fa81d1f609a52a13d62b9e89",
      "transactionType": "CALL",
      "contractName": "CrossChainTokenRouter",
      "contractAddress": "0xbfcb4e1eebc37cd6224f45355089037e92e8be76",
      "function": "createAndRegisterPool(uint64,address,address,address)",
      "arguments": [
        "16015286601757825753",
        "0xe7A527BD98566FDc99EA72bf16c6cc4eFe3606a0",
        "0xE4aB69C077896252FAFBD49EFD26B5D171A32410",
        "0xD3b06cEbF099CE7DA4AcCf578aaebFDBd6e88a93"
      ],
      "transaction": {
        "from": "0x75998e806d0be5b37c5de74acfa0006b3c7dcdff",
        "to": "0xbfcb4e1eebc37cd6224f45355089037e92e8be76",
        "gas": "0x1143d1",
        "value": "0x0",
        "input": "0x0faa90e2000000000000000000000000000000000000000000000000de41ba4fc9d91ad9000000000000000000000000e7a527bd98566fdc99ea72bf16c6cc4efe3606a0000000000000000000000000e4ab69c077896252fafbd49efd26b5d171a32410000000000000000000000000d3b06cebf099ce7da4accf578aaebfdbd6e88a93",
        "nonce": "0xd3",
        "chainId": "0x14a34"
      },
      "additionalContracts": [
        {
          "transactionType": "CREATE",
          "address": "0x2e89a34111c7d10f7126c6f5bd871a36389444a9",
          "initCode": "0x60a060405234801561001057600080fd5b50604051610e97380380610e9783398101604081905261002f916100b3565b826001600160a01b03811661005e576040516335fdcccd60e21b81526000600482015260240160405180910390fd5b6001600160a01b03908116608052600080549382166001600160a01b0319948516179055600180549290911691909216179055506100f6565b80516001600160a01b03811681146100ae57600080fd5b919050565b6000806000606084860312156100c857600080fd5b6100d184610097565b92506100df60208501610097565b91506100ed60408501610097565b90509250925092565b608051610d806101176000396000818160dc015261018a0152610d806000f3fe608060405234801561001057600080fd5b50600436106100625760003560e01c806301ffc9a71461006757806385572ffb1461008f5780638fe3c636146100a4578063b0f479a1146100da578063fc0c546a14610114578063fee8c14d14610127575b600080fd5b61007a610075366004610812565b610148565b60405190151581526020015b60405180910390f35b6100a261009d366004610843565b61017f565b005b6004546005546100bb916001600160a01b03169082565b604080516001600160a01b039093168352602083019190915201610086565b7f00000000000000000000000000000000000000000000000000000000000000005b6040516001600160a01b039091168152602001610086565b6001546100fc906001600160a01b031681565b61013a6101353660046108ae565b6101e3565b604051908152602001610086565b60006001600160e01b031982166385572ffb60e01b148061017957506001600160e01b031982166301ffc9a760e01b145b92915050565b336001600160a01b037f000000000000000000000000000000000000000000000000000000000000000016146101cf576040516335fdcccd60e21b81523360048201526024015b60405180910390fd5b6101e06101db82610aaf565b6105ac565b50565b6000805481906101ff90859085906001600160a01b03166106c6565b90506000306001600160a01b031663b0f479a16040518163ffffffff1660e01b8152600401602060405180830381865afa158015610241573d6000803e3d6000fd5b505050506040513d601f19601f820116820180604052508101906102659190610b65565b90506000816001600160a01b03166320487ded88856040518363ffffffff1660e01b8152600401610297929190610bc8565b602060405180830381865afa1580156102b4573d6000803e3d6000fd5b505050506040513d601f19601f820116820180604052508101906102d89190610ca8565b6000546040516370a0823160e01b81523060048201529192506001600160a01b0316906370a0823190602401602060405180830381865afa158015610321573d6000803e3d6000fd5b505050506040513d601f19601f820116820180604052508101906103459190610ca8565b8111156103dc576000546040516370a0823160e01b81523060048201526001600160a01b03909116906370a0823190602401602060405180830381865afa158015610394573d6000803e3d6000fd5b505050506040513d601f19601f820116820180604052508101906103b89190610ca8565b604051634787a10360e11b81526004810191909152602481018290526044016101c6565b60005460405163095ea7b360e01b81526001600160a01b038481166004830152602482018490529091169063095ea7b3906044016020604051808303816000875af115801561042f573d6000803e3d6000fd5b505050506040513d601f19601f820116820180604052508101906104539190610cc1565b506001546040516323b872dd60e01b8152336004820152306024820152602087013560448201526001600160a01b03909116906323b872dd906064016020604051808303816000875af11580156104ae573d6000803e3d6000fd5b505050506040513d601f19601f820116820180604052508101906104d29190610cc1565b506040516396f4e9f960e01b81526001600160a01b038316906396f4e9f990610501908a908790600401610bc8565b6020604051808303816000875af1158015610520573d6000803e3d6000fd5b505050506040513d601f19601f820116820180604052508101906105449190610ca8565b600054604080516001600160a01b03808b168252909216602083015281018390529094506001600160401b0388169085907f9fb548811cfe022ba6400d8533a80d63fbc228e596f93603959dc47b1886af549060600160405180910390a35050509392505050565b8051600255606081015180516000916105cd91810160209081019101610ce3565b8051600480546001600160a01b0319166001600160a01b0392831690811782556020840151600581905560015460405163a9059cbb60e01b815293840192909252602483015292935091169063a9059cbb906044016020604051808303816000875af1158015610641573d6000803e3d6000fd5b505050506040513d601f19601f820116820180604052508101906106659190610cc1565b506020808301518351835184840151604080516001600160a01b039093168352948201526001600160401b039092169290917f9e0cedd023f625fb8db19f2eb903c24aa1a45f05fd9ef9431a80505ad65e30fe910160405180910390a35050565b6107016040518060a0016040528060608152602001606081526020016060815260200160006001600160a01b03168152602001606081525090565b6040805160a081019091526001600160a01b03851660c08201528060e081016040516020818303038152906040528152602001846040516020016107459190610d1f565b60408051601f19818403018152919052815260200160006040519080825280602002602001820160405280156107a157816020015b604080518082019091526000808252602082015281526020019060019003908161077a5790505b508152602001836001600160a01b03168152602001610808604051806020016040528062030d4081525060408051915160248084019190915281518084039091018152604490920190526020810180516001600160e01b03166397a657c960e01b17905290565b9052949350505050565b60006020828403121561082457600080fd5b81356001600160e01b03198116811461083c57600080fd5b9392505050565b60006020828403121561085557600080fd5b81356001600160401b0381111561086b57600080fd5b820160a0818503121561083c57600080fd5b80356001600160401b038116811461089457600080fd5b919050565b6001600160a01b03811681146101e057600080fd5b600080600083850360808112156108c457600080fd5b6108cd8561087d565b935060208501356108dd81610899565b92506040603f19820112156108f157600080fd5b506040840190509250925092565b634e487b7160e01b600052604160045260246000fd5b604080519081016001600160401b0381118282101715610937576109376108ff565b60405290565b60405160a081016001600160401b0381118282101715610937576109376108ff565b604051601f8201601f191681016001600160401b0381118282101715610987576109876108ff565b604052919050565b600082601f8301126109a057600080fd5b81356001600160401b038111156109b9576109b96108ff565b6109cc601f8201601f191660200161095f565b8181528460208386010111156109e157600080fd5b816020850160208301376000918101602001919091529392505050565b600082601f830112610a0f57600080fd5b81356001600160401b03811115610a2857610a286108ff565b610a3760208260051b0161095f565b8082825260208201915060208360061b860101925085831115610a5957600080fd5b602085015b83811015610aa55760408188031215610a7657600080fd5b610a7e610915565b8135610a8981610899565b8152602082810135818301529084529290920191604001610a5e565b5095945050505050565b600060a08236031215610ac157600080fd5b610ac961093d565b82358152610ad96020840161087d565b602082015260408301356001600160401b03811115610af757600080fd5b610b033682860161098f565b60408301525060608301356001600160401b03811115610b2257600080fd5b610b2e3682860161098f565b60608301525060808301356001600160401b03811115610b4d57600080fd5b610b59368286016109fe565b60808301525092915050565b600060208284031215610b7757600080fd5b815161083c81610899565b6000815180845260005b81811015610ba857602081850181015186830182015201610b8c565b506000602082860101526020601f19601f83011685010191505092915050565b6001600160401b0383168152604060208201526000825160a06040840152610bf360e0840182610b82565b90506020840151603f19848303016060850152610c108282610b82565b6040860151858203603f19016080870152805180835260209182019450600093509101905b80831015610c6c57835180516001600160a01b03168352602090810151818401529093019260019290920191604090910190610c35565b5060608601516001600160a01b031660a08601526080860151858203603f190160c08701529250610c9d8184610b82565b979650505050505050565b600060208284031215610cba57600080fd5b5051919050565b600060208284031215610cd357600080fd5b8151801515811461083c57600080fd5b60006040828403128015610cf657600080fd5b50610cff610915565b8251610d0a81610899565b81526020928301519281019290925250919050565b604081018235610d2e81610899565b6001600160a01b0316825260209283013592909101919091529056fea264697066735822122061a15886b78cdfc66e80aae766e5615c268b5c7f99ac058a6de92d9956120c9164736f6c634300081a0033000000000000000000000000d3b06cebf099ce7da4accf578aaebfdbd6e88a93000000000000000000000000e4ab69c077896252fafbd49efd26b5d171a32410000000000000000000000000e7a527bd98566fdc99ea72bf16c6cc4efe3606a0"
        }
      ],
      "isFixedGasLimit": false
    },
    {
      "hash": "0xd7db62dffe1ca8cabb0b95f20facf346bdbdae2f939be39a800e5eaac3bb332f",
      "transactionType": "CALL",
      "contractName": "CrossChainTokenRouter",
      "contractAddress": "0xbfcb4e1eebc37cd6224f45355089037e92e8be76",
      "function": "updateDestinationPool(uint64,address,address)",
      "arguments": [
        "16015286601757825753",
        "0xe7A527BD98566FDc99EA72bf16c6cc4eFe3606a0",
        "0xe7A527BD98566FDc99EA72bf16c6cc4eFe3606a0"
      ],
      "transaction": {
        "from": "0x75998e806d0be5b37c5de74acfa0006b3c7dcdff",
        "to": "0xbfcb4e1eebc37cd6224f45355089037e92e8be76",
        "gas": "0x117ce",
        "value": "0x0",
        "input": "0xf357f6c2000000000000000000000000000000000000000000000000de41ba4fc9d91ad9000000000000000000000000e7a527bd98566fdc99ea72bf16c6cc4efe3606a0000000000000000000000000e7a527bd98566fdc99ea72bf16c6cc4efe3606a0",
        "nonce": "0xd4",
        "chainId": "0x14a34"
      },
      "additionalContracts": [],
      "isFixedGasLimit": false
    },
    {
      "hash": "0xad3c5ca03f96a5a13ec3220ff3b010205f4a9a9932041ce22748c1f079ff2ab8",
      "transactionType": "CALL",
      "contractName": null,
      "contractAddress": "0xe7a527bd98566fdc99ea72bf16c6cc4efe3606a0",
      "function": "approve(address,uint256)",
      "arguments": [
        "0xBFCB4e1eEbC37cd6224f45355089037e92e8bE76",
        "1000000000000000000000000000"
      ],
      "transaction": {
        "from": "0x75998e806d0be5b37c5de74acfa0006b3c7dcdff",
        "to": "0xe7a527bd98566fdc99ea72bf16c6cc4efe3606a0",
        "gas": "0xfa82",
        "value": "0x0",
        "input": "0x095ea7b3000000000000000000000000bfcb4e1eebc37cd6224f45355089037e92e8be760000000000000000000000000000000000000000033b2e3c9fd0803ce8000000",
        "nonce": "0xd5",
        "chainId": "0x14a34"
      },
      "additionalContracts": [],
      "isFixedGasLimit": false
    },
    {
      "hash": "0x835c81aa9971d75241681202ce59fcbf6b1afa157d3da05e1f9b77842a92058e",
      "transactionType": "CALL",
      "contractName": null,
      "contractAddress": "0xe4ab69c077896252fafbd49efd26b5d171a32410",
      "function": "transfer(address,uint256)",
      "arguments": [
        "0x2e89A34111C7D10F7126C6F5BD871a36389444A9",
        "3000000000000000000"
      ],
      "transaction": {
        "from": "0x75998e806d0be5b37c5de74acfa0006b3c7dcdff",
        "to": "0xe4ab69c077896252fafbd49efd26b5d171a32410",
        "gas": "0xfbcb",
        "value": "0x0",
        "input": "0xa9059cbb0000000000000000000000002e89a34111c7d10f7126c6f5bd871a36389444a900000000000000000000000000000000000000000000000029a2241af62c0000",
        "nonce": "0xd6",
        "chainId": "0x14a34"
      },
      "additionalContracts": [],
      "isFixedGasLimit": false
    },
    {
      "hash": "0x70d033b5d13ffded1c83b41fd178b9f0968efa4a51d36ec203de2e842e4963d9",
      "transactionType": "CALL",
      "contractName": "CrossChainTokenRouter",
      "contractAddress": "0xbfcb4e1eebc37cd6224f45355089037e92e8be76",
      "function": "bridgeToken(address,uint256,address,uint256)",
      "arguments": [
        "0xe7A527BD98566FDc99EA72bf16c6cc4eFe3606a0",
        "16015286601757825753",
        "0x75998e806D0BE5B37c5DE74AcfA0006B3C7DCdfF",
        "10000000000000000000"
      ],
      "transaction": {
        "from": "0x75998e806d0be5b37c5de74acfa0006b3c7dcdff",
        "to": "0xbfcb4e1eebc37cd6224f45355089037e92e8be76",
        "gas": "0x4eadc",
        "value": "0x0",
        "input": "0xc2068fc7000000000000000000000000e7a527bd98566fdc99ea72bf16c6cc4efe3606a0000000000000000000000000000000000000000000000000de41ba4fc9d91ad900000000000000000000000075998e806d0be5b37c5de74acfa0006b3c7dcdff0000000000000000000000000000000000000000000000008ac7230489e80000",
        "nonce": "0xd7",
        "chainId": "0x14a34"
      },
      "additionalContracts": [],
      "isFixedGasLimit": false
    }
  ],
  "receipts": [
    {
      "status": "0x1",
      "cumulativeGasUsed": "0x2d1433",
      "logs": [],
      "logsBloom": "0x00000000000000000000000000000000000000000000000000000000000000000000000000000000000000000000000000000000000000000000000000000000000000000000000000000000000000000000000000000000000000000000000000000000000000000000000000000000000000000000000000000000000000000000000000000000000000000000000000000000000000000000000000000000000000000000000000000000000000000000000000000000000000000000000000000000000000000000000000000000000000000000000000000000000000000000000000000000000000000000000000000000000000000000000000000000",
      "type": "0x2",
      "transactionHash": "0xd077e5c27872b259e62fc6f3d9b685e486438cab3532d5522d0ae7f25087f663",
      "transactionIndex": "0x9",
      "blockHash": "0x357c7ae59466ff98a8d75cf9e51030c51b043112aa4cafa4cae2f65580c56b70",
      "blockNumber": "0xd1eaed",
      "gasUsed": "0x1378ee",
      "effectiveGasPrice": "0xac6a27",
      "from": "0x75998e806d0be5b37c5de74acfa0006b3c7dcdff",
      "to": null,
      "contractAddress": "0xbfcb4e1eebc37cd6224f45355089037e92e8be76",
      "l1BaseFeeScalar": "0x44d",
      "l1BlobBaseFee": "0x1083b7a2674",
      "l1BlobBaseFeeScalar": "0xa118b",
      "l1Fee": "0x84d7aa585e6b3",
      "l1GasPrice": "0x1d092f5c4",
      "l1GasUsed": "0xc303"
    },
    {
      "status": "0x1",
      "cumulativeGasUsed": "0x399502",
      "logs": [
        {
          "address": "0xbfcb4e1eebc37cd6224f45355089037e92e8be76",
          "topics": [
            "0x23100b01664d2b1a34cfa556c0db93a24e5b6224316568a8e25fdd0bd679426f"
          ],
          "data": "0x000000000000000000000000000000000000000000000000de41ba4fc9d91ad9000000000000000000000000e7a527bd98566fdc99ea72bf16c6cc4efe3606a00000000000000000000000002e89a34111c7d10f7126c6f5bd871a36389444a90000000000000000000000000000000000000000000000000000000000000000",
          "blockHash": "0x357c7ae59466ff98a8d75cf9e51030c51b043112aa4cafa4cae2f65580c56b70",
          "blockNumber": "0xd1eaed",
          "transactionHash": "0xd5502680285dae7fc40f654461ec00d9c63f6a74fa81d1f609a52a13d62b9e89",
          "transactionIndex": "0xa",
          "logIndex": "0x2c",
          "removed": false
        }
      ],
      "logsBloom": "0x00000000200000000000000000000000000000000000000000000000000000000000000000000000000000000000000000000000000000000000000000000000000000000000000000000000000000000000000002000000000000000000000000000000000000000000000000000000000000000000000000000000000080000000000000000000000000000000000000000000000000000000000100000000000000000000000000000000000000000000000000000000000000400000000000000000000000000000000000000000000000000000000000000000000000000000000000000000000000000000000000040000000000000000000000000000",
      "type": "0x2",
      "transactionHash": "0xd5502680285dae7fc40f654461ec00d9c63f6a74fa81d1f609a52a13d62b9e89",
      "transactionIndex": "0xa",
      "blockHash": "0x357c7ae59466ff98a8d75cf9e51030c51b043112aa4cafa4cae2f65580c56b70",
      "blockNumber": "0xd1eaed",
      "gasUsed": "0xc80cf",
      "effectiveGasPrice": "0xac6a27",
      "from": "0x75998e806d0be5b37c5de74acfa0006b3c7dcdff",
      "to": "0xbfcb4e1eebc37cd6224f45355089037e92e8be76",
      "contractAddress": null,
      "l1BaseFeeScalar": "0x44d",
      "l1BlobBaseFee": "0x1083b7a2674",
      "l1BlobBaseFeeScalar": "0xa118b",
      "l1Fee": "0x58f18dedc134",
      "l1GasPrice": "0x1d092f5c4",
      "l1GasUsed": "0x829"
    },
    {
      "status": "0x1",
      "cumulativeGasUsed": "0x3a5454",
      "logs": [
        {
          "address": "0xbfcb4e1eebc37cd6224f45355089037e92e8be76",
          "topics": [
            "0xed17835cdc80e2a61f2eca59dd0c5aa1781bb0254d17691128c3489b18654b30"
          ],
          "data": "0x000000000000000000000000000000000000000000000000de41ba4fc9d91ad9000000000000000000000000e7a527bd98566fdc99ea72bf16c6cc4efe3606a00000000000000000000000000000000000000000000000000000000000000000000000000000000000000000e7a527bd98566fdc99ea72bf16c6cc4efe3606a0",
          "blockHash": "0x357c7ae59466ff98a8d75cf9e51030c51b043112aa4cafa4cae2f65580c56b70",
          "blockNumber": "0xd1eaed",
          "transactionHash": "0xd7db62dffe1ca8cabb0b95f20facf346bdbdae2f939be39a800e5eaac3bb332f",
          "transactionIndex": "0xb",
          "logIndex": "0x2d",
          "removed": false
        }
      ],
      "logsBloom": "0x00000000000000000000000001000000000000000000000000000000000000000000000000000000000000000000000000000000000000000000000000000000000000000000000000000000000000000000000002000000000000000000000000000000000000000000000000000000000000000000000000000000000080000000000000000000000000000000000000000000000000000000000100000000000000000000000000000000000000000000000000000000000040000000000000000000000000000000000000000000000000000000000000000000000000000000000000000000000000000000000000000000000000000000000008000000",
      "type": "0x2",
      "transactionHash": "0xd7db62dffe1ca8cabb0b95f20facf346bdbdae2f939be39a800e5eaac3bb332f",
      "transactionIndex": "0xb",
      "blockHash": "0x357c7ae59466ff98a8d75cf9e51030c51b043112aa4cafa4cae2f65580c56b70",
      "blockNumber": "0xd1eaed",
      "gasUsed": "0xbf52",
      "effectiveGasPrice": "0xac6a27",
      "from": "0x75998e806d0be5b37c5de74acfa0006b3c7dcdff",
      "to": "0xbfcb4e1eebc37cd6224f45355089037e92e8be76",
      "contractAddress": null,
      "l1BaseFeeScalar": "0x44d",
      "l1BlobBaseFee": "0x1083b7a2674",
      "l1BlobBaseFeeScalar": "0xa118b",
      "l1Fee": "0x441e97ff69e3",
      "l1GasPrice": "0x1d092f5c4",
      "l1GasUsed": "0x640"
    },
    {
      "status": "0x1",
      "cumulativeGasUsed": "0x1763dd",
      "logs": [
        {
          "address": "0xe7a527bd98566fdc99ea72bf16c6cc4efe3606a0",
          "topics": [
            "0x8c5be1e5ebec7d5bd14f71427d1e84f3dd0314c0f7b2291e5b200ac8c7c3b925",
            "0x00000000000000000000000075998e806d0be5b37c5de74acfa0006b3c7dcdff",
            "0x000000000000000000000000bfcb4e1eebc37cd6224f45355089037e92e8be76"
          ],
          "data": "0x0000000000000000000000000000000000000000033b2e3c9fd0803ce8000000",
          "blockHash": "0x921b7a621106bd8a3019a7d4cb80e7d810db947d55c603786380709e5ed68cca",
          "blockNumber": "0xd1eaee",
          "transactionHash": "0xad3c5ca03f96a5a13ec3220ff3b010205f4a9a9932041ce22748c1f079ff2ab8",
          "transactionIndex": "0x5",
          "logIndex": "0x29",
          "removed": false
        }
      ],
      "logsBloom": "0x00000000000200100000000000000000000000000000000000000000000000000000000000000000000000000000000000000000000000000000000000200000000000000000000000000000000000000000000000000000000000000000000000000000000000000001000000000000000000000000000000000000000000000000000010000000000400000000000400000000000000000000000000000000020000000000000000000000000000000000000000000002000000000000000000000000000000000000000000000000000000000000000000000000000000000010000000000000000000000000000000000000000000000002000000000400",
      "type": "0x2",
      "transactionHash": "0xad3c5ca03f96a5a13ec3220ff3b010205f4a9a9932041ce22748c1f079ff2ab8",
      "transactionIndex": "0x5",
      "blockHash": "0x921b7a621106bd8a3019a7d4cb80e7d810db947d55c603786380709e5ed68cca",
      "blockNumber": "0xd1eaee",
      "gasUsed": "0xb55e",
      "effectiveGasPrice": "0xac5495",
      "from": "0x75998e806d0be5b37c5de74acfa0006b3c7dcdff",
      "to": "0xe7a527bd98566fdc99ea72bf16c6cc4efe3606a0",
      "contractAddress": null,
      "l1BaseFeeScalar": "0x44d",
      "l1BlobBaseFee": "0x1083b7a2674",
      "l1BlobBaseFeeScalar": "0xa118b",
      "l1Fee": "0x441e97ff69e3",
      "l1GasPrice": "0x1d092f5c4",
      "l1GasUsed": "0x640"
    },
    {
      "status": "0x1",
      "cumulativeGasUsed": "0x181a29",
      "logs": [
        {
          "address": "0xe4ab69c077896252fafbd49efd26b5d171a32410",
          "topics": [
            "0xddf252ad1be2c89b69c2b068fc378daa952ba7f163c4a11628f55a4df523b3ef",
            "0x00000000000000000000000075998e806d0be5b37c5de74acfa0006b3c7dcdff",
            "0x0000000000000000000000002e89a34111c7d10f7126c6f5bd871a36389444a9"
          ],
          "data": "0x00000000000000000000000000000000000000000000000029a2241af62c0000",
          "blockHash": "0x921b7a621106bd8a3019a7d4cb80e7d810db947d55c603786380709e5ed68cca",
          "blockNumber": "0xd1eaee",
          "transactionHash": "0x835c81aa9971d75241681202ce59fcbf6b1afa157d3da05e1f9b77842a92058e",
          "transactionIndex": "0x6",
          "logIndex": "0x2a",
          "removed": false
        }
      ],
      "logsBloom": "0x00008000000000100000000400000000000000008000000000000000000000000000000000000000000000000000000000000000000000000000000000000000000000000000000000000008000000000000000000000000000000000000000000000000000000000000000000000000000000000000000000000010000000000000000010000000000000000000000000000000000000000000000000000000000000000000000000000000000000000000000000000002020000000000000000000002000000000000000000000000000000000000000000000000000000000000000000000000000040000000000000000000000000000000200000000000",
      "type": "0x2",
      "transactionHash": "0x835c81aa9971d75241681202ce59fcbf6b1afa157d3da05e1f9b77842a92058e",
      "transactionIndex": "0x6",
      "blockHash": "0x921b7a621106bd8a3019a7d4cb80e7d810db947d55c603786380709e5ed68cca",
      "blockNumber": "0xd1eaee",
      "gasUsed": "0xb64c",
      "effectiveGasPrice": "0xac5495",
      "from": "0x75998e806d0be5b37c5de74acfa0006b3c7dcdff",
      "to": "0xe4ab69c077896252fafbd49efd26b5d171a32410",
      "contractAddress": null,
      "l1BaseFeeScalar": "0x44d",
      "l1BlobBaseFee": "0x1083b7a2674",
      "l1BlobBaseFeeScalar": "0xa118b",
      "l1Fee": "0x441e97ff69e3",
      "l1GasPrice": "0x1d092f5c4",
      "l1GasUsed": "0x640"
    },
    {
      "status": "0x1",
      "cumulativeGasUsed": "0x1b76ec",
      "logs": [
        {
          "address": "0xe7a527bd98566fdc99ea72bf16c6cc4efe3606a0",
          "topics": [
            "0xddf252ad1be2c89b69c2b068fc378daa952ba7f163c4a11628f55a4df523b3ef",
            "0x00000000000000000000000075998e806d0be5b37c5de74acfa0006b3c7dcdff",
            "0x000000000000000000000000bfcb4e1eebc37cd6224f45355089037e92e8be76"
          ],
          "data": "0x0000000000000000000000000000000000000000000000008ac7230489e80000",
          "blockHash": "0x921b7a621106bd8a3019a7d4cb80e7d810db947d55c603786380709e5ed68cca",
          "blockNumber": "0xd1eaee",
          "transactionHash": "0x70d033b5d13ffded1c83b41fd178b9f0968efa4a51d36ec203de2e842e4963d9",
          "transactionIndex": "0x7",
          "logIndex": "0x2b",
          "removed": false
        },
        {
          "address": "0xe7a527bd98566fdc99ea72bf16c6cc4efe3606a0",
          "topics": [
            "0x8c5be1e5ebec7d5bd14f71427d1e84f3dd0314c0f7b2291e5b200ac8c7c3b925",
            "0x000000000000000000000000bfcb4e1eebc37cd6224f45355089037e92e8be76",
            "0x0000000000000000000000002e89a34111c7d10f7126c6f5bd871a36389444a9"
          ],
          "data": "0x0000000000000000000000000000000000000000000000008ac7230489e80000",
          "blockHash": "0x921b7a621106bd8a3019a7d4cb80e7d810db947d55c603786380709e5ed68cca",
          "blockNumber": "0xd1eaee",
          "transactionHash": "0x70d033b5d13ffded1c83b41fd178b9f0968efa4a51d36ec203de2e842e4963d9",
          "transactionIndex": "0x7",
          "logIndex": "0x2c",
          "removed": false
        },
        {
          "address": "0xe4ab69c077896252fafbd49efd26b5d171a32410",
          "topics": [
            "0x8c5be1e5ebec7d5bd14f71427d1e84f3dd0314c0f7b2291e5b200ac8c7c3b925",
            "0x0000000000000000000000002e89a34111c7d10f7126c6f5bd871a36389444a9",
            "0x000000000000000000000000d3b06cebf099ce7da4accf578aaebfdbd6e88a93"
          ],
          "data": "0x000000000000000000000000000000000000000000000000020892a9f0c8632d",
          "blockHash": "0x921b7a621106bd8a3019a7d4cb80e7d810db947d55c603786380709e5ed68cca",
          "blockNumber": "0xd1eaee",
          "transactionHash": "0x70d033b5d13ffded1c83b41fd178b9f0968efa4a51d36ec203de2e842e4963d9",
          "transactionIndex": "0x7",
          "logIndex": "0x2d",
          "removed": false
        },
        {
          "address": "0xe7a527bd98566fdc99ea72bf16c6cc4efe3606a0",
          "topics": [
            "0xddf252ad1be2c89b69c2b068fc378daa952ba7f163c4a11628f55a4df523b3ef",
            "0x000000000000000000000000bfcb4e1eebc37cd6224f45355089037e92e8be76",
            "0x0000000000000000000000002e89a34111c7d10f7126c6f5bd871a36389444a9"
          ],
          "data": "0x0000000000000000000000000000000000000000000000008ac7230489e80000",
          "blockHash": "0x921b7a621106bd8a3019a7d4cb80e7d810db947d55c603786380709e5ed68cca",
          "blockNumber": "0xd1eaee",
          "transactionHash": "0x70d033b5d13ffded1c83b41fd178b9f0968efa4a51d36ec203de2e842e4963d9",
          "transactionIndex": "0x7",
          "logIndex": "0x2e",
          "removed": false
        },
        {
          "address": "0xe4ab69c077896252fafbd49efd26b5d171a32410",
          "topics": [
            "0x8c5be1e5ebec7d5bd14f71427d1e84f3dd0314c0f7b2291e5b200ac8c7c3b925",
            "0x0000000000000000000000002e89a34111c7d10f7126c6f5bd871a36389444a9",
            "0x000000000000000000000000d3b06cebf099ce7da4accf578aaebfdbd6e88a93"
          ],
          "data": "0x0000000000000000000000000000000000000000000000000000000000000000",
          "blockHash": "0x921b7a621106bd8a3019a7d4cb80e7d810db947d55c603786380709e5ed68cca",
          "blockNumber": "0xd1eaee",
          "transactionHash": "0x70d033b5d13ffded1c83b41fd178b9f0968efa4a51d36ec203de2e842e4963d9",
          "transactionIndex": "0x7",
          "logIndex": "0x2f",
          "removed": false
        },
        {
          "address": "0xe4ab69c077896252fafbd49efd26b5d171a32410",
          "topics": [
            "0xddf252ad1be2c89b69c2b068fc378daa952ba7f163c4a11628f55a4df523b3ef",
            "0x0000000000000000000000002e89a34111c7d10f7126c6f5bd871a36389444a9",
            "0x0000000000000000000000006486906bb2d85a6c0ccef2a2831c11a2059ebfea"
          ],
          "data": "0x000000000000000000000000000000000000000000000000020892a9f0c8632d",
          "blockHash": "0x921b7a621106bd8a3019a7d4cb80e7d810db947d55c603786380709e5ed68cca",
          "blockNumber": "0xd1eaee",
          "transactionHash": "0x70d033b5d13ffded1c83b41fd178b9f0968efa4a51d36ec203de2e842e4963d9",
          "transactionIndex": "0x7",
          "logIndex": "0x30",
          "removed": false
        },
        {
          "address": "0x6486906bb2d85a6c0ccef2a2831c11a2059ebfea",
          "topics": [
            "0xd0c3c799bf9e2639de44391e7f524d229b2b55f5b1ea94b2bf7da42f7243dddd"
          ],
          "data": "0x00000000000000000000000000000000000000000000000000000000000000200000000000000000000000000000000000000000000000008f90b8876dee65380000000000000000000000002e89a34111c7d10f7126c6f5bd871a36389444a9000000000000000000000000e7a527bd98566fdc99ea72bf16c6cc4efe3606a000000000000000000000000000000000000000000000000000000000000006af0000000000000000000000000000000000000000000000000000000000030d4000000000000000000000000000000000000000000000000000000000000000000000000000000000000000000000000000000000000000000000000000000001000000000000000000000000e4ab69c077896252fafbd49efd26b5d171a32410000000000000000000000000000000000000000000000000020892a9f0c8632d00000000000000000000000000000000000000000000000000000000000001a000000000000000000000000000000000000000000000000000000000000002000000000000000000000000000000000000000000000000000000000000000220c72f0c12b9c2174922054b0a3ec2ea40c5b334c548f7dc39336632f04f0a5d55000000000000000000000000000000000000000000000000000000000000004000000000000000000000000075998e806d0be5b37c5de74acfa0006b3c7dcdff0000000000000000000000000000000000000000000000008ac7230489e8000000000000000000000000000000000000000000000000000000000000000000000000000000000000000000000000000000000000000000000000000000000000",
          "blockHash": "0x921b7a621106bd8a3019a7d4cb80e7d810db947d55c603786380709e5ed68cca",
          "blockNumber": "0xd1eaee",
          "transactionHash": "0x70d033b5d13ffded1c83b41fd178b9f0968efa4a51d36ec203de2e842e4963d9",
          "transactionIndex": "0x7",
          "logIndex": "0x31",
          "removed": false
        },
        {
          "address": "0x2e89a34111c7d10f7126c6f5bd871a36389444a9",
          "topics": [
            "0x9fb548811cfe022ba6400d8533a80d63fbc228e596f93603959dc47b1886af54",
            "0xc72f0c12b9c2174922054b0a3ec2ea40c5b334c548f7dc39336632f04f0a5d55",
            "0x000000000000000000000000000000000000000000000000de41ba4fc9d91ad9"
          ],
          "data": "0x000000000000000000000000e7a527bd98566fdc99ea72bf16c6cc4efe3606a0000000000000000000000000e4ab69c077896252fafbd49efd26b5d171a32410000000000000000000000000000000000000000000000000020892a9f0c8632d",
          "blockHash": "0x921b7a621106bd8a3019a7d4cb80e7d810db947d55c603786380709e5ed68cca",
          "blockNumber": "0xd1eaee",
          "transactionHash": "0x70d033b5d13ffded1c83b41fd178b9f0968efa4a51d36ec203de2e842e4963d9",
          "transactionIndex": "0x7",
          "logIndex": "0x32",
          "removed": false
        }
      ],
      "logsBloom": "0x00008000000200100000800400000000000000008000000000000000000000000000000000004000000000000000000000000000000000000000000000200000000000000000001000000808000000002000000000000000000000000000000000000000000000000001000000010040000000050000000000000210000000000000000110000000000400000000000400000020000000000000000000000000020000000000000400000000000000002000010000004002020100000040100000000002000020000200020000000000000000000000000008000000000000000010000000000000000040000000000004000000000000000002200000000400",
      "type": "0x2",
      "transactionHash": "0x70d033b5d13ffded1c83b41fd178b9f0968efa4a51d36ec203de2e842e4963d9",
      "transactionIndex": "0x7",
      "blockHash": "0x921b7a621106bd8a3019a7d4cb80e7d810db947d55c603786380709e5ed68cca",
      "blockNumber": "0xd1eaee",
      "gasUsed": "0x35cc3",
      "effectiveGasPrice": "0xac5495",
      "from": "0x75998e806d0be5b37c5de74acfa0006b3c7dcdff",
      "to": "0xbfcb4e1eebc37cd6224f45355089037e92e8be76",
      "contractAddress": null,
      "l1BaseFeeScalar": "0x44d",
      "l1BlobBaseFee": "0x1083b7a2674",
      "l1BlobBaseFeeScalar": "0xa118b",
      "l1Fee": "0x55864fb73476",
      "l1GasPrice": "0x1d092f5c4",
      "l1GasUsed": "0x7d8"
    }
  ],
  "libraries": [],
  "pending": [],
  "returns": {},
  "timestamp": 1723282625,
  "chain": 84532,
  "commit": "790228d"
}