{
  "transactions": [
    {
      "hash": "0xbe4a566ebd53e95006ed6a5cdd34db665723097d584715412db9566b97b1b7f9",
      "transactionType": "CREATE",
      "contractName": "CrossChainTokenRouter",
      "contractAddress": "0x16986fa14637c723ded20c4633eabe19d5e79ebf",
      "function": null,
      "arguments": null,
      "transaction": {
        "from": "0x75998e806d0be5b37c5de74acfa0006b3c7dcdff",
        "gas": "0x1951e1",
        "value": "0x0",
        "input": "0x6080604052348015600f57600080fd5b506116268061001f6000396000f3fe608060405234801561001057600080fd5b50600436106100575760003560e01c80630faa90e21461005c5780639d857e9114610071578063af8c5f3a14610108578063be923f0614610164578063f357f6c214610177575b600080fd5b61006f61006a366004610602565b61018a565b005b6100dc61007f366004610656565b6040805180820182526000808252602091820181905267ffffffffffffffff9490941684528381528184206001600160a01b0393841685528152928190208151808301909252805483168252600101549091169181019190915290565b6040805182516001600160a01b0390811682526020938401511692810192909252015b60405180910390f35b610144610116366004610656565b6000602081815292815260408082209093529081522080546001909101546001600160a01b03918216911682565b604080516001600160a01b039384168152929091166020830152016100ff565b61006f610172366004610689565b610299565b61006f6101853660046106d4565b6104cf565b600081838560405161019b906105c1565b6001600160a01b03938416815291831660208301529091166040820152606001604051809103906000f0801580156101d7573d6000803e3d6000fd5b506040805180820182526001600160a01b038381168083526000602080850182815267ffffffffffffffff8d168084528383528784208d8716808652908452888520975188549088166001600160a01b031991821617895592516001909801805498909716979092169690961790945585519485528401929092529282019290925260608101919091529091507f23100b01664d2b1a34cfa556c0db93a24e5b6224316568a8e25fdd0bd679426f906080015b60405180910390a15050505050565b67ffffffffffffffff83166000908152602081815260408083206001600160a01b038089168552908352928190208151808301909252805484168252600101549092169082018190526103335760405162461bcd60e51b815260206004820152601f60248201527f44657374696e6174696f6e20706f6f6c206e6f7420726567697374657265640060448201526064015b60405180910390fd5b6040516323b872dd60e01b8152336004820152306024820152604481018390526001600160a01b038616906323b872dd906064016020604051808303816000875af1158015610386573d6000803e3d6000fd5b505050506040513d601f19601f820116820180604052508101906103aa9190610717565b50805160405163095ea7b360e01b81526001600160a01b039182166004820152602481018490529086169063095ea7b3906044016020604051808303816000875af11580156103fd573d6000803e3d6000fd5b505050506040513d601f19601f820116820180604052508101906104219190610717565b5080516020808301516040805180820182526001600160a01b038881168252938101878152915163fee8c14d60e01b815267ffffffffffffffff8a1660048201529284166024840152518316604483015251606482015291169063fee8c14d906084016020604051808303816000875af11580156104a3573d6000803e3d6000fd5b505050506040513d601f19601f820116820180604052508101906104c79190610740565b505050505050565b67ffffffffffffffff83166000908152602081815260408083206001600160a01b0380871685529252909120805490911661054c5760405162461bcd60e51b815260206004820152601a60248201527f536f7572636520706f6f6c206e6f742072656769737465726564000000000000604482015260640161032a565b6001810180546001600160a01b031981166001600160a01b038581169182179093556040805167ffffffffffffffff891681528785166020820152939092169183018290526060830152907fed17835cdc80e2a61f2eca59dd0c5aa1781bb0254d17691128c3489b18654b309060800161028a565b610e978061075a83390190565b803567ffffffffffffffff811681146105e657600080fd5b919050565b80356001600160a01b03811681146105e657600080fd5b6000806000806080858703121561061857600080fd5b610621856105ce565b935061062f602086016105eb565b925061063d604086016105eb565b915061064b606086016105eb565b905092959194509250565b6000806040838503121561066957600080fd5b610672836105ce565b9150610680602084016105eb565b90509250929050565b6000806000806080858703121561069f57600080fd5b6106a8856105eb565b93506106b6602086016105ce565b92506106c4604086016105eb565b9396929550929360600135925050565b6000806000606084860312156106e957600080fd5b6106f2846105ce565b9250610700602085016105eb565b915061070e604085016105eb565b90509250925092565b60006020828403121561072957600080fd5b8151801515811461073957600080fd5b9392505050565b60006020828403121561075257600080fd5b505191905056fe60a060405234801561001057600080fd5b50604051610e97380380610e9783398101604081905261002f916100b3565b826001600160a01b03811661005e576040516335fdcccd60e21b81526000600482015260240160405180910390fd5b6001600160a01b03908116608052600080549382166001600160a01b0319948516179055600180549290911691909216179055506100f6565b80516001600160a01b03811681146100ae57600080fd5b919050565b6000806000606084860312156100c857600080fd5b6100d184610097565b92506100df60208501610097565b91506100ed60408501610097565b90509250925092565b608051610d806101176000396000818160dc015261018a0152610d806000f3fe608060405234801561001057600080fd5b50600436106100625760003560e01c806301ffc9a71461006757806385572ffb1461008f5780638fe3c636146100a4578063b0f479a1146100da578063fc0c546a14610114578063fee8c14d14610127575b600080fd5b61007a610075366004610812565b610148565b60405190151581526020015b60405180910390f35b6100a261009d366004610843565b61017f565b005b6004546005546100bb916001600160a01b03169082565b604080516001600160a01b039093168352602083019190915201610086565b7f00000000000000000000000000000000000000000000000000000000000000005b6040516001600160a01b039091168152602001610086565b6001546100fc906001600160a01b031681565b61013a6101353660046108ae565b6101e3565b604051908152602001610086565b60006001600160e01b031982166385572ffb60e01b148061017957506001600160e01b031982166301ffc9a760e01b145b92915050565b336001600160a01b037f000000000000000000000000000000000000000000000000000000000000000016146101cf576040516335fdcccd60e21b81523360048201526024015b60405180910390fd5b6101e06101db82610aaf565b6105ac565b50565b6000805481906101ff90859085906001600160a01b03166106c6565b90506000306001600160a01b031663b0f479a16040518163ffffffff1660e01b8152600401602060405180830381865afa158015610241573d6000803e3d6000fd5b505050506040513d601f19601f820116820180604052508101906102659190610b65565b90506000816001600160a01b03166320487ded88856040518363ffffffff1660e01b8152600401610297929190610bc8565b602060405180830381865afa1580156102b4573d6000803e3d6000fd5b505050506040513d601f19601f820116820180604052508101906102d89190610ca8565b6000546040516370a0823160e01b81523060048201529192506001600160a01b0316906370a0823190602401602060405180830381865afa158015610321573d6000803e3d6000fd5b505050506040513d601f19601f820116820180604052508101906103459190610ca8565b8111156103dc576000546040516370a0823160e01b81523060048201526001600160a01b03909116906370a0823190602401602060405180830381865afa158015610394573d6000803e3d6000fd5b505050506040513d601f19601f820116820180604052508101906103b89190610ca8565b604051634787a10360e11b81526004810191909152602481018290526044016101c6565b60005460405163095ea7b360e01b81526001600160a01b038481166004830152602482018490529091169063095ea7b3906044016020604051808303816000875af115801561042f573d6000803e3d6000fd5b505050506040513d601f19601f820116820180604052508101906104539190610cc1565b506001546040516323b872dd60e01b8152336004820152306024820152602087013560448201526001600160a01b03909116906323b872dd906064016020604051808303816000875af11580156104ae573d6000803e3d6000fd5b505050506040513d601f19601f820116820180604052508101906104d29190610cc1565b506040516396f4e9f960e01b81526001600160a01b038316906396f4e9f990610501908a908790600401610bc8565b6020604051808303816000875af1158015610520573d6000803e3d6000fd5b505050506040513d601f19601f820116820180604052508101906105449190610ca8565b600054604080516001600160a01b03808b168252909216602083015281018390529094506001600160401b0388169085907f9fb548811cfe022ba6400d8533a80d63fbc228e596f93603959dc47b1886af549060600160405180910390a35050509392505050565b8051600255606081015180516000916105cd91810160209081019101610ce3565b8051600480546001600160a01b0319166001600160a01b0392831690811782556020840151600581905560015460405163a9059cbb60e01b815293840192909252602483015292935091169063a9059cbb906044016020604051808303816000875af1158015610641573d6000803e3d6000fd5b505050506040513d601f19601f820116820180604052508101906106659190610cc1565b506020808301518351835184840151604080516001600160a01b039093168352948201526001600160401b039092169290917f9e0cedd023f625fb8db19f2eb903c24aa1a45f05fd9ef9431a80505ad65e30fe910160405180910390a35050565b6107016040518060a0016040528060608152602001606081526020016060815260200160006001600160a01b03168152602001606081525090565b6040805160a081019091526001600160a01b03851660c08201528060e081016040516020818303038152906040528152602001846040516020016107459190610d1f565b60408051601f19818403018152919052815260200160006040519080825280602002602001820160405280156107a157816020015b604080518082019091526000808252602082015281526020019060019003908161077a5790505b508152602001836001600160a01b03168152602001610808604051806020016040528062030d4081525060408051915160248084019190915281518084039091018152604490920190526020810180516001600160e01b03166397a657c960e01b17905290565b9052949350505050565b60006020828403121561082457600080fd5b81356001600160e01b03198116811461083c57600080fd5b9392505050565b60006020828403121561085557600080fd5b81356001600160401b0381111561086b57600080fd5b820160a0818503121561083c57600080fd5b80356001600160401b038116811461089457600080fd5b919050565b6001600160a01b03811681146101e057600080fd5b600080600083850360808112156108c457600080fd5b6108cd8561087d565b935060208501356108dd81610899565b92506040603f19820112156108f157600080fd5b506040840190509250925092565b634e487b7160e01b600052604160045260246000fd5b604080519081016001600160401b0381118282101715610937576109376108ff565b60405290565b60405160a081016001600160401b0381118282101715610937576109376108ff565b604051601f8201601f191681016001600160401b0381118282101715610987576109876108ff565b604052919050565b600082601f8301126109a057600080fd5b81356001600160401b038111156109b9576109b96108ff565b6109cc601f8201601f191660200161095f565b8181528460208386010111156109e157600080fd5b816020850160208301376000918101602001919091529392505050565b600082601f830112610a0f57600080fd5b81356001600160401b03811115610a2857610a286108ff565b610a3760208260051b0161095f565b8082825260208201915060208360061b860101925085831115610a5957600080fd5b602085015b83811015610aa55760408188031215610a7657600080fd5b610a7e610915565b8135610a8981610899565b8152602082810135818301529084529290920191604001610a5e565b5095945050505050565b600060a08236031215610ac157600080fd5b610ac961093d565b82358152610ad96020840161087d565b602082015260408301356001600160401b03811115610af757600080fd5b610b033682860161098f565b60408301525060608301356001600160401b03811115610b2257600080fd5b610b2e3682860161098f565b60608301525060808301356001600160401b03811115610b4d57600080fd5b610b59368286016109fe565b60808301525092915050565b600060208284031215610b7757600080fd5b815161083c81610899565b6000815180845260005b81811015610ba857602081850181015186830182015201610b8c565b506000602082860101526020601f19601f83011685010191505092915050565b6001600160401b0383168152604060208201526000825160a06040840152610bf360e0840182610b82565b90506020840151603f19848303016060850152610c108282610b82565b6040860151858203603f19016080870152805180835260209182019450600093509101905b80831015610c6c57835180516001600160a01b03168352602090810151818401529093019260019290920191604090910190610c35565b5060608601516001600160a01b031660a08601526080860151858203603f190160c08701529250610c9d8184610b82565b979650505050505050565b600060208284031215610cba57600080fd5b5051919050565b600060208284031215610cd357600080fd5b8151801515811461083c57600080fd5b60006040828403128015610cf657600080fd5b50610cff610915565b8251610d0a81610899565b81526020928301519281019290925250919050565b604081018235610d2e81610899565b6001600160a01b0316825260209283013592909101919091529056fea264697066735822122061a15886b78cdfc66e80aae766e5615c268b5c7f99ac058a6de92d9956120c9164736f6c634300081a0033a2646970667358221220480f65c8ae972967e462ef925d67191e43a996893c1bc85193c525b9f19c466664736f6c634300081a0033",
        "nonce": "0xc6",
        "chainId": "0x14a34"
      },
      "additionalContracts": [],
      "isFixedGasLimit": false
    },
    {
      "hash": "0xc70ff6d9407f61ac90f3037a508d14186bcc90b48769efd55e2c436d90f13287",
      "transactionType": "CALL",
      "contractName": "CrossChainTokenRouter",
      "contractAddress": "0x16986fa14637c723ded20c4633eabe19d5e79ebf",
      "function": "createAndRegisterPool(uint64,address,address,address)",
      "arguments": [
        "16015286601757825753",
        "0xe7A527BD98566FDc99EA72bf16c6cc4eFe3606a0",
        "0xE4aB69C077896252FAFBD49EFD26B5D171A32410",
        "0xD3b06cEbF099CE7DA4AcCf578aaebFDBd6e88a93"
      ],
      "transaction": {
        "from": "0x75998e806d0be5b37c5de74acfa0006b3c7dcdff",
        "to": "0x16986fa14637c723ded20c4633eabe19d5e79ebf",
        "gas": "0x1143d1",
        "value": "0x0",
        "input": "0x0faa90e2000000000000000000000000000000000000000000000000de41ba4fc9d91ad9000000000000000000000000e7a527bd98566fdc99ea72bf16c6cc4efe3606a0000000000000000000000000e4ab69c077896252fafbd49efd26b5d171a32410000000000000000000000000d3b06cebf099ce7da4accf578aaebfdbd6e88a93",
        "nonce": "0xc7",
        "chainId": "0x14a34"
      },
      "additionalContracts": [
        {
          "transactionType": "CREATE",
          "address": "0x48f48a0a502e44d9a41ad25b62a15c1162c2b424",
          "initCode": "0x60a060405234801561001057600080fd5b50604051610e97380380610e9783398101604081905261002f916100b3565b826001600160a01b03811661005e576040516335fdcccd60e21b81526000600482015260240160405180910390fd5b6001600160a01b03908116608052600080549382166001600160a01b0319948516179055600180549290911691909216179055506100f6565b80516001600160a01b03811681146100ae57600080fd5b919050565b6000806000606084860312156100c857600080fd5b6100d184610097565b92506100df60208501610097565b91506100ed60408501610097565b90509250925092565b608051610d806101176000396000818160dc015261018a0152610d806000f3fe608060405234801561001057600080fd5b50600436106100625760003560e01c806301ffc9a71461006757806385572ffb1461008f5780638fe3c636146100a4578063b0f479a1146100da578063fc0c546a14610114578063fee8c14d14610127575b600080fd5b61007a610075366004610812565b610148565b60405190151581526020015b60405180910390f35b6100a261009d366004610843565b61017f565b005b6004546005546100bb916001600160a01b03169082565b604080516001600160a01b039093168352602083019190915201610086565b7f00000000000000000000000000000000000000000000000000000000000000005b6040516001600160a01b039091168152602001610086565b6001546100fc906001600160a01b031681565b61013a6101353660046108ae565b6101e3565b604051908152602001610086565b60006001600160e01b031982166385572ffb60e01b148061017957506001600160e01b031982166301ffc9a760e01b145b92915050565b336001600160a01b037f000000000000000000000000000000000000000000000000000000000000000016146101cf576040516335fdcccd60e21b81523360048201526024015b60405180910390fd5b6101e06101db82610aaf565b6105ac565b50565b6000805481906101ff90859085906001600160a01b03166106c6565b90506000306001600160a01b031663b0f479a16040518163ffffffff1660e01b8152600401602060405180830381865afa158015610241573d6000803e3d6000fd5b505050506040513d601f19601f820116820180604052508101906102659190610b65565b90506000816001600160a01b03166320487ded88856040518363ffffffff1660e01b8152600401610297929190610bc8565b602060405180830381865afa1580156102b4573d6000803e3d6000fd5b505050506040513d601f19601f820116820180604052508101906102d89190610ca8565b6000546040516370a0823160e01b81523060048201529192506001600160a01b0316906370a0823190602401602060405180830381865afa158015610321573d6000803e3d6000fd5b505050506040513d601f19601f820116820180604052508101906103459190610ca8565b8111156103dc576000546040516370a0823160e01b81523060048201526001600160a01b03909116906370a0823190602401602060405180830381865afa158015610394573d6000803e3d6000fd5b505050506040513d601f19601f820116820180604052508101906103b89190610ca8565b604051634787a10360e11b81526004810191909152602481018290526044016101c6565b60005460405163095ea7b360e01b81526001600160a01b038481166004830152602482018490529091169063095ea7b3906044016020604051808303816000875af115801561042f573d6000803e3d6000fd5b505050506040513d601f19601f820116820180604052508101906104539190610cc1565b506001546040516323b872dd60e01b8152336004820152306024820152602087013560448201526001600160a01b03909116906323b872dd906064016020604051808303816000875af11580156104ae573d6000803e3d6000fd5b505050506040513d601f19601f820116820180604052508101906104d29190610cc1565b506040516396f4e9f960e01b81526001600160a01b038316906396f4e9f990610501908a908790600401610bc8565b6020604051808303816000875af1158015610520573d6000803e3d6000fd5b505050506040513d601f19601f820116820180604052508101906105449190610ca8565b600054604080516001600160a01b03808b168252909216602083015281018390529094506001600160401b0388169085907f9fb548811cfe022ba6400d8533a80d63fbc228e596f93603959dc47b1886af549060600160405180910390a35050509392505050565b8051600255606081015180516000916105cd91810160209081019101610ce3565b8051600480546001600160a01b0319166001600160a01b0392831690811782556020840151600581905560015460405163a9059cbb60e01b815293840192909252602483015292935091169063a9059cbb906044016020604051808303816000875af1158015610641573d6000803e3d6000fd5b505050506040513d601f19601f820116820180604052508101906106659190610cc1565b506020808301518351835184840151604080516001600160a01b039093168352948201526001600160401b039092169290917f9e0cedd023f625fb8db19f2eb903c24aa1a45f05fd9ef9431a80505ad65e30fe910160405180910390a35050565b6107016040518060a0016040528060608152602001606081526020016060815260200160006001600160a01b03168152602001606081525090565b6040805160a081019091526001600160a01b03851660c08201528060e081016040516020818303038152906040528152602001846040516020016107459190610d1f565b60408051601f19818403018152919052815260200160006040519080825280602002602001820160405280156107a157816020015b604080518082019091526000808252602082015281526020019060019003908161077a5790505b508152602001836001600160a01b03168152602001610808604051806020016040528062030d4081525060408051915160248084019190915281518084039091018152604490920190526020810180516001600160e01b03166397a657c960e01b17905290565b9052949350505050565b60006020828403121561082457600080fd5b81356001600160e01b03198116811461083c57600080fd5b9392505050565b60006020828403121561085557600080fd5b81356001600160401b0381111561086b57600080fd5b820160a0818503121561083c57600080fd5b80356001600160401b038116811461089457600080fd5b919050565b6001600160a01b03811681146101e057600080fd5b600080600083850360808112156108c457600080fd5b6108cd8561087d565b935060208501356108dd81610899565b92506040603f19820112156108f157600080fd5b506040840190509250925092565b634e487b7160e01b600052604160045260246000fd5b604080519081016001600160401b0381118282101715610937576109376108ff565b60405290565b60405160a081016001600160401b0381118282101715610937576109376108ff565b604051601f8201601f191681016001600160401b0381118282101715610987576109876108ff565b604052919050565b600082601f8301126109a057600080fd5b81356001600160401b038111156109b9576109b96108ff565b6109cc601f8201601f191660200161095f565b8181528460208386010111156109e157600080fd5b816020850160208301376000918101602001919091529392505050565b600082601f830112610a0f57600080fd5b81356001600160401b03811115610a2857610a286108ff565b610a3760208260051b0161095f565b8082825260208201915060208360061b860101925085831115610a5957600080fd5b602085015b83811015610aa55760408188031215610a7657600080fd5b610a7e610915565b8135610a8981610899565b8152602082810135818301529084529290920191604001610a5e565b5095945050505050565b600060a08236031215610ac157600080fd5b610ac961093d565b82358152610ad96020840161087d565b602082015260408301356001600160401b03811115610af757600080fd5b610b033682860161098f565b60408301525060608301356001600160401b03811115610b2257600080fd5b610b2e3682860161098f565b60608301525060808301356001600160401b03811115610b4d57600080fd5b610b59368286016109fe565b60808301525092915050565b600060208284031215610b7757600080fd5b815161083c81610899565b6000815180845260005b81811015610ba857602081850181015186830182015201610b8c565b506000602082860101526020601f19601f83011685010191505092915050565b6001600160401b0383168152604060208201526000825160a06040840152610bf360e0840182610b82565b90506020840151603f19848303016060850152610c108282610b82565b6040860151858203603f19016080870152805180835260209182019450600093509101905b80831015610c6c57835180516001600160a01b03168352602090810151818401529093019260019290920191604090910190610c35565b5060608601516001600160a01b031660a08601526080860151858203603f190160c08701529250610c9d8184610b82565b979650505050505050565b600060208284031215610cba57600080fd5b5051919050565b600060208284031215610cd357600080fd5b8151801515811461083c57600080fd5b60006040828403128015610cf657600080fd5b50610cff610915565b8251610d0a81610899565b81526020928301519281019290925250919050565b604081018235610d2e81610899565b6001600160a01b0316825260209283013592909101919091529056fea264697066735822122061a15886b78cdfc66e80aae766e5615c268b5c7f99ac058a6de92d9956120c9164736f6c634300081a0033000000000000000000000000d3b06cebf099ce7da4accf578aaebfdbd6e88a93000000000000000000000000e4ab69c077896252fafbd49efd26b5d171a32410000000000000000000000000e7a527bd98566fdc99ea72bf16c6cc4efe3606a0"
        }
      ],
      "isFixedGasLimit": false
    },
    {
      "hash": "0xd62f4fa21e0535aa0093b32bc3b4ce344a338cf96fdc949e0c3d03fd3b2a60ae",
      "transactionType": "CALL",
      "contractName": "CrossChainTokenRouter",
      "contractAddress": "0x16986fa14637c723ded20c4633eabe19d5e79ebf",
      "function": "updateDestinationPool(uint64,address,address)",
      "arguments": [
        "16015286601757825753",
        "0xe7A527BD98566FDc99EA72bf16c6cc4eFe3606a0",
        "0xe7A527BD98566FDc99EA72bf16c6cc4eFe3606a0"
      ],
      "transaction": {
        "from": "0x75998e806d0be5b37c5de74acfa0006b3c7dcdff",
        "to": "0x16986fa14637c723ded20c4633eabe19d5e79ebf",
        "gas": "0x117ce",
        "value": "0x0",
        "input": "0xf357f6c2000000000000000000000000000000000000000000000000de41ba4fc9d91ad9000000000000000000000000e7a527bd98566fdc99ea72bf16c6cc4efe3606a0000000000000000000000000e7a527bd98566fdc99ea72bf16c6cc4efe3606a0",
        "nonce": "0xc8",
        "chainId": "0x14a34"
      },
      "additionalContracts": [],
      "isFixedGasLimit": false
    },
    {
      "hash": "0x19ffe197bc6627a6ad5e7ac72b9415cb4595404cfa62951d97c1d4cae6db8cd0",
      "transactionType": "CALL",
      "contractName": null,
      "contractAddress": "0xe7a527bd98566fdc99ea72bf16c6cc4efe3606a0",
      "function": "approve(address,uint256)",
      "arguments": [
        "0x16986FA14637C723deD20C4633eAbe19d5e79EBF",
        "1000000000000000000000000000"
      ],
      "transaction": {
        "from": "0x75998e806d0be5b37c5de74acfa0006b3c7dcdff",
        "to": "0xe7a527bd98566fdc99ea72bf16c6cc4efe3606a0",
        "gas": "0xfa82",
        "value": "0x0",
        "input": "0x095ea7b300000000000000000000000016986fa14637c723ded20c4633eabe19d5e79ebf0000000000000000000000000000000000000000033b2e3c9fd0803ce8000000",
        "nonce": "0xc9",
        "chainId": "0x14a34"
      },
      "additionalContracts": [],
      "isFixedGasLimit": false
    },
    {
      "hash": "0xac6b904abadd30ecd00877b4f5a2f9a5a4cf81a9e0bed8b99e7c6d5e932325cf",
      "transactionType": "CALL",
      "contractName": null,
      "contractAddress": "0xe4ab69c077896252fafbd49efd26b5d171a32410",
      "function": "transfer(address,uint256)",
      "arguments": [
        "0x48f48A0a502E44D9a41aD25B62A15c1162c2b424",
        "1000000000000000000"
      ],
      "transaction": {
        "from": "0x75998e806d0be5b37c5de74acfa0006b3c7dcdff",
        "to": "0xe4ab69c077896252fafbd49efd26b5d171a32410",
        "gas": "0x115b1",
        "value": "0x0",
        "input": "0xa9059cbb00000000000000000000000048f48a0a502e44d9a41ad25b62a15c1162c2b4240000000000000000000000000000000000000000000000000de0b6b3a7640000",
        "nonce": "0xca",
        "chainId": "0x14a34"
      },
      "additionalContracts": [],
      "isFixedGasLimit": false
    },
    {
      "hash": "0xc72b8c6a3eba8da0c262913cbe3963414318b5fe249574ed479bd702b61e54c9",
      "transactionType": "CALL",
      "contractName": "CrossChainTokenRouter",
      "contractAddress": "0x16986fa14637c723ded20c4633eabe19d5e79ebf",
      "function": "bridgeToken(address,uint64,address,uint256)",
      "arguments": [
        "0xe7A527BD98566FDc99EA72bf16c6cc4eFe3606a0",
        "16015286601757825753",
        "0x75998e806D0BE5B37c5DE74AcfA0006B3C7DCdfF",
        "10000000000000000000"
      ],
      "transaction": {
        "from": "0x75998e806d0be5b37c5de74acfa0006b3c7dcdff",
        "to": "0x16986fa14637c723ded20c4633eabe19d5e79ebf",
        "gas": "0x4a526",
        "value": "0x0",
        "input": "0xbe923f06000000000000000000000000e7a527bd98566fdc99ea72bf16c6cc4efe3606a0000000000000000000000000000000000000000000000000de41ba4fc9d91ad900000000000000000000000075998e806d0be5b37c5de74acfa0006b3c7dcdff0000000000000000000000000000000000000000000000008ac7230489e80000",
        "nonce": "0xcb",
        "chainId": "0x14a34"
      },
      "additionalContracts": [],
      "isFixedGasLimit": false
    }
  ],
  "receipts": [
    {
      "status": "0x1",
      "cumulativeGasUsed": "0x4fb0a1",
      "logs": [],
      "logsBloom": "0x00000000000000000000000000000000000000000000000000000000000000000000000000000000000000000000000000000000000000000000000000000000000000000000000000000000000000000000000000000000000000000000000000000000000000000000000000000000000000000000000000000000000000000000000000000000000000000000000000000000000000000000000000000000000000000000000000000000000000000000000000000000000000000000000000000000000000000000000000000000000000000000000000000000000000000000000000000000000000000000000000000000000000000000000000000000",
      "type": "0x2",
      "transactionHash": "0xbe4a566ebd53e95006ed6a5cdd34db665723097d584715412db9566b97b1b7f9",
      "transactionIndex": "0x9",
      "blockHash": "0x7c161831cca7c6808e7c1ea6b11be32ac6da0034532aa31cc3579dc3a2604272",
      "blockNumber": "0xd1e7ec",
      "gasUsed": "0x137b76",
      "effectiveGasPrice": "0xafb485",
      "from": "0x75998e806d0be5b37c5de74acfa0006b3c7dcdff",
      "to": null,
      "contractAddress": "0x16986fa14637c723ded20c4633eabe19d5e79ebf",
      "l1BaseFeeScalar": "0x44d",
      "l1BlobBaseFee": "0x30d7bb9b75",
      "l1BlobBaseFeeScalar": "0xa118b",
      "l1Fee": "0x189cdde65b699",
      "l1GasPrice": "0x2a1493a5e",
      "l1GasUsed": "0xc339"
    },
    {
      "status": "0x1",
      "cumulativeGasUsed": "0x5c3170",
      "logs": [
        {
          "address": "0x16986fa14637c723ded20c4633eabe19d5e79ebf",
          "topics": [
            "0x23100b01664d2b1a34cfa556c0db93a24e5b6224316568a8e25fdd0bd679426f"
          ],
          "data": "0x000000000000000000000000000000000000000000000000de41ba4fc9d91ad9000000000000000000000000e7a527bd98566fdc99ea72bf16c6cc4efe3606a000000000000000000000000048f48a0a502e44d9a41ad25b62a15c1162c2b4240000000000000000000000000000000000000000000000000000000000000000",
          "blockHash": "0x7c161831cca7c6808e7c1ea6b11be32ac6da0034532aa31cc3579dc3a2604272",
          "blockNumber": "0xd1e7ec",
          "transactionHash": "0xc70ff6d9407f61ac90f3037a508d14186bcc90b48769efd55e2c436d90f13287",
          "transactionIndex": "0xa",
          "logIndex": "0x70",
          "removed": false
        }
      ],
      "logsBloom": "0x00000000200000000000000000000000000000000000000000000000000000000000000000000000000000000000000000000000000000000000000000000000000000000000000000000000000000000000000000000000000000000000000000000000000000000000000000000000000000000000000010000000000000000000000000000000000000000000008000000000000000000000000000000000000000000000000000000000000000000000000000000000000000400000000000004000000000000000000000000000000000000000000000000000000000000000000000000000000000000000000000040000000000000000000000000000",
      "type": "0x2",
      "transactionHash": "0xc70ff6d9407f61ac90f3037a508d14186bcc90b48769efd55e2c436d90f13287",
      "transactionIndex": "0xa",
      "blockHash": "0x7c161831cca7c6808e7c1ea6b11be32ac6da0034532aa31cc3579dc3a2604272",
      "blockNumber": "0xd1e7ec",
      "gasUsed": "0xc80cf",
      "effectiveGasPrice": "0xafb485",
      "from": "0x75998e806d0be5b37c5de74acfa0006b3c7dcdff",
      "to": "0x16986fa14637c723ded20c4633eabe19d5e79ebf",
      "contractAddress": null,
      "l1BaseFeeScalar": "0x44d",
      "l1BlobBaseFee": "0x30d7bb9b75",
      "l1BlobBaseFeeScalar": "0xa118b",
      "l1Fee": "0x10762cbc6a95",
      "l1GasPrice": "0x2a1493a5e",
      "l1GasUsed": "0x829"
    },
    {
      "status": "0x1",
      "cumulativeGasUsed": "0x5cf0c2",
      "logs": [
        {
          "address": "0x16986fa14637c723ded20c4633eabe19d5e79ebf",
          "topics": [
            "0xed17835cdc80e2a61f2eca59dd0c5aa1781bb0254d17691128c3489b18654b30"
          ],
          "data": "0x000000000000000000000000000000000000000000000000de41ba4fc9d91ad9000000000000000000000000e7a527bd98566fdc99ea72bf16c6cc4efe3606a00000000000000000000000000000000000000000000000000000000000000000000000000000000000000000e7a527bd98566fdc99ea72bf16c6cc4efe3606a0",
          "blockHash": "0x7c161831cca7c6808e7c1ea6b11be32ac6da0034532aa31cc3579dc3a2604272",
          "blockNumber": "0xd1e7ec",
          "transactionHash": "0xd62f4fa21e0535aa0093b32bc3b4ce344a338cf96fdc949e0c3d03fd3b2a60ae",
          "transactionIndex": "0xb",
          "logIndex": "0x71",
          "removed": false
        }
      ],
      "logsBloom": "0x00000000000000000000000001000000000000000000000000000000000000000000000000000000000000000000000000000000000000000000000000000000000000000000000000000000000000000000000000000000000000000000000000000000000000000000000000000000000000000000000010000000000000000000000000000000000000000000008000000000000000000000000000000000000000000000000000000000000000000000000000000000000040000000000000004000000000000000000000000000000000000000000000000000000000000000000000000000000000000000000000000000000000000000000008000000",
      "type": "0x2",
      "transactionHash": "0xd62f4fa21e0535aa0093b32bc3b4ce344a338cf96fdc949e0c3d03fd3b2a60ae",
      "transactionIndex": "0xb",
      "blockHash": "0x7c161831cca7c6808e7c1ea6b11be32ac6da0034532aa31cc3579dc3a2604272",
      "blockNumber": "0xd1e7ec",
      "gasUsed": "0xbf52",
      "effectiveGasPrice": "0xafb485",
      "from": "0x75998e806d0be5b37c5de74acfa0006b3c7dcdff",
      "to": "0x16986fa14637c723ded20c4633eabe19d5e79ebf",
      "contractAddress": null,
      "l1BaseFeeScalar": "0x44d",
      "l1BlobBaseFee": "0x30d7bb9b75",
      "l1BlobBaseFeeScalar": "0xa118b",
      "l1Fee": "0xc9b861f6124",
      "l1GasPrice": "0x2a1493a5e",
      "l1GasUsed": "0x640"
    },
    {
      "status": "0x1",
      "cumulativeGasUsed": "0x5da620",
      "logs": [
        {
          "address": "0xe7a527bd98566fdc99ea72bf16c6cc4efe3606a0",
          "topics": [
            "0x8c5be1e5ebec7d5bd14f71427d1e84f3dd0314c0f7b2291e5b200ac8c7c3b925",
            "0x00000000000000000000000075998e806d0be5b37c5de74acfa0006b3c7dcdff",
            "0x00000000000000000000000016986fa14637c723ded20c4633eabe19d5e79ebf"
          ],
          "data": "0x0000000000000000000000000000000000000000033b2e3c9fd0803ce8000000",
          "blockHash": "0x7c161831cca7c6808e7c1ea6b11be32ac6da0034532aa31cc3579dc3a2604272",
          "blockNumber": "0xd1e7ec",
          "transactionHash": "0x19ffe197bc6627a6ad5e7ac72b9415cb4595404cfa62951d97c1d4cae6db8cd0",
          "transactionIndex": "0xc",
          "logIndex": "0x72",
          "removed": false
        }
      ],
      "logsBloom": "0x00000000000200100000000000000000000000000000000000000000000000000000000000000000000000000000000000000000000000000000000000200000000000000000000000000000000000000000000000000000000000000000000080000000000000000001000000000000000000000000000000000000000000000000000010000000000000000000000000000000000000000000000000000008020000000000000000000000000000000000000000000002000000000000000000000000000000000000000000000000000000000000000000000000000000000010000000000000000000008000000000000000000000000002000000000000",
      "type": "0x2",
      "transactionHash": "0x19ffe197bc6627a6ad5e7ac72b9415cb4595404cfa62951d97c1d4cae6db8cd0",
      "transactionIndex": "0xc",
      "blockHash": "0x7c161831cca7c6808e7c1ea6b11be32ac6da0034532aa31cc3579dc3a2604272",
      "blockNumber": "0xd1e7ec",
      "gasUsed": "0xb55e",
      "effectiveGasPrice": "0xafb485",
      "from": "0x75998e806d0be5b37c5de74acfa0006b3c7dcdff",
      "to": "0xe7a527bd98566fdc99ea72bf16c6cc4efe3606a0",
      "contractAddress": null,
      "l1BaseFeeScalar": "0x44d",
      "l1BlobBaseFee": "0x30d7bb9b75",
      "l1BlobBaseFeeScalar": "0xa118b",
      "l1Fee": "0xc9b861f6124",
      "l1GasPrice": "0x2a1493a5e",
      "l1GasUsed": "0x640"
    },
    {
      "status": "0x1",
      "cumulativeGasUsed": "0x5e6f2c",
      "logs": [
        {
          "address": "0xe4ab69c077896252fafbd49efd26b5d171a32410",
          "topics": [
            "0xddf252ad1be2c89b69c2b068fc378daa952ba7f163c4a11628f55a4df523b3ef",
            "0x00000000000000000000000075998e806d0be5b37c5de74acfa0006b3c7dcdff",
            "0x00000000000000000000000048f48a0a502e44d9a41ad25b62a15c1162c2b424"
          ],
          "data": "0x0000000000000000000000000000000000000000000000000de0b6b3a7640000",
          "blockHash": "0x7c161831cca7c6808e7c1ea6b11be32ac6da0034532aa31cc3579dc3a2604272",
          "blockNumber": "0xd1e7ec",
          "transactionHash": "0xac6b904abadd30ecd00877b4f5a2f9a5a4cf81a9e0bed8b99e7c6d5e932325cf",
          "transactionIndex": "0xd",
          "logIndex": "0x73",
          "removed": false
        }
      ],
      "logsBloom": "0x00008000000000100000000000000000000000000000000000000000000000000000000000000000000000080000000000000000000000000000000000000000000000000000000000000008000000000000000000000000000000000000000000000000000000000000000000000000000000000000000000000010000000000000000810000000000000000002000000000000000000000000000000000000000000000000000000000000000000000000000000000002020000000000000000000002000000000000000000000000000000000000000000000000000000000000000000000000000000000000000000000000000000000000200000000000",
      "type": "0x2",
      "transactionHash": "0xac6b904abadd30ecd00877b4f5a2f9a5a4cf81a9e0bed8b99e7c6d5e932325cf",
      "transactionIndex": "0xd",
      "blockHash": "0x7c161831cca7c6808e7c1ea6b11be32ac6da0034532aa31cc3579dc3a2604272",
      "blockNumber": "0xd1e7ec",
      "gasUsed": "0xc90c",
      "effectiveGasPrice": "0xafb485",
      "from": "0x75998e806d0be5b37c5de74acfa0006b3c7dcdff",
      "to": "0xe4ab69c077896252fafbd49efd26b5d171a32410",
      "contractAddress": null,
      "l1BaseFeeScalar": "0x44d",
      "l1BlobBaseFee": "0x30d7bb9b75",
      "l1BlobBaseFeeScalar": "0xa118b",
      "l1Fee": "0xc9b861f6124",
      "l1GasPrice": "0x2a1493a5e",
      "l1GasUsed": "0x640"
    },
    {
      "status": "0x1",
      "cumulativeGasUsed": "0x61cc19",
      "logs": [
        {
          "address": "0xe7a527bd98566fdc99ea72bf16c6cc4efe3606a0",
          "topics": [
            "0xddf252ad1be2c89b69c2b068fc378daa952ba7f163c4a11628f55a4df523b3ef",
            "0x00000000000000000000000075998e806d0be5b37c5de74acfa0006b3c7dcdff",
            "0x00000000000000000000000016986fa14637c723ded20c4633eabe19d5e79ebf"
          ],
          "data": "0x0000000000000000000000000000000000000000000000008ac7230489e80000",
          "blockHash": "0x7c161831cca7c6808e7c1ea6b11be32ac6da0034532aa31cc3579dc3a2604272",
          "blockNumber": "0xd1e7ec",
          "transactionHash": "0xc72b8c6a3eba8da0c262913cbe3963414318b5fe249574ed479bd702b61e54c9",
          "transactionIndex": "0xe",
          "logIndex": "0x74",
          "removed": false
        },
        {
          "address": "0xe7a527bd98566fdc99ea72bf16c6cc4efe3606a0",
          "topics": [
            "0x8c5be1e5ebec7d5bd14f71427d1e84f3dd0314c0f7b2291e5b200ac8c7c3b925",
            "0x00000000000000000000000016986fa14637c723ded20c4633eabe19d5e79ebf",
            "0x00000000000000000000000048f48a0a502e44d9a41ad25b62a15c1162c2b424"
          ],
          "data": "0x0000000000000000000000000000000000000000000000008ac7230489e80000",
          "blockHash": "0x7c161831cca7c6808e7c1ea6b11be32ac6da0034532aa31cc3579dc3a2604272",
          "blockNumber": "0xd1e7ec",
          "transactionHash": "0xc72b8c6a3eba8da0c262913cbe3963414318b5fe249574ed479bd702b61e54c9",
          "transactionIndex": "0xe",
          "logIndex": "0x75",
          "removed": false
        },
        {
          "address": "0xe4ab69c077896252fafbd49efd26b5d171a32410",
          "topics": [
            "0x8c5be1e5ebec7d5bd14f71427d1e84f3dd0314c0f7b2291e5b200ac8c7c3b925",
            "0x00000000000000000000000048f48a0a502e44d9a41ad25b62a15c1162c2b424",
            "0x000000000000000000000000d3b06cebf099ce7da4accf578aaebfdbd6e88a93"
          ],
          "data": "0x00000000000000000000000000000000000000000000000002eb23b2b97766fc",
          "blockHash": "0x7c161831cca7c6808e7c1ea6b11be32ac6da0034532aa31cc3579dc3a2604272",
          "blockNumber": "0xd1e7ec",
          "transactionHash": "0xc72b8c6a3eba8da0c262913cbe3963414318b5fe249574ed479bd702b61e54c9",
          "transactionIndex": "0xe",
          "logIndex": "0x76",
          "removed": false
        },
        {
          "address": "0xe7a527bd98566fdc99ea72bf16c6cc4efe3606a0",
          "topics": [
            "0xddf252ad1be2c89b69c2b068fc378daa952ba7f163c4a11628f55a4df523b3ef",
            "0x00000000000000000000000016986fa14637c723ded20c4633eabe19d5e79ebf",
            "0x00000000000000000000000048f48a0a502e44d9a41ad25b62a15c1162c2b424"
          ],
          "data": "0x0000000000000000000000000000000000000000000000008ac7230489e80000",
          "blockHash": "0x7c161831cca7c6808e7c1ea6b11be32ac6da0034532aa31cc3579dc3a2604272",
          "blockNumber": "0xd1e7ec",
          "transactionHash": "0xc72b8c6a3eba8da0c262913cbe3963414318b5fe249574ed479bd702b61e54c9",
          "transactionIndex": "0xe",
          "logIndex": "0x77",
          "removed": false
        },
        {
          "address": "0xe4ab69c077896252fafbd49efd26b5d171a32410",
          "topics": [
            "0x8c5be1e5ebec7d5bd14f71427d1e84f3dd0314c0f7b2291e5b200ac8c7c3b925",
            "0x00000000000000000000000048f48a0a502e44d9a41ad25b62a15c1162c2b424",
            "0x000000000000000000000000d3b06cebf099ce7da4accf578aaebfdbd6e88a93"
          ],
          "data": "0x0000000000000000000000000000000000000000000000000000000000000000",
          "blockHash": "0x7c161831cca7c6808e7c1ea6b11be32ac6da0034532aa31cc3579dc3a2604272",
          "blockNumber": "0xd1e7ec",
          "transactionHash": "0xc72b8c6a3eba8da0c262913cbe3963414318b5fe249574ed479bd702b61e54c9",
          "transactionIndex": "0xe",
          "logIndex": "0x78",
          "removed": false
        },
        {
          "address": "0xe4ab69c077896252fafbd49efd26b5d171a32410",
          "topics": [
            "0xddf252ad1be2c89b69c2b068fc378daa952ba7f163c4a11628f55a4df523b3ef",
            "0x00000000000000000000000048f48a0a502e44d9a41ad25b62a15c1162c2b424",
            "0x0000000000000000000000006486906bb2d85a6c0ccef2a2831c11a2059ebfea"
          ],
          "data": "0x00000000000000000000000000000000000000000000000002eb23b2b97766fc",
          "blockHash": "0x7c161831cca7c6808e7c1ea6b11be32ac6da0034532aa31cc3579dc3a2604272",
          "blockNumber": "0xd1e7ec",
          "transactionHash": "0xc72b8c6a3eba8da0c262913cbe3963414318b5fe249574ed479bd702b61e54c9",
          "transactionIndex": "0xe",
          "logIndex": "0x79",
          "removed": false
        },
        {
          "address": "0x6486906bb2d85a6c0ccef2a2831c11a2059ebfea",
          "topics": [
            "0xd0c3c799bf9e2639de44391e7f524d229b2b55f5b1ea94b2bf7da42f7243dddd"
          ],
          "data": "0x00000000000000000000000000000000000000000000000000000000000000200000000000000000000000000000000000000000000000008f90b8876dee653800000000000000000000000048f48a0a502e44d9a41ad25b62a15c1162c2b424000000000000000000000000e7a527bd98566fdc99ea72bf16c6cc4efe3606a000000000000000000000000000000000000000000000000000000000000006ad0000000000000000000000000000000000000000000000000000000000030d4000000000000000000000000000000000000000000000000000000000000000000000000000000000000000000000000000000000000000000000000000000001000000000000000000000000e4ab69c077896252fafbd49efd26b5d171a3241000000000000000000000000000000000000000000000000002eb23b2b97766fc00000000000000000000000000000000000000000000000000000000000001a000000000000000000000000000000000000000000000000000000000000002000000000000000000000000000000000000000000000000000000000000000220fc3f055ec8cb2f5be9d00be052c08b489cba43e1ce6dee60e5ec642a71f7ca13000000000000000000000000000000000000000000000000000000000000004000000000000000000000000075998e806d0be5b37c5de74acfa0006b3c7dcdff0000000000000000000000000000000000000000000000008ac7230489e8000000000000000000000000000000000000000000000000000000000000000000000000000000000000000000000000000000000000000000000000000000000000",
          "blockHash": "0x7c161831cca7c6808e7c1ea6b11be32ac6da0034532aa31cc3579dc3a2604272",
          "blockNumber": "0xd1e7ec",
          "transactionHash": "0xc72b8c6a3eba8da0c262913cbe3963414318b5fe249574ed479bd702b61e54c9",
          "transactionIndex": "0xe",
          "logIndex": "0x7a",
          "removed": false
        },
        {
          "address": "0x48f48a0a502e44d9a41ad25b62a15c1162c2b424",
          "topics": [
            "0x9fb548811cfe022ba6400d8533a80d63fbc228e596f93603959dc47b1886af54",
            "0xfc3f055ec8cb2f5be9d00be052c08b489cba43e1ce6dee60e5ec642a71f7ca13",
            "0x000000000000000000000000000000000000000000000000de41ba4fc9d91ad9"
          ],
          "data": "0x000000000000000000000000e7a527bd98566fdc99ea72bf16c6cc4efe3606a0000000000000000000000000e4ab69c077896252fafbd49efd26b5d171a3241000000000000000000000000000000000000000000000000002eb23b2b97766fc",
          "blockHash": "0x7c161831cca7c6808e7c1ea6b11be32ac6da0034532aa31cc3579dc3a2604272",
          "blockNumber": "0xd1e7ec",
          "transactionHash": "0xc72b8c6a3eba8da0c262913cbe3963414318b5fe249574ed479bd702b61e54c9",
          "transactionIndex": "0xe",
          "logIndex": "0x7b",
          "removed": false
        }
      ],
      "logsBloom": "0x00008000000200100000800000000000000000000000000000000000000000000000000000104000000000080000000000000000000000000000000000200000000000000000001100000808000000002000000000000000000000000000000080000000000000000001000000010040000000070040000000000210000000000000000910000000000000000202000000000420000000000000000000000008020000000000000400000000000000002000000000004002020100000000100000000002000000000000000000000000000000000000000000000000000000000010000000000000000000008000000004000000000000000002200000000000",
      "type": "0x2",
      "transactionHash": "0xc72b8c6a3eba8da0c262913cbe3963414318b5fe249574ed479bd702b61e54c9",
      "transactionIndex": "0xe",
      "blockHash": "0x7c161831cca7c6808e7c1ea6b11be32ac6da0034532aa31cc3579dc3a2604272",
      "blockNumber": "0xd1e7ec",
      "gasUsed": "0x35ced",
      "effectiveGasPrice": "0xafb485",
      "from": "0x75998e806d0be5b37c5de74acfa0006b3c7dcdff",
      "to": "0x16986fa14637c723ded20c4633eabe19d5e79ebf",
      "contractAddress": null,
      "l1BaseFeeScalar": "0x44d",
      "l1BlobBaseFee": "0x30d7bb9b75",
      "l1BlobBaseFeeScalar": "0xa118b",
      "l1Fee": "0xfd42f716f9c",
      "l1GasPrice": "0x2a1493a5e",
      "l1GasUsed": "0x7d8"
    }
  ],
  "libraries": [],
  "pending": [],
  "returns": {},
  "timestamp": 1723281086,
  "chain": 84532,
  "commit": "790228d"
}