{
  "transactions": [
    {
      "hash": "0xa6811ea50f3143f2e60c5b2d0b2b972da5afe32d1a2dbe275d141eb9b348697a",
      "transactionType": "CREATE",
      "contractName": "MultiTokenKeeper",
      "contractAddress": "0x7f25f85dd3e635371104958001f7b237d4c7b457",
      "function": null,
      "arguments": [
        "0x5C69bEe701ef814a2B6a3EDD4B1652CB9cc5aA6f",
        "0x89E7fdbd1EA30300719357A1584C28ee34bcB4bE",
        "0x14b2fC9e1333F30d70E1672D1859a08E8082384D"
      ],
      "transaction": {
        "from": "0x75998e806d0be5b37c5de74acfa0006b3c7dcdff",
        "gas": "0x225993",
        "value": "0x0",
        "input": "0x608060405234801561001057600080fd5b50604051611d6b380380611d6b83398101604081905261002f916100e7565b600380546001600160a01b038086166001600160a01b031992831617909255600280548584169083161790556000805492841692909116919091179055604051610078906100be565b604051809103906000f080158015610094573d6000803e3d6000fd5b50600180546001600160a01b0319166001600160a01b03929092169190911790555061012a915050565b610d008061106b83390190565b80516001600160a01b03811681146100e257600080fd5b919050565b6000806000606084860312156100fc57600080fd5b610105846100cb565b9250610113602085016100cb565b9150610121604085016100cb565b90509250925092565b610f32806101396000396000f3fe608060405234801561001057600080fd5b50600436106100885760003560e01c80639ab4a4451161005b5780639ab4a44514610114578063a7b6572a14610127578063d1cd871d1461013a578063f9b6117f1461014d57600080fd5b806316345f181461008d5780634585e33b146100b35780636e04ff0d146100c8578063735de9f7146100e9575b600080fd5b6100a061009b3660046108e5565b610160565b6040519081526020015b60405180910390f35b6100c66100c1366004610909565b6101d1565b005b6100db6100d6366004610909565b6102e8565b6040516100aa92919061097d565b6003546100fc906001600160a01b031681565b6040516001600160a01b0390911681526020016100aa565b6002546100fc906001600160a01b031681565b6000546100fc906001600160a01b031681565b6100c66101483660046109e1565b6103ed565b6001546100fc906001600160a01b031681565b600080826001600160a01b031663feaf968c6040518163ffffffff1660e01b815260040160a060405180830381865afa1580156101a1573d6000803e3d6000fd5b505050506040513d601f19601f820116820180604052508101906101c59190610a5b565b50919695505050505050565b60006101df82840184610b1d565b905060006101f08260400151610160565b90507fe317dab6c24412531a104b7fae35d5271976c773fae5615e5fba0b02347257688160405161022391815260200190565b60405180910390a160008260600151600181111561024357610243610b93565b03610256576102518261052e565b61027c565b60018260600151600181111561026e5761026e610b93565b0361027c5761027c8261070b565b600154825160405163126743e760e01b81526001600160a01b039092169163126743e7916102b09160040190815260200190565b600060405180830381600087803b1580156102ca57600080fd5b505af11580156102de573d6000803e3d6000fd5b5050505050505050565b60006060600091506000600160009054906101000a90046001600160a01b03166001600160a01b03166286e68b6040518163ffffffff1660e01b8152600401600060405180830381865afa158015610344573d6000803e3d6000fd5b505050506040513d6000823e601f3d908101601f1916820160405261036c9190810190610bcd565b9050600081518110156103e45760006103a183838151811061039057610390610cd1565b602002602001015160400151610160565b9050600194508282815181106103b9576103b9610cd1565b60200260200101516040516020016103d19190610d09565b6040516020818303038152906040529350505b50509250929050565b6000546040516376eed77d60e01b81526001600160a01b038681166004830152909116906376eed77d90602401602060405180830381865afa158015610437573d6000803e3d6000fd5b505050506040513d601f19601f8201168201806040525081019061045b9190610d64565b6104ab5760405162461bcd60e51b815260206004820152601760248201527f41676772656761746f72206e6f7420617070726f766564000000000000000000604482015260640160405180910390fd5b60015460405163d1cd871d60e01b81526001600160a01b039091169063d1cd871d906104e39088908890889088908890600401610d86565b6020604051808303816000875af1158015610502573d6000803e3d6000fd5b505050506040513d601f19601f820116820180604052508101906105269190610dbe565b505050505050565b602081015160a082015160408051600280825260608201909252600091816020016020820280368337505060025482519293506001600160a01b03169183915060009061057d5761057d610cd1565b60200260200101906001600160a01b031690816001600160a01b03168152505082816001815181106105b1576105b1610cd1565b6001600160a01b03928316602091820292909201015260025460035460405163095ea7b360e01b815290831660048201526024810185905291169063095ea7b3906044016020604051808303816000875af1158015610614573d6000803e3d6000fd5b505050506040513d601f19601f820116820180604052508101906106389190610d64565b506003546001600160a01b03166338ed1739836000843061065a42600f610dd7565b6040518663ffffffff1660e01b815260040161067a959493929190610dfe565b6000604051808303816000875af1158015610699573d6000803e3d6000fd5b505050506040513d6000823e601f3d908101601f191682016040526106c19190810190610e70565b50604080516001600160a01b0385168152602081018490527f55c18555197c6574627cf460c66073d10aa05d412468800b7b71feeaf82ea92d91015b60405180910390a150505050565b602081015160a082015160408051600280825260608201909252600091816020016020820280368337019050509050828160008151811061074e5761074e610cd1565b6001600160a01b03928316602091820292909201015260025482519116908290600190811061077f5761077f610cd1565b6001600160a01b03928316602091820292909201015260035460405163095ea7b360e01b81529082166004820152602481018490529084169063095ea7b3906044016020604051808303816000875af11580156107e0573d6000803e3d6000fd5b505050506040513d601f19601f820116820180604052508101906108049190610d64565b506003546001600160a01b03166338ed1739836000843061082642600f610dd7565b6040518663ffffffff1660e01b8152600401610846959493929190610dfe565b6000604051808303816000875af1158015610865573d6000803e3d6000fd5b505050506040513d6000823e601f3d908101601f1916820160405261088d9190810190610e70565b50604080516001600160a01b0385168152602081018490527ffe2ff4cf36ff7d2c2b06eb960897ee0d76d9c3e58da12feb7b93e86b226dd34491016106fd565b6001600160a01b03811681146108e257600080fd5b50565b6000602082840312156108f757600080fd5b8135610902816108cd565b9392505050565b6000806020838503121561091c57600080fd5b823567ffffffffffffffff81111561093357600080fd5b8301601f8101851361094457600080fd5b803567ffffffffffffffff81111561095b57600080fd5b85602082840101111561096d57600080fd5b6020919091019590945092505050565b8215158152604060208201526000825180604084015260005b818110156109b35760208186018101516060868401015201610996565b506000606082850101526060601f19601f8301168401019150509392505050565b600281106108e257600080fd5b600080600080600060a086880312156109f957600080fd5b8535610a04816108cd565b94506020860135610a14816108cd565b93506040860135610a24816109d4565b94979396509394606081013594506080013592915050565b805169ffffffffffffffffffff81168114610a5657600080fd5b919050565b600080600080600060a08688031215610a7357600080fd5b610a7c86610a3c565b60208701516040880151606089015192975090955093509150610aa160808701610a3c565b90509295509295909350565b634e487b7160e01b600052604160045260246000fd5b60405160c0810167ffffffffffffffff81118282101715610ae657610ae6610aad565b60405290565b604051601f8201601f1916810167ffffffffffffffff81118282101715610b1557610b15610aad565b604052919050565b600060c0828403128015610b3057600080fd5b50610b39610ac3565b823581526020830135610b4b816108cd565b60208201526040830135610b5e816108cd565b60408201526060830135610b71816109d4565b60608201526080838101359082015260a0928301359281019290925250919050565b634e487b7160e01b600052602160045260246000fd5b600067ffffffffffffffff821115610bc357610bc3610aad565b5060051b60200190565b600060208284031215610bdf57600080fd5b815167ffffffffffffffff811115610bf657600080fd5b8201601f81018413610c0757600080fd5b8051610c1a610c1582610ba9565b610aec565b80828252602082019150602060c08402850101925086831115610c3c57600080fd5b6020840193505b82841015610cc75760c08488031215610c5b57600080fd5b610c63610ac3565b845181526020850151610c75816108cd565b60208201526040850151610c88816108cd565b60408201526060850151610c9b816109d4565b60608201526080858101519082015260a08086015190820152825260c090930192602090910190610c43565b9695505050505050565b634e487b7160e01b600052603260045260246000fd5b60028110610d0557634e487b7160e01b600052602160045260246000fd5b9052565b815181526020808301516001600160a01b03908116918301919091526040808401519091169082015260608083015160c0830191610d4990840182610ce7565b506080830151608083015260a083015160a083015292915050565b600060208284031215610d7657600080fd5b8151801515811461090257600080fd5b6001600160a01b0386811682528516602082015260a08101610dab6040830186610ce7565b6060820193909352608001529392505050565b600060208284031215610dd057600080fd5b5051919050565b80820180821115610df857634e487b7160e01b600052601160045260246000fd5b92915050565b600060a0820187835286602084015260a0604084015280865180835260c08501915060208801925060005b81811015610e505783516001600160a01b0316835260209384019390920191600101610e29565b50506001600160a01b039590951660608401525050608001529392505050565b600060208284031215610e8257600080fd5b815167ffffffffffffffff811115610e9957600080fd5b8201601f81018413610eaa57600080fd5b8051610eb8610c1582610ba9565b8082825260208201915060208360051b850101925086831115610eda57600080fd5b6020840193505b82841015610cc7578351825260209384019390910190610ee156fea2646970667358221220f5e6a499c86c49312869bfcefd735afac8205e65871e49e31e1faa738f2a58b164736f6c634300081a00336080604052348015600f57600080fd5b50610ce18061001f6000396000f3fe608060405234801561001057600080fd5b50600436106100925760003560e01c806377ee56d31161006657806377ee56d3146100f4578063c2b5431f146100fc578063d09ef24114610121578063d1cd871d14610142578063facea6ba1461015557600080fd5b806286e68b14610097578063126743e7146100b55780632a58b330146100ca578063514fcac7146100e1575b600080fd5b61009f610168565b6040516100ac9190610ad2565b60405180910390f35b6100c86100c3366004610b20565b61023e565b005b6100d360025481565b6040519081526020016100ac565b6100c86100ef366004610b20565b61038c565b61009f610405565b61010f61010a366004610b20565b6104d2565b6040516100ac96959493929190610b39565b61013461012f366004610b20565b61052c565b6040516100ac929190610b78565b6100d3610150366004610bb1565b61075b565b61010f610163366004610b20565b6108b1565b60606000805480602002602001604051908101604052809291908181526020016000905b828210156102355760008481526020908190206040805160c08101825260058602909201805483526001808201546001600160a01b039081169585019590955260028201549485169284019290925291926060840191600160a01b90910460ff16908111156101fd576101fd610a4a565b600181111561020e5761020e610a4a565b8152602001600382015481526020016004820154815250508152602001906001019061018c565b50505050905090565b60005b60005481101561038857816000828154811061025f5761025f610c0c565b906000526020600020906005020160000154036103805760016000828154811061028b5761028b610c0c565b600091825260208083208454600181810187559585529190932060059283029093018054919092029092019182558281015482840180546001600160a01b03199081166001600160a01b039384161790915560028084018054918601805493841692909416918217845554939560ff600160a01b9586900416946001600160a81b03199093169091179190849081111561032757610327610a4a565b021790555060038281015490820155600491820154910155610348816108c1565b6040518281527f7c44208b5a90de3907889263317a131f5178339f16bd7d512528f9f48876ffdc906020015b60405180910390a15050565b600101610241565b5050565b60005b6000548110156103885781600082815481106103ad576103ad610c0c565b906000526020600020906005020160000154036103fd576103cd816108c1565b6040518281527fc41f4ceb2938876c35e61b705e9d2f18a02c4a26ce5e049a6308a943d46851b390602001610374565b60010161038f565b60606001805480602002602001604051908101604052809291908181526020016000905b828210156102355760008481526020908190206040805160c08101825260058602909201805483526001808201546001600160a01b039081169585019590955260028201549485169284019290925291926060840191600160a01b90910460ff169081111561049a5761049a610a4a565b60018111156104ab576104ab610a4a565b81526020016003820154815260200160048201548152505081526020019060010190610429565b600081815481106104e257600080fd5b6000918252602090912060059091020180546001820154600283015460038401546004909401549294506001600160a01b039182169391811692600160a01b90910460ff16919086565b6105656040805160c081018252600080825260208201819052918101829052906060820190815260200160008152602001600081525090565b6000805b60005481101561065b57836000828154811061058757610587610c0c565b9060005260206000209060050201600001540361065357600081815481106105b1576105b1610c0c565b60009182526020918290206040805160c0810182526005909302909101805483526001808201546001600160a01b0390811695850195909552600282015494851692840192909252929091908390606083019060ff600160a01b909104168481111561061f5761061f610a4a565b600181111561063057610630610a4a565b815260038201546020820152600490910154604090910152969095509350505050565b600101610569565b5060005b60015481101561071b57836001828154811061067d5761067d610c0c565b9060005260206000209060050201600001540361071357600181815481106106a7576106a7610c0c565b600091825260208083206040805160c0810182526005909402909101805484526001808201546001600160a01b03908116948601949094526002820154938416928501929092529392918491606084019160ff600160a01b909104169081111561061f5761061f610a4a565b60010161065f565b5060405162461bcd60e51b815260206004820152600f60248201526e13dc99195c881b9bdd08199bdd5b99608a1b60448201526064015b60405180910390fd5b6000806040518060c001604052806002548152602001886001600160a01b03168152602001876001600160a01b031681526020018660018111156107a1576107a1610a4a565b81526020808201879052604091820186905283546001808201865560009586529482902084516005909202019081559083015181850180546001600160a01b03199081166001600160a01b0393841617909155928401516002830180549485169190921690811782556060850151949592949391926001600160a81b03199092161790600160a01b90849081111561083b5761083b610a4a565b02179055506080820151816003015560a0820151816004015550507fbede694013ca1bc9c4f8bc14371466ebd58cd1cbe41a2b3d75c213957ac764c5600254878660405161088b93929190610c22565b60405180910390a1600280549060006108a383610c63565b909155509695505050505050565b600181815481106104e257600080fd5b60005481106109125760405162461bcd60e51b815260206004820152601960248201527f4f7264657220696e646578206f7574206f6620626f756e6473000000000000006044820152606401610752565b6000805461092290600190610c7c565b8154811061093257610932610c0c565b90600052602060002090600502016000828154811061095357610953610c0c565b60009182526020909120825460059092020190815560018083015481830180546001600160a01b03199081166001600160a01b03938416179091556002808601805491860180549384169290941691821784555460ff600160a01b9182900416946001600160a81b03199093169091179184908111156109d5576109d5610a4a565b02179055506003828101549082015560049182015491015560008054806109fe576109fe610c95565b6000828152602081206005600019909301928302018181556001810180546001600160a01b03191690556002810180546001600160a81b03191690556003810182905560040155905550565b634e487b7160e01b600052602160045260246000fd5b60028110610a7e57634e487b7160e01b600052602160045260246000fd5b9052565b8051825260018060a01b03602082015116602083015260018060a01b0360408201511660408301526060810151610abc6060840182610a60565b506080818101519083015260a090810151910152565b602080825282518282018190526000918401906040840190835b81811015610b1557610aff838551610a82565b6020939093019260c09290920191600101610aec565b509095945050505050565b600060208284031215610b3257600080fd5b5035919050565b8681526001600160a01b0386811660208301528516604082015260c08101610b646060830186610a60565b608082019390935260a00152949350505050565b60e08101610b868285610a82565b82151560c08301529392505050565b80356001600160a01b0381168114610bac57600080fd5b919050565b600080600080600060a08688031215610bc957600080fd5b610bd286610b95565b9450610be060208701610b95565b9350604086013560028110610bf457600080fd5b94979396509394606081013594506080013592915050565b634e487b7160e01b600052603260045260246000fd5b8381526001600160a01b038316602082015260608101610c456040830184610a60565b949350505050565b634e487b7160e01b600052601160045260246000fd5b600060018201610c7557610c75610c4d565b5060010190565b81810381811115610c8f57610c8f610c4d565b92915050565b634e487b7160e01b600052603160045260246000fdfea2646970667358221220c7247516decd7e4b1300b280947fa029d18144f0c4fce9415101c62ec635b57664736f6c634300081a00330000000000000000000000005c69bee701ef814a2b6a3edd4b1652cb9cc5aa6f00000000000000000000000089e7fdbd1ea30300719357a1584c28ee34bcb4be00000000000000000000000014b2fc9e1333f30d70e1672d1859a08e8082384d",
        "nonce": "0xa3",
        "chainId": "0xaa36a7"
      },
      "additionalContracts": [
        {
          "transactionType": "CREATE",
          "address": "0x6688a551176e70fb7e7341de8d408ed9a22255cd",
          "initCode": "0x6080604052348015600f57600080fd5b50610ce18061001f6000396000f3fe608060405234801561001057600080fd5b50600436106100925760003560e01c806377ee56d31161006657806377ee56d3146100f4578063c2b5431f146100fc578063d09ef24114610121578063d1cd871d14610142578063facea6ba1461015557600080fd5b806286e68b14610097578063126743e7146100b55780632a58b330146100ca578063514fcac7146100e1575b600080fd5b61009f610168565b6040516100ac9190610ad2565b60405180910390f35b6100c86100c3366004610b20565b61023e565b005b6100d360025481565b6040519081526020016100ac565b6100c86100ef366004610b20565b61038c565b61009f610405565b61010f61010a366004610b20565b6104d2565b6040516100ac96959493929190610b39565b61013461012f366004610b20565b61052c565b6040516100ac929190610b78565b6100d3610150366004610bb1565b61075b565b61010f610163366004610b20565b6108b1565b60606000805480602002602001604051908101604052809291908181526020016000905b828210156102355760008481526020908190206040805160c08101825260058602909201805483526001808201546001600160a01b039081169585019590955260028201549485169284019290925291926060840191600160a01b90910460ff16908111156101fd576101fd610a4a565b600181111561020e5761020e610a4a565b8152602001600382015481526020016004820154815250508152602001906001019061018c565b50505050905090565b60005b60005481101561038857816000828154811061025f5761025f610c0c565b906000526020600020906005020160000154036103805760016000828154811061028b5761028b610c0c565b600091825260208083208454600181810187559585529190932060059283029093018054919092029092019182558281015482840180546001600160a01b03199081166001600160a01b039384161790915560028084018054918601805493841692909416918217845554939560ff600160a01b9586900416946001600160a81b03199093169091179190849081111561032757610327610a4a565b021790555060038281015490820155600491820154910155610348816108c1565b6040518281527f7c44208b5a90de3907889263317a131f5178339f16bd7d512528f9f48876ffdc906020015b60405180910390a15050565b600101610241565b5050565b60005b6000548110156103885781600082815481106103ad576103ad610c0c565b906000526020600020906005020160000154036103fd576103cd816108c1565b6040518281527fc41f4ceb2938876c35e61b705e9d2f18a02c4a26ce5e049a6308a943d46851b390602001610374565b60010161038f565b60606001805480602002602001604051908101604052809291908181526020016000905b828210156102355760008481526020908190206040805160c08101825260058602909201805483526001808201546001600160a01b039081169585019590955260028201549485169284019290925291926060840191600160a01b90910460ff169081111561049a5761049a610a4a565b60018111156104ab576104ab610a4a565b81526020016003820154815260200160048201548152505081526020019060010190610429565b600081815481106104e257600080fd5b6000918252602090912060059091020180546001820154600283015460038401546004909401549294506001600160a01b039182169391811692600160a01b90910460ff16919086565b6105656040805160c081018252600080825260208201819052918101829052906060820190815260200160008152602001600081525090565b6000805b60005481101561065b57836000828154811061058757610587610c0c565b9060005260206000209060050201600001540361065357600081815481106105b1576105b1610c0c565b60009182526020918290206040805160c0810182526005909302909101805483526001808201546001600160a01b0390811695850195909552600282015494851692840192909252929091908390606083019060ff600160a01b909104168481111561061f5761061f610a4a565b600181111561063057610630610a4a565b815260038201546020820152600490910154604090910152969095509350505050565b600101610569565b5060005b60015481101561071b57836001828154811061067d5761067d610c0c565b9060005260206000209060050201600001540361071357600181815481106106a7576106a7610c0c565b600091825260208083206040805160c0810182526005909402909101805484526001808201546001600160a01b03908116948601949094526002820154938416928501929092529392918491606084019160ff600160a01b909104169081111561061f5761061f610a4a565b60010161065f565b5060405162461bcd60e51b815260206004820152600f60248201526e13dc99195c881b9bdd08199bdd5b99608a1b60448201526064015b60405180910390fd5b6000806040518060c001604052806002548152602001886001600160a01b03168152602001876001600160a01b031681526020018660018111156107a1576107a1610a4a565b81526020808201879052604091820186905283546001808201865560009586529482902084516005909202019081559083015181850180546001600160a01b03199081166001600160a01b0393841617909155928401516002830180549485169190921690811782556060850151949592949391926001600160a81b03199092161790600160a01b90849081111561083b5761083b610a4a565b02179055506080820151816003015560a0820151816004015550507fbede694013ca1bc9c4f8bc14371466ebd58cd1cbe41a2b3d75c213957ac764c5600254878660405161088b93929190610c22565b60405180910390a1600280549060006108a383610c63565b909155509695505050505050565b600181815481106104e257600080fd5b60005481106109125760405162461bcd60e51b815260206004820152601960248201527f4f7264657220696e646578206f7574206f6620626f756e6473000000000000006044820152606401610752565b6000805461092290600190610c7c565b8154811061093257610932610c0c565b90600052602060002090600502016000828154811061095357610953610c0c565b60009182526020909120825460059092020190815560018083015481830180546001600160a01b03199081166001600160a01b03938416179091556002808601805491860180549384169290941691821784555460ff600160a01b9182900416946001600160a81b03199093169091179184908111156109d5576109d5610a4a565b02179055506003828101549082015560049182015491015560008054806109fe576109fe610c95565b6000828152602081206005600019909301928302018181556001810180546001600160a01b03191690556002810180546001600160a81b03191690556003810182905560040155905550565b634e487b7160e01b600052602160045260246000fd5b60028110610a7e57634e487b7160e01b600052602160045260246000fd5b9052565b8051825260018060a01b03602082015116602083015260018060a01b0360408201511660408301526060810151610abc6060840182610a60565b506080818101519083015260a090810151910152565b602080825282518282018190526000918401906040840190835b81811015610b1557610aff838551610a82565b6020939093019260c09290920191600101610aec565b509095945050505050565b600060208284031215610b3257600080fd5b5035919050565b8681526001600160a01b0386811660208301528516604082015260c08101610b646060830186610a60565b608082019390935260a00152949350505050565b60e08101610b868285610a82565b82151560c08301529392505050565b80356001600160a01b0381168114610bac57600080fd5b919050565b600080600080600060a08688031215610bc957600080fd5b610bd286610b95565b9450610be060208701610b95565b9350604086013560028110610bf457600080fd5b94979396509394606081013594506080013592915050565b634e487b7160e01b600052603260045260246000fd5b8381526001600160a01b038316602082015260608101610c456040830184610a60565b949350505050565b634e487b7160e01b600052601160045260246000fd5b600060018201610c7557610c75610c4d565b5060010190565b81810381811115610c8f57610c8f610c4d565b92915050565b634e487b7160e01b600052603160045260246000fdfea2646970667358221220c7247516decd7e4b1300b280947fa029d18144f0c4fce9415101c62ec635b57664736f6c634300081a0033"
        }
      ],
      "isFixedGasLimit": false
    },
    {
      "hash": "0xfa1966522ccbb0d775c7a8b44efde898b4eeff2374b679701ace02634a588928",
      "transactionType": "CALL",
      "contractName": null,
      "contractAddress": "0x89e7fdbd1ea30300719357a1584c28ee34bcb4be",
      "function": "mint(address,uint256)",
      "arguments": [
        "0x7f25f85dd3E635371104958001F7B237d4c7b457",
        "10000000000000000000000"
      ],
      "transaction": {
        "from": "0x75998e806d0be5b37c5de74acfa0006b3c7dcdff",
        "to": "0x89e7fdbd1ea30300719357a1584c28ee34bcb4be",
        "gas": "0x125d5",
        "value": "0x0",
        "input": "0x40c10f190000000000000000000000007f25f85dd3e635371104958001f7b237d4c7b45700000000000000000000000000000000000000000000021e19e0c9bab2400000",
        "nonce": "0xa4",
        "chainId": "0xaa36a7"
      },
      "additionalContracts": [],
      "isFixedGasLimit": false
    },
    {
      "hash": "0xd4d2d7c83a57cac0f33b7d4bc90e93041dff3b474f8b6ae6351648bc22259882",
      "transactionType": "CALL",
      "contractName": "MultiTokenKeeper",
      "contractAddress": "0x7f25f85dd3e635371104958001f7b237d4c7b457",
      "function": "addOrder(address,address,uint8,int256,uint256)",
      "arguments": [
        "0x3aF31C01444f14F5761b7205685bc92663d5bDfB",
        "0x1b44F3514812d835EB1BDB0acB33d3fA3351Ee43",
        "0",
        "0",
        "100000000000000000000"
      ],
      "transaction": {
        "from": "0x75998e806d0be5b37c5de74acfa0006b3c7dcdff",
        "to": "0x7f25f85dd3e635371104958001f7b237d4c7b457",
        "gas": "0x33e21",
        "value": "0x0",
        "input": "0xd1cd871d0000000000000000000000003af31c01444f14f5761b7205685bc92663d5bdfb0000000000000000000000001b44f3514812d835eb1bdb0acb33d3fa3351ee43000000000000000000000000000000000000000000000000000000000000000000000000000000000000000000000000000000000000000000000000000000000000000000000000000000000000000000000000000000056bc75e2d63100000",
        "nonce": "0xa5",
        "chainId": "0xaa36a7"
      },
      "additionalContracts": [],
      "isFixedGasLimit": false
    },
    {
      "hash": "0xe149b980a27855f447973bb3b17f6da52cc498a8daee2858e12167888439e42b",
      "transactionType": "CALL",
      "contractName": null,
      "contractAddress": "0x779877a7b0d9e8603169ddbd7836e478b4624789",
      "function": "approve(address,uint256)",
      "arguments": [
        "0xb0E49c5D0d05cbc241d68c05BC5BA1d1B7B72976",
        "3000000000000000000"
      ],
      "transaction": {
        "from": "0x75998e806d0be5b37c5de74acfa0006b3c7dcdff",
        "to": "0x779877a7b0d9e8603169ddbd7836e478b4624789",
        "gas": "0xa65d",
        "value": "0x0",
        "input": "0x095ea7b3000000000000000000000000b0e49c5d0d05cbc241d68c05bc5ba1d1b7b7297600000000000000000000000000000000000000000000000029a2241af62c0000",
        "nonce": "0xa6",
        "chainId": "0xaa36a7"
      },
      "additionalContracts": [],
      "isFixedGasLimit": false
    },
    {
      "hash": "0x635a25c88e2ceaf77c1f36df9cfd364112dbb784985ebbd24e3f4feb5c5eb7e6",
      "transactionType": "CALL",
      "contractName": null,
      "contractAddress": "0xb0e49c5d0d05cbc241d68c05bc5ba1d1b7b72976",
      "function": "registerUpkeep((string,bytes,address,uint32,address,uint8,bytes,bytes,bytes,uint96))",
      "arguments": [
        "(\"MultiTokenKeeper Upkeep\", 0x, 0x7f25f85dd3E635371104958001F7B237d4c7b457, 600000, 0x75998e806D0BE5B37c5DE74AcfA0006B3C7DCdfF, 0, 0x, 0x, 0x, 3000000000000000000)"
      ],
      "transaction": {
        "from": "0x75998e806d0be5b37c5de74acfa0006b3c7dcdff",
        "to": "0xb0e49c5d0d05cbc241d68c05bc5ba1d1b7b72976",
        "gas": "0x9fff0",
        "value": "0x0",
        "input": "0x3f678e110000000000000000000000000000000000000000000000000000000000000020000000000000000000000000000000000000000000000000000000000000014000000000000000000000000000000000000000000000000000000000000001800000000000000000000000007f25f85dd3e635371104958001f7b237d4c7b45700000000000000000000000000000000000000000000000000000000000927c000000000000000000000000075998e806d0be5b37c5de74acfa0006b3c7dcdff000000000000000000000000000000000000000000000000000000000000000000000000000000000000000000000000000000000000000000000000000001a000000000000000000000000000000000000000000000000000000000000001c000000000000000000000000000000000000000000000000000000000000001e000000000000000000000000000000000000000000000000029a2241af62c000000000000000000000000000000000000000000000000000000000000000000174d756c7469546f6b656e4b65657065722055706b6565700000000000000000000000000000000000000000000000000000000000000000000000000000000000000000000000000000000000000000000000000000000000000000000000000000000000000000000000000000000000000000000000000000000000000000000000000000000000000000000000000000000000000000000000000000000000",
        "nonce": "0xa7",
        "chainId": "0xaa36a7"
      },
      "additionalContracts": [
        {
          "transactionType": "CREATE",
          "address": "0x0a2abd498b87884f861b4aac751d02314903be09",
          "initCode": "0x60c060405234801561001057600080fd5b506040516103ca3803806103ca83398101604081905261002f91610076565b600080546001600160a01b0319166001600160a01b039384161790559181166080521660a0526100b9565b80516001600160a01b038116811461007157600080fd5b919050565b60008060006060848603121561008b57600080fd5b6100948461005a565b92506100a26020850161005a565b91506100b06040850161005a565b90509250925092565b60805160a0516102e76100e36000396000603801526000818160c4015261011701526102e76000f3fe608060405234801561001057600080fd5b50600436106100365760003560e01c806379188d161461007b578063f00e6a2a146100aa575b7f00000000000000000000000000000000000000000000000000000000000000003660008037600080366000845af43d6000803e808015610076573d6000f35b3d6000fd5b61008e6100893660046101c1565b6100ee565b6040805192151583526020830191909152015b60405180910390f35b60405173ffffffffffffffffffffffffffffffffffffffff7f00000000000000000000000000000000000000000000000000000000000000001681526020016100a1565b60008054819073ffffffffffffffffffffffffffffffffffffffff16331461011557600080fd5b7f00000000000000000000000000000000000000000000000000000000000000005a91505a61138881101561014957600080fd5b61138881039050856040820482031161016157600080fd5b50803b61016d57600080fd5b6000808551602087016000858af192505a610188908361029a565b9150509250929050565b7f4e487b7100000000000000000000000000000000000000000000000000000000600052604160045260246000fd5b600080604083850312156101d457600080fd5b82359150602083013567ffffffffffffffff808211156101f357600080fd5b818501915085601f83011261020757600080fd5b81358181111561021957610219610192565b604051601f82017fffffffffffffffffffffffffffffffffffffffffffffffffffffffffffffffe0908116603f0116810190838211818310171561025f5761025f610192565b8160405282815288602084870101111561027857600080fd5b8260208601602083013760006020848301015280955050505050509250929050565b818103818111156102d4577f4e487b7100000000000000000000000000000000000000000000000000000000600052601160045260246000fd5b9291505056fea164736f6c6343000810000a0000000000000000000000007f25f85dd3e635371104958001f7b237d4c7b45700000000000000000000000086efbd0b6736bed994962f9797049422a3a8e8ad00000000000000000000000045e65c181e503ed0c116313edcad042928a6d608"
        }
      ],
      "isFixedGasLimit": false
    }
  ],
  "receipts": [
    {
      "status": "0x1",
      "cumulativeGasUsed": "0x1c114ca",
      "logs": [],
      "logsBloom": "0x00000000000000000000000000000000000000000000000000000000000000000000000000000000000000000000000000000000000000000000000000000000000000000000000000000000000000000000000000000000000000000000000000000000000000000000000000000000000000000000000000000000000000000000000000000000000000000000000000000000000000000000000000000000000000000000000000000000000000000000000000000000000000000000000000000000000000000000000000000000000000000000000000000000000000000000000000000000000000000000000000000000000000000000000000000000",
      "type": "0x2",
      "transactionHash": "0xa6811ea50f3143f2e60c5b2d0b2b972da5afe32d1a2dbe275d141eb9b348697a",
      "transactionIndex": "0x8d",
      "blockHash": "0x680e9d2244b82db707148434a2ce6366b28da92680bc0ce4c8f8be1623791a26",
      "blockNumber": "0x62a89e",
      "gasUsed": "0x1a6ef8",
      "effectiveGasPrice": "0x2b634acf8",
      "from": "0x75998e806d0be5b37c5de74acfa0006b3c7dcdff",
      "to": null,
      "contractAddress": "0x7f25f85dd3e635371104958001f7b237d4c7b457"
    },
    {
      "status": "0x1",
      "cumulativeGasUsed": "0x1c1ddb4",
      "logs": [
        {
          "address": "0x89e7fdbd1ea30300719357a1584c28ee34bcb4be",
          "topics": [
            "0xddf252ad1be2c89b69c2b068fc378daa952ba7f163c4a11628f55a4df523b3ef",
            "0x0000000000000000000000000000000000000000000000000000000000000000",
            "0x0000000000000000000000007f25f85dd3e635371104958001f7b237d4c7b457"
          ],
          "data": "0x00000000000000000000000000000000000000000000021e19e0c9bab2400000",
          "blockHash": "0x680e9d2244b82db707148434a2ce6366b28da92680bc0ce4c8f8be1623791a26",
          "blockNumber": "0x62a89e",
          "transactionHash": "0xfa1966522ccbb0d775c7a8b44efde898b4eeff2374b679701ace02634a588928",
          "transactionIndex": "0x8e",
          "logIndex": "0x155",
          "removed": false
        }
      ],
      "logsBloom": "0x00200000000000000000000000000000000000000000000000000000200000000000000000000000000000000020000000000000000000080000000000000000000000000000000000000008000000000000000000000000000000000000000000000000020000000000000000000800000000000000000000000010000000000002000000000000000000000000000000000000000000000000000000000000000000000000000000000000000000000000000000000000000000000000000000000002000000000000000000000000000000000000000000000000000020000000000000000000000000001000000000000000000000000000000000000000",
      "type": "0x2",
      "transactionHash": "0xfa1966522ccbb0d775c7a8b44efde898b4eeff2374b679701ace02634a588928",
      "transactionIndex": "0x8e",
      "blockHash": "0x680e9d2244b82db707148434a2ce6366b28da92680bc0ce4c8f8be1623791a26",
      "blockNumber": "0x62a89e",
      "gasUsed": "0xc8ea",
      "effectiveGasPrice": "0x2b634acf8",
      "from": "0x75998e806d0be5b37c5de74acfa0006b3c7dcdff",
      "to": "0x89e7fdbd1ea30300719357a1584c28ee34bcb4be",
      "contractAddress": null
    },
    {
      "status": "0x1",
      "cumulativeGasUsed": "0x1c436b4",
      "logs": [
        {
          "address": "0x6688a551176e70fb7e7341de8d408ed9a22255cd",
          "topics": [
            "0xbede694013ca1bc9c4f8bc14371466ebd58cd1cbe41a2b3d75c213957ac764c5"
          ],
          "data": "0x00000000000000000000000000000000000000000000000000000000000000000000000000000000000000003af31c01444f14f5761b7205685bc92663d5bdfb0000000000000000000000000000000000000000000000000000000000000000",
          "blockHash": "0x680e9d2244b82db707148434a2ce6366b28da92680bc0ce4c8f8be1623791a26",
          "blockNumber": "0x62a89e",
          "transactionHash": "0xd4d2d7c83a57cac0f33b7d4bc90e93041dff3b474f8b6ae6351648bc22259882",
          "transactionIndex": "0x8f",
          "logIndex": "0x156",
          "removed": false
        }
      ],
      "logsBloom": "0x00000000000000000000000000004000000000000000000000000000000000000000000000000000000000000000000000000000000000000000008000000000000000000000000000000000000000000000000000000000000000000000000000000000000000000004000000000000000000000000000000000000000000020000000000000000000000000000000000000000000000000000000000000000000000000000000000000000000000000000000000000000000000000000000000000000000000000000000000000000000000000000000000000000000000000000000000000000000000000000000000000800000040000000000000000000",
      "type": "0x2",
      "transactionHash": "0xd4d2d7c83a57cac0f33b7d4bc90e93041dff3b474f8b6ae6351648bc22259882",
      "transactionIndex": "0x8f",
      "blockHash": "0x680e9d2244b82db707148434a2ce6366b28da92680bc0ce4c8f8be1623791a26",
      "blockNumber": "0x62a89e",
      "gasUsed": "0x25900",
      "effectiveGasPrice": "0x2b634acf8",
      "from": "0x75998e806d0be5b37c5de74acfa0006b3c7dcdff",
      "to": "0x7f25f85dd3e635371104958001f7b237d4c7b457",
      "contractAddress": null
    },
    {
      "status": "0x1",
      "cumulativeGasUsed": "0x1c4a875",
      "logs": [
        {
          "address": "0x779877a7b0d9e8603169ddbd7836e478b4624789",
          "topics": [
            "0x8c5be1e5ebec7d5bd14f71427d1e84f3dd0314c0f7b2291e5b200ac8c7c3b925",
            "0x00000000000000000000000075998e806d0be5b37c5de74acfa0006b3c7dcdff",
            "0x000000000000000000000000b0e49c5d0d05cbc241d68c05bc5ba1d1b7b72976"
          ],
          "data": "0x00000000000000000000000000000000000000000000000029a2241af62c0000",
          "blockHash": "0x680e9d2244b82db707148434a2ce6366b28da92680bc0ce4c8f8be1623791a26",
          "blockNumber": "0x62a89e",
          "transactionHash": "0xe149b980a27855f447973bb3b17f6da52cc498a8daee2858e12167888439e42b",
          "transactionIndex": "0x90",
          "logIndex": "0x157",
          "removed": false
        }
      ],
      "logsBloom": "0x00000004000000100080000000000000000000000000000000000000000000000000000000000000000000000000000000000000000000000000000000200000000000000000000000000000000000000000000000001000000000000000000000000000000000000000000000000000000000000000000000000000000000000000000010000000000000000000800000000000000000000000000000000000020000000000000000000000000000000000000000000002000000000000000000000000000000000000000000000000000000000000008100000000000000000010000000000000000000000000000000000000000000000000000000000000",
      "type": "0x2",
      "transactionHash": "0xe149b980a27855f447973bb3b17f6da52cc498a8daee2858e12167888439e42b",
      "transactionIndex": "0x90",
      "blockHash": "0x680e9d2244b82db707148434a2ce6366b28da92680bc0ce4c8f8be1623791a26",
      "blockNumber": "0x62a89e",
      "gasUsed": "0x71c1",
      "effectiveGasPrice": "0x2b634acf8",
      "from": "0x75998e806d0be5b37c5de74acfa0006b3c7dcdff",
      "to": "0x779877a7b0d9e8603169ddbd7836e478b4624789",
      "contractAddress": null
    },
    {
      "status": "0x1",
      "cumulativeGasUsed": "0x13640fa",
      "logs": [
        {
          "address": "0x779877a7b0d9e8603169ddbd7836e478b4624789",
          "topics": [
            "0xddf252ad1be2c89b69c2b068fc378daa952ba7f163c4a11628f55a4df523b3ef",
            "0x00000000000000000000000075998e806d0be5b37c5de74acfa0006b3c7dcdff",
            "0x000000000000000000000000b0e49c5d0d05cbc241d68c05bc5ba1d1b7b72976"
          ],
          "data": "0x00000000000000000000000000000000000000000000000029a2241af62c0000",
          "blockHash": "0xe374f9ea575976ba457a2edb9825b22f0f07dcda5eec227dc350bc1f1436d4ed",
          "blockNumber": "0x62a89f",
          "transactionHash": "0x635a25c88e2ceaf77c1f36df9cfd364112dbb784985ebbd24e3f4feb5c5eb7e6",
          "transactionIndex": "0x5c",
          "logIndex": "0x135",
          "removed": false
        },
        {
          "address": "0x779877a7b0d9e8603169ddbd7836e478b4624789",
          "topics": [
            "0x8c5be1e5ebec7d5bd14f71427d1e84f3dd0314c0f7b2291e5b200ac8c7c3b925",
            "0x00000000000000000000000075998e806d0be5b37c5de74acfa0006b3c7dcdff",
            "0x000000000000000000000000b0e49c5d0d05cbc241d68c05bc5ba1d1b7b72976"
          ],
          "data": "0x0000000000000000000000000000000000000000000000000000000000000000",
          "blockHash": "0xe374f9ea575976ba457a2edb9825b22f0f07dcda5eec227dc350bc1f1436d4ed",
          "blockNumber": "0x62a89f",
          "transactionHash": "0x635a25c88e2ceaf77c1f36df9cfd364112dbb784985ebbd24e3f4feb5c5eb7e6",
          "transactionIndex": "0x5c",
          "logIndex": "0x136",
          "removed": false
        },
        {
          "address": "0xb0e49c5d0d05cbc241d68c05bc5ba1d1b7b72976",
          "topics": [
            "0x7684390ebb103102f7f48c71439c2408713f8d437782a6fab2756acc0e42c1b7",
            "0x2cba301a3f4c8758cf72a7740c45b166491ab5ea1b4d15345407c55609b2d00d",
            "0x0000000000000000000000007f25f85dd3e635371104958001f7b237d4c7b457"
          ],
          "data": "0x0000000000000000000000000000000000000000000000000000000000000120000000000000000000000000000000000000000000000000000000000000016000000000000000000000000000000000000000000000000000000000000927c000000000000000000000000075998e806d0be5b37c5de74acfa0006b3c7dcdff0000000000000000000000000000000000000000000000000000000000000000000000000000000000000000000000000000000000000000000000000000018000000000000000000000000000000000000000000000000000000000000001a000000000000000000000000000000000000000000000000000000000000001c000000000000000000000000000000000000000000000000029a2241af62c000000000000000000000000000000000000000000000000000000000000000000174d756c7469546f6b656e4b65657065722055706b6565700000000000000000000000000000000000000000000000000000000000000000000000000000000000000000000000000000000000000000000000000000000000000000000000000000000000000000000000000000000000000000000000000000000000000000000000000000000000000000000000000000000000000000000000000000000000",
          "blockHash": "0xe374f9ea575976ba457a2edb9825b22f0f07dcda5eec227dc350bc1f1436d4ed",
          "blockNumber": "0x62a89f",
          "transactionHash": "0x635a25c88e2ceaf77c1f36df9cfd364112dbb784985ebbd24e3f4feb5c5eb7e6",
          "transactionIndex": "0x5c",
          "logIndex": "0x137",
          "removed": false
        },
        {
          "address": "0x86efbd0b6736bed994962f9797049422a3a8e8ad",
          "topics": [
            "0xbae366358c023f887e791d7a62f2e4316f1026bd77f6fb49501a917b3bc5d012",
            "0xa204e9f10000000000000000000000002693a278b0931c42bea315c44bcbae39"
          ],
          "data": "0x00000000000000000000000000000000000000000000000000000000000927c000000000000000000000000075998e806d0be5b37c5de74acfa0006b3c7dcdff",
          "blockHash": "0xe374f9ea575976ba457a2edb9825b22f0f07dcda5eec227dc350bc1f1436d4ed",
          "blockNumber": "0x62a89f",
          "transactionHash": "0x635a25c88e2ceaf77c1f36df9cfd364112dbb784985ebbd24e3f4feb5c5eb7e6",
          "transactionIndex": "0x5c",
          "logIndex": "0x138",
          "removed": false
        },
        {
          "address": "0x86efbd0b6736bed994962f9797049422a3a8e8ad",
          "topics": [
            "0xcba2d5723b2ee59e53a8e8a82a4a7caf4fdfe70e9f7c582950bf7e7a5c24e83d",
            "0xa204e9f10000000000000000000000002693a278b0931c42bea315c44bcbae39"
          ],
          "data": "0x00000000000000000000000000000000000000000000000000000000000000200000000000000000000000000000000000000000000000000000000000000000",
          "blockHash": "0xe374f9ea575976ba457a2edb9825b22f0f07dcda5eec227dc350bc1f1436d4ed",
          "blockNumber": "0x62a89f",
          "transactionHash": "0x635a25c88e2ceaf77c1f36df9cfd364112dbb784985ebbd24e3f4feb5c5eb7e6",
          "transactionIndex": "0x5c",
          "logIndex": "0x139",
          "removed": false
        },
        {
          "address": "0x86efbd0b6736bed994962f9797049422a3a8e8ad",
          "topics": [
            "0x2b72ac786c97e68dbab71023ed6f2bdbfc80ad9bb7808941929229d71b7d5664",
            "0xa204e9f10000000000000000000000002693a278b0931c42bea315c44bcbae39"
          ],
          "data": "0x00000000000000000000000000000000000000000000000000000000000000200000000000000000000000000000000000000000000000000000000000000000",
          "blockHash": "0xe374f9ea575976ba457a2edb9825b22f0f07dcda5eec227dc350bc1f1436d4ed",
          "blockNumber": "0x62a89f",
          "transactionHash": "0x635a25c88e2ceaf77c1f36df9cfd364112dbb784985ebbd24e3f4feb5c5eb7e6",
          "transactionIndex": "0x5c",
          "logIndex": "0x13a",
          "removed": false
        },
        {
          "address": "0x86efbd0b6736bed994962f9797049422a3a8e8ad",
          "topics": [
            "0x3e8740446213c8a77d40e08f79136ce3f347d13ed270a6ebdf57159e0faf4850",
            "0xa204e9f10000000000000000000000002693a278b0931c42bea315c44bcbae39"
          ],
          "data": "0x00000000000000000000000000000000000000000000000000000000000000200000000000000000000000000000000000000000000000000000000000000000",
          "blockHash": "0xe374f9ea575976ba457a2edb9825b22f0f07dcda5eec227dc350bc1f1436d4ed",
          "blockNumber": "0x62a89f",
          "transactionHash": "0x635a25c88e2ceaf77c1f36df9cfd364112dbb784985ebbd24e3f4feb5c5eb7e6",
          "transactionIndex": "0x5c",
          "logIndex": "0x13b",
          "removed": false
        },
        {
          "address": "0x779877a7b0d9e8603169ddbd7836e478b4624789",
          "topics": [
            "0xddf252ad1be2c89b69c2b068fc378daa952ba7f163c4a11628f55a4df523b3ef",
            "0x000000000000000000000000b0e49c5d0d05cbc241d68c05bc5ba1d1b7b72976",
            "0x00000000000000000000000086efbd0b6736bed994962f9797049422a3a8e8ad"
          ],
          "data": "0x00000000000000000000000000000000000000000000000029a2241af62c0000",
          "blockHash": "0xe374f9ea575976ba457a2edb9825b22f0f07dcda5eec227dc350bc1f1436d4ed",
          "blockNumber": "0x62a89f",
          "transactionHash": "0x635a25c88e2ceaf77c1f36df9cfd364112dbb784985ebbd24e3f4feb5c5eb7e6",
          "transactionIndex": "0x5c",
          "logIndex": "0x13c",
          "removed": false
        },
        {
          "address": "0x779877a7b0d9e8603169ddbd7836e478b4624789",
          "topics": [
            "0xe19260aff97b920c7df27010903aeb9c8d2be5d310a2c67824cf3f15396e4c16",
            "0x000000000000000000000000b0e49c5d0d05cbc241d68c05bc5ba1d1b7b72976",
            "0x00000000000000000000000086efbd0b6736bed994962f9797049422a3a8e8ad"
          ],
          "data": "0x00000000000000000000000000000000000000000000000029a2241af62c000000000000000000000000000000000000000000000000000000000000000000400000000000000000000000000000000000000000000000000000000000000020a204e9f10000000000000000000000002693a278b0931c42bea315c44bcbae39",
          "blockHash": "0xe374f9ea575976ba457a2edb9825b22f0f07dcda5eec227dc350bc1f1436d4ed",
          "blockNumber": "0x62a89f",
          "transactionHash": "0x635a25c88e2ceaf77c1f36df9cfd364112dbb784985ebbd24e3f4feb5c5eb7e6",
          "transactionIndex": "0x5c",
          "logIndex": "0x13d",
          "removed": false
        },
        {
          "address": "0x86efbd0b6736bed994962f9797049422a3a8e8ad",
          "topics": [
            "0xafd24114486da8ebfc32f3626dada8863652e187461aa74d4bfa734891506203",
            "0xa204e9f10000000000000000000000002693a278b0931c42bea315c44bcbae39",
            "0x000000000000000000000000b0e49c5d0d05cbc241d68c05bc5ba1d1b7b72976"
          ],
          "data": "0x00000000000000000000000000000000000000000000000029a2241af62c0000",
          "blockHash": "0xe374f9ea575976ba457a2edb9825b22f0f07dcda5eec227dc350bc1f1436d4ed",
          "blockNumber": "0x62a89f",
          "transactionHash": "0x635a25c88e2ceaf77c1f36df9cfd364112dbb784985ebbd24e3f4feb5c5eb7e6",
          "transactionIndex": "0x5c",
          "logIndex": "0x13e",
          "removed": false
        },
        {
          "address": "0xb0e49c5d0d05cbc241d68c05bc5ba1d1b7b72976",
          "topics": [
            "0xb9a292fb7e3edd920cd2d2829a3615a640c43fd7de0a0820aa0668feb4c37d4b",
            "0x2cba301a3f4c8758cf72a7740c45b166491ab5ea1b4d15345407c55609b2d00d",
            "0xa204e9f10000000000000000000000002693a278b0931c42bea315c44bcbae39"
          ],
          "data": "0x000000000000000000000000000000000000000000000000000000000000002000000000000000000000000000000000000000000000000000000000000000174d756c7469546f6b656e4b65657065722055706b656570000000000000000000",
          "blockHash": "0xe374f9ea575976ba457a2edb9825b22f0f07dcda5eec227dc350bc1f1436d4ed",
          "blockNumber": "0x62a89f",
          "transactionHash": "0x635a25c88e2ceaf77c1f36df9cfd364112dbb784985ebbd24e3f4feb5c5eb7e6",
          "transactionIndex": "0x5c",
          "logIndex": "0x13f",
          "removed": false
        }
      ],
      "logsBloom": "0x00000004800000104080000000000000000000000000000000000000220000000000000010000000000000000020000000000000000000000000000000200004000002004000000001400008000000100000000000001080020020000000000000240000000000000000000001020000000000000000000001100010000000000002000110000100000000000000800000000120240000000100000000000000020000000000000c00000000000000000000000000000022000000210000000000000002000000000000000000000000000000000000008100000000800000000010000000000000000000200010000001400000000000000000101000000000",
      "type": "0x2",
      "transactionHash": "0x635a25c88e2ceaf77c1f36df9cfd364112dbb784985ebbd24e3f4feb5c5eb7e6",
      "transactionIndex": "0x5c",
      "blockHash": "0xe374f9ea575976ba457a2edb9825b22f0f07dcda5eec227dc350bc1f1436d4ed",
      "blockNumber": "0x62a89f",
      "gasUsed": "0x6d6a7",
      "effectiveGasPrice": "0x30c2a0554",
      "from": "0x75998e806d0be5b37c5de74acfa0006b3c7dcdff",
      "to": "0xb0e49c5d0d05cbc241d68c05bc5ba1d1b7b72976",
      "contractAddress": null
    }
  ],
  "libraries": [],
  "pending": [],
  "returns": {},
  "timestamp": 1723190523,
  "chain": 11155111,
  "commit": "4533426"
}