{
  "transactions": [
    {
      "hash": "0xccaa5e0d1e952c832806b4d573c809cebff24091621bf05a4d9c4facbba40ad1",
      "transactionType": "CALL",
      "contractName": null,
      "contractAddress": "0x0d5fa506452ead3bbf5f8a1639866ca50e5a3888",
      "function": "approveAggregator(address)",
      "arguments": [
        "0x1b44F3514812d835EB1BDB0acB33d3fA3351Ee43"
      ],
      "transaction": {
        "from": "0x75998e806d0be5b37c5de74acfa0006b3c7dcdff",
        "to": "0x0d5fa506452ead3bbf5f8a1639866ca50e5a3888",
        "gas": "0x8221",
        "value": "0x0",
        "input": "0x6689adde0000000000000000000000001b44f3514812d835eb1bdb0acb33d3fa3351ee43",
        "nonce": "0x79",
        "chainId": "0xaa36a7"
      },
      "additionalContracts": [],
      "isFixedGasLimit": false
    },
    {
      "hash": "0x5ef0da0d1ba7e0f1369fa15ebdf1eee0bebe0c67514c153a11fe59f81a76214b",
      "transactionType": "CALL",
      "contractName": null,
      "contractAddress": "0x89e7fdbd1ea30300719357a1584c28ee34bcb4be",
      "function": "mint(address,uint256)",
      "arguments": [
        "0x0D5Fa506452EAd3BbF5f8A1639866cA50e5a3888",
        "10000000000000000000000"
      ],
      "transaction": {
        "from": "0x75998e806d0be5b37c5de74acfa0006b3c7dcdff",
        "to": "0x89e7fdbd1ea30300719357a1584c28ee34bcb4be",
        "gas": "0xb93e",
        "value": "0x0",
        "input": "0x40c10f190000000000000000000000000d5fa506452ead3bbf5f8a1639866ca50e5a388800000000000000000000000000000000000000000000021e19e0c9bab2400000",
        "nonce": "0x7a",
        "chainId": "0xaa36a7"
      },
      "additionalContracts": [],
      "isFixedGasLimit": false
    },
    {
      "hash": "0x06f4f09ea43c41c3945549a5fce776b4d98d59dd6f580701597b9f581e8373db",
      "transactionType": "CALL",
      "contractName": null,
      "contractAddress": "0x0d5fa506452ead3bbf5f8a1639866ca50e5a3888",
      "function": "addOrder(address,address,uint8,int256,uint256)",
      "arguments": [
        "0x3aF31C01444f14F5761b7205685bc92663d5bDfB",
        "0x1b44F3514812d835EB1BDB0acB33d3fA3351Ee43",
        "0",
        "0",
        "100000000000000000000"
      ],
      "transaction": {
        "from": "0x75998e806d0be5b37c5de74acfa0006b3c7dcdff",
        "to": "0x0d5fa506452ead3bbf5f8a1639866ca50e5a3888",
        "gas": "0x2e077",
        "value": "0x0",
        "input": "0xd1cd871d0000000000000000000000003af31c01444f14f5761b7205685bc92663d5bdfb0000000000000000000000001b44f3514812d835eb1bdb0acb33d3fa3351ee43000000000000000000000000000000000000000000000000000000000000000000000000000000000000000000000000000000000000000000000000000000000000000000000000000000000000000000000000000000056bc75e2d63100000",
        "nonce": "0x7b",
        "chainId": "0xaa36a7"
      },
      "additionalContracts": [],
      "isFixedGasLimit": false
    }
  ],
  "receipts": [
    {
      "status": "0x1",
      "cumulativeGasUsed": "0x126d61b",
      "logs": [],
      "logsBloom": "0x00000000000000000000000000000000000000000000000000000000000000000000000000000000000000000000000000000000000000000000000000000000000000000000000000000000000000000000000000000000000000000000000000000000000000000000000000000000000000000000000000000000000000000000000000000000000000000000000000000000000000000000000000000000000000000000000000000000000000000000000000000000000000000000000000000000000000000000000000000000000000000000000000000000000000000000000000000000000000000000000000000000000000000000000000000000",
      "type": "0x2",
      "transactionHash": "0xccaa5e0d1e952c832806b4d573c809cebff24091621bf05a4d9c4facbba40ad1",
      "transactionIndex": "0x7d",
      "blockHash": "0x550c0a20f7068f011c383933e5c84389dd1f43c7ead5cdefafe87c54bc125dd7",
      "blockNumber": "0x62a4ed",
      "gasUsed": "0x5e37",
      "effectiveGasPrice": "0x5d6770fd",
      "from": "0x75998e806d0be5b37c5de74acfa0006b3c7dcdff",
      "to": "0x0d5fa506452ead3bbf5f8a1639866ca50e5a3888",
      "contractAddress": null
    },
    {
      "status": "0x1",
      "cumulativeGasUsed": "0x1275c39",
      "logs": [
        {
          "address": "0x89e7fdbd1ea30300719357a1584c28ee34bcb4be",
          "topics": [
            "0xddf252ad1be2c89b69c2b068fc378daa952ba7f163c4a11628f55a4df523b3ef",
            "0x0000000000000000000000000000000000000000000000000000000000000000",
            "0x0000000000000000000000000d5fa506452ead3bbf5f8a1639866ca50e5a3888"
          ],
          "data": "0x00000000000000000000000000000000000000000000021e19e0c9bab2400000",
          "blockHash": "0x550c0a20f7068f011c383933e5c84389dd1f43c7ead5cdefafe87c54bc125dd7",
          "blockNumber": "0x62a4ed",
          "transactionHash": "0x5ef0da0d1ba7e0f1369fa15ebdf1eee0bebe0c67514c153a11fe59f81a76214b",
          "transactionIndex": "0x7e",
          "logIndex": "0x104",
          "removed": false
        }
      ],
      "logsBloom": "0x00200000000000000000000000000000000000000000000000000000000000000000000000000000000000000000000100000000000000080000000000000000000000000000000000000008000000000000000000000000000000000000000000000000020000000000400000000800000000000000000000000010000000000000000000000000000000000000000000000000000000000000000000000000000000000000000000000000000000000000000000000000000000000000000000000002000000000000000000000000000000000000000000000000000020000000000000000000000000001000000000000000000000080000000000000000",
      "type": "0x2",
      "transactionHash": "0x5ef0da0d1ba7e0f1369fa15ebdf1eee0bebe0c67514c153a11fe59f81a76214b",
      "transactionIndex": "0x7e",
      "blockHash": "0x550c0a20f7068f011c383933e5c84389dd1f43c7ead5cdefafe87c54bc125dd7",
      "blockNumber": "0x62a4ed",
      "gasUsed": "0x861e",
      "effectiveGasPrice": "0x5d6770fd",
      "from": "0x75998e806d0be5b37c5de74acfa0006b3c7dcdff",
      "to": "0x89e7fdbd1ea30300719357a1584c28ee34bcb4be",
      "contractAddress": null
    },
    {
      "status": "0x1",
      "cumulativeGasUsed": "0x12953ca",
      "logs": [],
      "logsBloom": "0x00000000000000000000000000000000000000000000000000000000000000000000000000000000000000000000000000000000000000000000000000000000000000000000000000000000000000000000000000000000000000000000000000000000000000000000000000000000000000000000000000000000000000000000000000000000000000000000000000000000000000000000000000000000000000000000000000000000000000000000000000000000000000000000000000000000000000000000000000000000000000000000000000000000000000000000000000000000000000000000000000000000000000000000000000000000",
      "type": "0x2",
      "transactionHash": "0x06f4f09ea43c41c3945549a5fce776b4d98d59dd6f580701597b9f581e8373db",
      "transactionIndex": "0x7f",
      "blockHash": "0x550c0a20f7068f011c383933e5c84389dd1f43c7ead5cdefafe87c54bc125dd7",
      "blockNumber": "0x62a4ed",
      "gasUsed": "0x1f791",
      "effectiveGasPrice": "0x5d6770fd",
      "from": "0x75998e806d0be5b37c5de74acfa0006b3c7dcdff",
      "to": "0x0d5fa506452ead3bbf5f8a1639866ca50e5a3888",
      "contractAddress": null
    }
  ],
  "libraries": [],
  "pending": [],
  "returns": {},
  "timestamp": 1723177586,
  "chain": 11155111,
  "commit": "4533426"
}