{
  "transactions": [
    {
      "hash": "0x1fbc8d106f33c10bc26cb39f93ce1c0cc95707de3dac1fb5249f3fab23b4cad8",
      "transactionType": "CREATE",
      "contractName": "MultiTokenKeeper",
      "contractAddress": "0x0f5c50184ef3adf2581fd115a0eb4f3cc7f296a1",
      "function": null,
      "arguments": [
        "0xC532a74256D3Db42D0Bf7a0400fEFDbad7694008",
        "0x89E7fdbd1EA30300719357A1584C28ee34bcB4bE"
      ],
      "transaction": {
        "from": "0x75998e806d0be5b37c5de74acfa0006b3c7dcdff",
        "gas": "0xd8722",
        "value": "0x0",
        "input": "0x6080604052348015600f57600080fd5b50604051610b38380380610b38833981016040819052602c916077565b600280546001600160a01b039384166001600160a01b0319918216179091556001805492909316911617905560a5565b80516001600160a01b0381168114607257600080fd5b919050565b60008060408385031215608957600080fd5b609083605c565b9150609c60208401605c565b90509250929050565b610a84806100b46000396000f3fe608060405234801561001057600080fd5b506004361061007d5760003560e01c8063735de9f71161005b578063735de9f7146100e35780639ab4a4451461010e578063a85c38ef14610121578063d1cd871d1461014657600080fd5b806316345f18146100825780634585e33b146100a85780636e04ff0d146100bd575b600080fd5b61009561009036600461065d565b610159565b6040519081526020015b60405180910390f35b6100bb6100b636600461067f565b6101ca565b005b6100d56100cb36600461067f565b5060019160609150565b60405161009f9291906106f3565b6002546100f6906001600160a01b031681565b6040516001600160a01b03909116815260200161009f565b6001546100f6906001600160a01b031681565b61013461012f36600461074a565b6101f4565b60405161009f96959493929190610779565b6100bb6101543660046107d3565b610250565b600080826001600160a01b031663feaf968c6040518163ffffffff1660e01b815260040160a060405180830381865afa15801561019a573d6000803e3d6000fd5b505050506040513d601f19601f820116820180604052508101906101be9190610848565b50919695505050505050565b6101f0737e29ee6ee5ed4195c797b06f20b0a500ea30a79c670de0b6b3a7640000610474565b5050565b6000818154811061020457600080fd5b6000918252602090912060059091020180546001820154600283015460038401546004909401546001600160a01b0393841695509282169360ff600160a01b9093048316939192169086565b60005b60005481101561036757856001600160a01b03166000828154811061027a5761027a61089a565b60009182526020909120600590910201546001600160a01b03161415806102f457508360018111156102ae576102ae610763565b600082815481106102c1576102c161089a565b906000526020600020906005020160010160149054906101000a900460ff1660018111156102f1576102f1610763565b14155b61035f5760405162461bcd60e51b815260206004820152603260248201527f4f7264657220666f72207468697320746f6b656e20616e64206f72646572207460448201527179706520616c72656164792065786973747360701b606482015260840160405180910390fd5b600101610253565b5060006040518060c00160405280876001600160a01b03168152602001866001600160a01b031681526020018560018111156103a5576103a5610763565b8152602080820186905260006040808401829052606090930186905284546001808201875595825290829020845160059092020180546001600160a01b03199081166001600160a01b0393841617825592850151818701805494851691909316908117835593850151949590949391926001600160a81b03191690911790600160a01b90849081111561043a5761043a610763565b021790555060608201516002820155608082015160038201805460ff191691151591909117905560a0909101516004909101555050505050565b604080516002808252606082018352600092602083019080368337505060015482519293506001600160a01b0316918391506000906104b5576104b561089a565b60200260200101906001600160a01b031690816001600160a01b03168152505082816001815181106104e9576104e961089a565b6001600160a01b03928316602091820292909201015260015460025460405163095ea7b360e01b815290831660048201526024810185905291169063095ea7b3906044016020604051808303816000875af115801561054c573d6000803e3d6000fd5b505050506040513d601f19601f8201168201806040525081019061057091906108c6565b506002546001600160a01b03166338ed1739836000843061059242600f6108e8565b6040518663ffffffff1660e01b81526004016105b295949392919061090f565b6000604051808303816000875af11580156105d1573d6000803e3d6000fd5b505050506040513d6000823e601f3d908101601f191682016040526105f99190810190610981565b50604080516001600160a01b0385168152602081018490527f55c18555197c6574627cf460c66073d10aa05d412468800b7b71feeaf82ea92d910160405180910390a1505050565b80356001600160a01b038116811461065857600080fd5b919050565b60006020828403121561066f57600080fd5b61067882610641565b9392505050565b6000806020838503121561069257600080fd5b823567ffffffffffffffff8111156106a957600080fd5b8301601f810185136106ba57600080fd5b803567ffffffffffffffff8111156106d157600080fd5b8560208284010111156106e357600080fd5b6020919091019590945092505050565b8215158152604060208201526000825180604084015260005b81811015610729576020818601810151606086840101520161070c565b506000606082850101526060601f19601f8301168401019150509392505050565b60006020828403121561075c57600080fd5b5035919050565b634e487b7160e01b600052602160045260246000fd5b6001600160a01b0387811682528616602082015260c08101600286106107af57634e487b7160e01b600052602160045260246000fd5b60408201959095526060810193909352901515608083015260a09091015292915050565b600080600080600060a086880312156107eb57600080fd5b6107f486610641565b945061080260208701610641565b935060408601356002811061081657600080fd5b94979396509394606081013594506080013592915050565b805169ffffffffffffffffffff8116811461065857600080fd5b600080600080600060a0868803121561086057600080fd5b6108698661082e565b6020870151604088015160608901519297509095509350915061088e6080870161082e565b90509295509295909350565b634e487b7160e01b600052603260045260246000fd5b634e487b7160e01b600052604160045260246000fd5b6000602082840312156108d857600080fd5b8151801515811461067857600080fd5b8082018082111561090957634e487b7160e01b600052601160045260246000fd5b92915050565b600060a0820187835286602084015260a0604084015280865180835260c08501915060208801925060005b818110156109615783516001600160a01b031683526020938401939092019160010161093a565b50506001600160a01b039590951660608401525050608001529392505050565b60006020828403121561099357600080fd5b815167ffffffffffffffff8111156109aa57600080fd5b8201601f810184136109bb57600080fd5b805167ffffffffffffffff8111156109d5576109d56108b0565b8060051b604051601f19603f830116810181811067ffffffffffffffff82111715610a0257610a026108b0565b604052918252602081840181019290810187841115610a2057600080fd5b6020850194505b83851015610a4357845180825260209586019590935001610a27565b50969550505050505056fea2646970667358221220824762bcf538bc6ebba050b098bd5c6cc50167f58225f99b758ffac32c400ec864736f6c634300081a0033000000000000000000000000c532a74256d3db42d0bf7a0400fefdbad769400800000000000000000000000089e7fdbd1ea30300719357a1584c28ee34bcb4be",
        "nonce": "0x61",
        "chainId": "0xaa36a7"
      },
      "additionalContracts": [],
      "isFixedGasLimit": false
    },
    {
      "hash": "0xcd45b4af0aec42162d3c14c42854e348ba7ef88c0d16f5b8b2f298a29f614938",
      "transactionType": "CALL",
      "contractName": null,
      "contractAddress": "0x89e7fdbd1ea30300719357a1584c28ee34bcb4be",
      "function": "mint(address,uint256)",
      "arguments": [
        "0x0f5C50184EF3ADF2581fd115A0eB4f3cC7F296A1",
        "10000000000000000000000"
      ],
      "transaction": {
        "from": "0x75998e806d0be5b37c5de74acfa0006b3c7dcdff",
        "to": "0x89e7fdbd1ea30300719357a1584c28ee34bcb4be",
        "gas": "0x125d5",
        "value": "0x0",
        "input": "0x40c10f190000000000000000000000000f5c50184ef3adf2581fd115a0eb4f3cc7f296a100000000000000000000000000000000000000000000021e19e0c9bab2400000",
        "nonce": "0x62",
        "chainId": "0xaa36a7"
      },
      "additionalContracts": [],
      "isFixedGasLimit": false
    },
    {
      "hash": "0x49817f193ef185efe0d61988a531ef765bce9ff2ee9fee3a4a8c7e6ae63123d1",
      "transactionType": "CALL",
      "contractName": "MultiTokenKeeper",
      "contractAddress": "0x0f5c50184ef3adf2581fd115a0eb4f3cc7f296a1",
      "function": "addOrder(address,address,uint8,int256,uint256)",
      "arguments": [
        "0x7E29ee6eE5Ed4195C797B06f20b0a500eA30a79C",
        "0x7E29ee6eE5Ed4195C797B06f20b0a500eA30a79C",
        "0",
        "0",
        "100000000000000000000"
      ],
      "transaction": {
        "from": "0x75998e806d0be5b37c5de74acfa0006b3c7dcdff",
        "to": "0x0f5c50184ef3adf2581fd115a0eb4f3cc7f296a1",
        "gas": "0x2748b",
        "value": "0x0",
        "input": "0xd1cd871d0000000000000000000000007e29ee6ee5ed4195c797b06f20b0a500ea30a79c0000000000000000000000007e29ee6ee5ed4195c797b06f20b0a500ea30a79c000000000000000000000000000000000000000000000000000000000000000000000000000000000000000000000000000000000000000000000000000000000000000000000000000000000000000000000000000000056bc75e2d63100000",
        "nonce": "0x63",
        "chainId": "0xaa36a7"
      },
      "additionalContracts": [],
      "isFixedGasLimit": false
    }
  ],
  "receipts": [
    {
      "status": "0x1",
      "cumulativeGasUsed": "0x82f32a",
      "logs": [],
      "logsBloom": "0x00000000000000000000000000000000000000000000000000000000000000000000000000000000000000000000000000000000000000000000000000000000000000000000000000000000000000000000000000000000000000000000000000000000000000000000000000000000000000000000000000000000000000000000000000000000000000000000000000000000000000000000000000000000000000000000000000000000000000000000000000000000000000000000000000000000000000000000000000000000000000000000000000000000000000000000000000000000000000000000000000000000000000000000000000000000",
      "type": "0x2",
      "transactionHash": "0x1fbc8d106f33c10bc26cb39f93ce1c0cc95707de3dac1fb5249f3fab23b4cad8",
      "transactionIndex": "0x43",
      "blockHash": "0x86a0e9d0805f2cb8a978a0b845ec33cd12c51c442a4d4e61753561d282235811",
      "blockNumber": "0x62933e",
      "gasUsed": "0xa68ab",
      "effectiveGasPrice": "0x1f88e1753",
      "from": "0x75998e806d0be5b37c5de74acfa0006b3c7dcdff",
      "to": null,
      "contractAddress": "0x0f5c50184ef3adf2581fd115a0eb4f3cc7f296a1"
    },
    {
      "status": "0x1",
      "cumulativeGasUsed": "0x83bc14",
      "logs": [
        {
          "address": "0x89e7fdbd1ea30300719357a1584c28ee34bcb4be",
          "topics": [
            "0xddf252ad1be2c89b69c2b068fc378daa952ba7f163c4a11628f55a4df523b3ef",
            "0x0000000000000000000000000000000000000000000000000000000000000000",
            "0x0000000000000000000000000f5c50184ef3adf2581fd115a0eb4f3cc7f296a1"
          ],
          "data": "0x00000000000000000000000000000000000000000000021e19e0c9bab2400000",
          "blockHash": "0x86a0e9d0805f2cb8a978a0b845ec33cd12c51c442a4d4e61753561d282235811",
          "blockNumber": "0x62933e",
          "transactionHash": "0xcd45b4af0aec42162d3c14c42854e348ba7ef88c0d16f5b8b2f298a29f614938",
          "transactionIndex": "0x44",
          "logIndex": "0x86",
          "removed": false
        }
      ],
      "logsBloom": "0x00200000000000000000000000000000000000040000000000000000000000000000000000000000000000000000000000000000000000080000000000000000000000000000000000000008000000000000000000000000000000000000000000000000020000000000000000000800000000000000000000000010000000000000000000000000000000000000000000000000000000000000000000000000000000000000000000000000000000000000000000000000000000000000000000000002000000000000000000000000000000000000000000000000000020000000000000000000000000001080000000000000000800000000000000000000",
      "type": "0x2",
      "transactionHash": "0xcd45b4af0aec42162d3c14c42854e348ba7ef88c0d16f5b8b2f298a29f614938",
      "transactionIndex": "0x44",
      "blockHash": "0x86a0e9d0805f2cb8a978a0b845ec33cd12c51c442a4d4e61753561d282235811",
      "blockNumber": "0x62933e",
      "gasUsed": "0xc8ea",
      "effectiveGasPrice": "0x1f88e1753",
      "from": "0x75998e806d0be5b37c5de74acfa0006b3c7dcdff",
      "to": "0x89e7fdbd1ea30300719357a1584c28ee34bcb4be",
      "contractAddress": null
    },
    {
      "status": "0x1",
      "cumulativeGasUsed": "0x858323",
      "logs": [],
      "logsBloom": "0x00000000000000000000000000000000000000000000000000000000000000000000000000000000000000000000000000000000000000000000000000000000000000000000000000000000000000000000000000000000000000000000000000000000000000000000000000000000000000000000000000000000000000000000000000000000000000000000000000000000000000000000000000000000000000000000000000000000000000000000000000000000000000000000000000000000000000000000000000000000000000000000000000000000000000000000000000000000000000000000000000000000000000000000000000000000",
      "type": "0x2",
      "transactionHash": "0x49817f193ef185efe0d61988a531ef765bce9ff2ee9fee3a4a8c7e6ae63123d1",
      "transactionIndex": "0x45",
      "blockHash": "0x86a0e9d0805f2cb8a978a0b845ec33cd12c51c442a4d4e61753561d282235811",
      "blockNumber": "0x62933e",
      "gasUsed": "0x1c70f",
      "effectiveGasPrice": "0x1f88e1753",
      "from": "0x75998e806d0be5b37c5de74acfa0006b3c7dcdff",
      "to": "0x0f5c50184ef3adf2581fd115a0eb4f3cc7f296a1",
      "contractAddress": null
    }
  ],
  "libraries": [],
  "pending": [],
  "returns": {},
  "timestamp": 1723114818,
  "chain": 11155111,
  "commit": "84b1ee4"
}