{
  "transactions": [
    {
      "hash": "0xd154ee1631d1cb2912aaeb7dfae75bb39be71d6f985099dcdeb64f4ed3db1c57",
      "transactionType": "CALL",
      "contractName": null,
      "contractAddress": "0x0d5fa506452ead3bbf5f8a1639866ca50e5a3888",
      "function": "approveAggregator(address)",
      "arguments": [
        "0x1b44F3514812d835EB1BDB0acB33d3fA3351Ee43"
      ],
      "transaction": {
        "from": "0x75998e806d0be5b37c5de74acfa0006b3c7dcdff",
        "to": "0x0d5fa506452ead3bbf5f8a1639866ca50e5a3888",
        "gas": "0x8221",
        "value": "0x0",
        "input": "0x6689adde0000000000000000000000001b44f3514812d835eb1bdb0acb33d3fa3351ee43",
        "nonce": "0x74",
        "chainId": "0xaa36a7"
      },
      "additionalContracts": [],
      "isFixedGasLimit": false
    },
    {
      "hash": "0x5631edb2b4dae133429925ac0b094a5f4e6506d2faa822790c9b2e01d1035231",
      "transactionType": "CALL",
      "contractName": null,
      "contractAddress": "0x89e7fdbd1ea30300719357a1584c28ee34bcb4be",
      "function": "mint(address,uint256)",
      "arguments": [
        "0x0D5Fa506452EAd3BbF5f8A1639866cA50e5a3888",
        "10000000000000000000000"
      ],
      "transaction": {
        "from": "0x75998e806d0be5b37c5de74acfa0006b3c7dcdff",
        "to": "0x89e7fdbd1ea30300719357a1584c28ee34bcb4be",
        "gas": "0xb93e",
        "value": "0x0",
        "input": "0x40c10f190000000000000000000000000d5fa506452ead3bbf5f8a1639866ca50e5a388800000000000000000000000000000000000000000000021e19e0c9bab2400000",
        "nonce": "0x75",
        "chainId": "0xaa36a7"
      },
      "additionalContracts": [],
      "isFixedGasLimit": false
    },
    {
      "hash": "0xe8ca1d5c29d46c9ead962227105d75d64009e847ca48106a8a5fb4ed8e14e806",
      "transactionType": "CALL",
      "contractName": null,
      "contractAddress": "0x0d5fa506452ead3bbf5f8a1639866ca50e5a3888",
      "function": "addOrder(address,address,uint8,int256,uint256)",
      "arguments": [
        "0x3aF31C01444f14F5761b7205685bc92663d5bDfB",
        "0x1b44F3514812d835EB1BDB0acB33d3fA3351Ee43",
        "0",
        "0",
        "100000000000000000000"
      ],
      "transaction": {
        "from": "0x75998e806d0be5b37c5de74acfa0006b3c7dcdff",
        "to": "0x0d5fa506452ead3bbf5f8a1639866ca50e5a3888",
        "gas": "0x2e077",
        "value": "0x0",
        "input": "0xd1cd871d0000000000000000000000003af31c01444f14f5761b7205685bc92663d5bdfb0000000000000000000000001b44f3514812d835eb1bdb0acb33d3fa3351ee43000000000000000000000000000000000000000000000000000000000000000000000000000000000000000000000000000000000000000000000000000000000000000000000000000000000000000000000000000000056bc75e2d63100000",
        "nonce": "0x76",
        "chainId": "0xaa36a7"
      },
      "additionalContracts": [],
      "isFixedGasLimit": false
    }
  ],
  "receipts": [
    {
      "status": "0x1",
      "cumulativeGasUsed": "0x100596d",
      "logs": [],
      "logsBloom": "0x00000000000000000000000000000000000000000000000000000000000000000000000000000000000000000000000000000000000000000000000000000000000000000000000000000000000000000000000000000000000000000000000000000000000000000000000000000000000000000000000000000000000000000000000000000000000000000000000000000000000000000000000000000000000000000000000000000000000000000000000000000000000000000000000000000000000000000000000000000000000000000000000000000000000000000000000000000000000000000000000000000000000000000000000000000000",
      "type": "0x2",
      "transactionHash": "0xd154ee1631d1cb2912aaeb7dfae75bb39be71d6f985099dcdeb64f4ed3db1c57",
      "transactionIndex": "0x70",
      "blockHash": "0x922c67ce4507f60938ddc8cf857d5d83dfa56fe40662f87868f6b073b4a05110",
      "blockNumber": "0x6293f6",
      "gasUsed": "0x5e37",
      "effectiveGasPrice": "0x1a0193687",
      "from": "0x75998e806d0be5b37c5de74acfa0006b3c7dcdff",
      "to": "0x0d5fa506452ead3bbf5f8a1639866ca50e5a3888",
      "contractAddress": null
    },
    {
      "status": "0x1",
      "cumulativeGasUsed": "0x100df8b",
      "logs": [
        {
          "address": "0x89e7fdbd1ea30300719357a1584c28ee34bcb4be",
          "topics": [
            "0xddf252ad1be2c89b69c2b068fc378daa952ba7f163c4a11628f55a4df523b3ef",
            "0x0000000000000000000000000000000000000000000000000000000000000000",
            "0x0000000000000000000000000d5fa506452ead3bbf5f8a1639866ca50e5a3888"
          ],
          "data": "0x00000000000000000000000000000000000000000000021e19e0c9bab2400000",
          "blockHash": "0x922c67ce4507f60938ddc8cf857d5d83dfa56fe40662f87868f6b073b4a05110",
          "blockNumber": "0x6293f6",
          "transactionHash": "0x5631edb2b4dae133429925ac0b094a5f4e6506d2faa822790c9b2e01d1035231",
          "transactionIndex": "0x71",
          "logIndex": "0xe0",
          "removed": false
        }
      ],
      "logsBloom": "0x00200000000000000000000000000000000000000000000000000000000000000000000000000000000000000000000100000000000000080000000000000000000000000000000000000008000000000000000000000000000000000000000000000000020000000000400000000800000000000000000000000010000000000000000000000000000000000000000000000000000000000000000000000000000000000000000000000000000000000000000000000000000000000000000000000002000000000000000000000000000000000000000000000000000020000000000000000000000000001000000000000000000000080000000000000000",
      "type": "0x2",
      "transactionHash": "0x5631edb2b4dae133429925ac0b094a5f4e6506d2faa822790c9b2e01d1035231",
      "transactionIndex": "0x71",
      "blockHash": "0x922c67ce4507f60938ddc8cf857d5d83dfa56fe40662f87868f6b073b4a05110",
      "blockNumber": "0x6293f6",
      "gasUsed": "0x861e",
      "effectiveGasPrice": "0x1a0193687",
      "from": "0x75998e806d0be5b37c5de74acfa0006b3c7dcdff",
      "to": "0x89e7fdbd1ea30300719357a1584c28ee34bcb4be",
      "contractAddress": null
    },
    {
      "status": "0x1",
      "cumulativeGasUsed": "0xa5c420",
      "logs": [],
      "logsBloom": "0x00000000000000000000000000000000000000000000000000000000000000000000000000000000000000000000000000000000000000000000000000000000000000000000000000000000000000000000000000000000000000000000000000000000000000000000000000000000000000000000000000000000000000000000000000000000000000000000000000000000000000000000000000000000000000000000000000000000000000000000000000000000000000000000000000000000000000000000000000000000000000000000000000000000000000000000000000000000000000000000000000000000000000000000000000000000",
      "type": "0x2",
      "transactionHash": "0xe8ca1d5c29d46c9ead962227105d75d64009e847ca48106a8a5fb4ed8e14e806",
      "transactionIndex": "0x42",
      "blockHash": "0xffe8af7732b8434ca7ef98a56adfe4c2701d43c7ea1dc674d6ddef735e2197f1",
      "blockNumber": "0x6293f7",
      "gasUsed": "0x1f791",
      "effectiveGasPrice": "0x1cca69cdc",
      "from": "0x75998e806d0be5b37c5de74acfa0006b3c7dcdff",
      "to": "0x0d5fa506452ead3bbf5f8a1639866ca50e5a3888",
      "contractAddress": null
    }
  ],
  "libraries": [],
  "pending": [],
  "returns": {},
  "timestamp": 1723117407,
  "chain": 11155111,
  "commit": "84b1ee4"
}