{
  "transactions": [
    {
      "hash": "0xe9bb602b61662818c77b3633846f992adf8ca75eb06c4e734212dbb7984ee913",
      "transactionType": "CREATE",
      "contractName": "MultiTokenKeeper",
      "contractAddress": "0x4985797e68dd69fe0fccd32f2a23457235ede021",
      "function": null,
      "arguments": [
        "0xC532a74256D3Db42D0Bf7a0400fEFDbad7694008",
        "0x89E7fdbd1EA30300719357A1584C28ee34bcB4bE"
      ],
      "transaction": {
        "from": "0x75998e806d0be5b37c5de74acfa0006b3c7dcdff",
        "gas": "0xf32ef",
        "value": "0x0",
        "input": "0x6080604052348015600f57600080fd5b50604051610cbe380380610cbe833981016040819052602c916077565b600280546001600160a01b039384166001600160a01b0319918216179091556001805492909316911617905560a5565b80516001600160a01b0381168114607257600080fd5b919050565b60008060408385031215608957600080fd5b609083605c565b9150609c60208401605c565b90509250929050565b610c0a806100b46000396000f3fe608060405234801561001057600080fd5b506004361061007d5760003560e01c8063735de9f71161005b578063735de9f7146100de5780639ab4a44514610109578063a85c38ef1461011c578063d1cd871d1461014157600080fd5b806316345f18146100825780634585e33b146100a85780636e04ff0d146100bd575b600080fd5b6100956100903660046106ba565b610154565b6040519081526020015b60405180910390f35b6100bb6100b63660046106dc565b6101c5565b005b6100d06100cb3660046106dc565b6101f3565b60405161009f929190610750565b6002546100f1906001600160a01b031681565b6040516001600160a01b03909116815260200161009f565b6001546100f1906001600160a01b031681565b61012f61012a3660046107a7565b610251565b60405161009f969594939291906107f8565b6100bb61014f366004610849565b6102ad565b600080826001600160a01b031663feaf968c6040518163ffffffff1660e01b815260040160a060405180830381865afa158015610195573d6000803e3d6000fd5b505050506040513d601f19601f820116820180604052508101906101b991906108b8565b50919695505050505050565b60006101d382840184610962565b90506101e781600001518260a001516104d1565b60016080909101525050565b6000606081600054811015610249576001925060008181548110610219576102196109f9565b90600052602060002090600502016040516020016102379190610a0f565b60405160208183030381529060405291505b509250929050565b6000818154811061026157600080fd5b6000918252602090912060059091020180546001820154600283015460038401546004909401546001600160a01b0393841695509282169360ff600160a01b9093048316939192169086565b60005b6000548110156103c457856001600160a01b0316600082815481106102d7576102d76109f9565b60009182526020909120600590910201546001600160a01b0316141580610351575083600181111561030b5761030b6107c0565b6000828154811061031e5761031e6109f9565b906000526020600020906005020160010160149054906101000a900460ff16600181111561034e5761034e6107c0565b14155b6103bc5760405162461bcd60e51b815260206004820152603260248201527f4f7264657220666f72207468697320746f6b656e20616e64206f72646572207460448201527179706520616c72656164792065786973747360701b606482015260840160405180910390fd5b6001016102b0565b5060006040518060c00160405280876001600160a01b03168152602001866001600160a01b03168152602001856001811115610402576104026107c0565b8152602080820186905260006040808401829052606090930186905284546001808201875595825290829020845160059092020180546001600160a01b03199081166001600160a01b0393841617825592850151818701805494851691909316908117835593850151949590949391926001600160a81b03191690911790600160a01b908490811115610497576104976107c0565b021790555060608201516002820155608082015160038201805460ff191691151591909117905560a0909101516004909101555050505050565b604080516002808252606082018352600092602083019080368337505060015482519293506001600160a01b031691839150600090610512576105126109f9565b60200260200101906001600160a01b031690816001600160a01b0316815250508281600181518110610546576105466109f9565b6001600160a01b03928316602091820292909201015260015460025460405163095ea7b360e01b815290831660048201526024810185905291169063095ea7b3906044016020604051808303816000875af11580156105a9573d6000803e3d6000fd5b505050506040513d601f19601f820116820180604052508101906105cd9190610a6d565b506002546001600160a01b03166338ed173983600084306105ef42600f610a8a565b6040518663ffffffff1660e01b815260040161060f959493929190610ab1565b6000604051808303816000875af115801561062e573d6000803e3d6000fd5b505050506040513d6000823e601f3d908101601f191682016040526106569190810190610b23565b50604080516001600160a01b0385168152602081018490527f55c18555197c6574627cf460c66073d10aa05d412468800b7b71feeaf82ea92d910160405180910390a1505050565b80356001600160a01b03811681146106b557600080fd5b919050565b6000602082840312156106cc57600080fd5b6106d58261069e565b9392505050565b600080602083850312156106ef57600080fd5b823567ffffffffffffffff81111561070657600080fd5b8301601f8101851361071757600080fd5b803567ffffffffffffffff81111561072e57600080fd5b85602082840101111561074057600080fd5b6020919091019590945092505050565b8215158152604060208201526000825180604084015260005b818110156107865760208186018101516060868401015201610769565b506000606082850101526060601f19601f8301168401019150509392505050565b6000602082840312156107b957600080fd5b5035919050565b634e487b7160e01b600052602160045260246000fd5b600281106107f457634e487b7160e01b600052602160045260246000fd5b9052565b6001600160a01b0387811682528616602082015260c0810161081d60408301876107d6565b6060820194909452911515608083015260a0909101529392505050565b8035600281106106b557600080fd5b600080600080600060a0868803121561086157600080fd5b61086a8661069e565b94506108786020870161069e565b93506108866040870161083a565b94979396509394606081013594506080013592915050565b805169ffffffffffffffffffff811681146106b557600080fd5b600080600080600060a086880312156108d057600080fd5b6108d98661089e565b602087015160408801516060890151929750909550935091506108fe6080870161089e565b90509295509295909350565b634e487b7160e01b600052604160045260246000fd5b604051601f8201601f1916810167ffffffffffffffff811182821017156109495761094961090a565b604052919050565b801515811461095f57600080fd5b50565b600060c082840312801561097557600080fd5b5060405160c0810167ffffffffffffffff811182821017156109995761099961090a565b6040526109a58361069e565b81526109b36020840161069e565b60208201526109c46040840161083a565b60408201526060838101359082015260808301356109e181610951565b608082015260a0928301359281019290925250919050565b634e487b7160e01b600052603260045260246000fd5b81546001600160a01b0390811682526001830154908116602083015260c0820190610a446040840160a083901c60ff166107d6565b5060028301546060830152600383015460ff161515608083015260049092015460a09091015290565b600060208284031215610a7f57600080fd5b81516106d581610951565b80820180821115610aab57634e487b7160e01b600052601160045260246000fd5b92915050565b600060a0820187835286602084015260a0604084015280865180835260c08501915060208801925060005b81811015610b035783516001600160a01b0316835260209384019390920191600101610adc565b50506001600160a01b039590951660608401525050608001529392505050565b600060208284031215610b3557600080fd5b815167ffffffffffffffff811115610b4c57600080fd5b8201601f81018413610b5d57600080fd5b805167ffffffffffffffff811115610b7757610b7761090a565b8060051b610b8760208201610920565b91825260208184018101929081019087841115610ba357600080fd5b6020850194505b83851015610bc957845180835260209586019590935090910190610baa565b97965050505050505056fea26469706673582212201d470d167d1260e7ad29ac4ee9bd04ec32b31baf17b8145aa44903e4078232e264736f6c634300081a0033000000000000000000000000c532a74256d3db42d0bf7a0400fefdbad769400800000000000000000000000089e7fdbd1ea30300719357a1584c28ee34bcb4be",
        "nonce": "0x65",
        "chainId": "0xaa36a7"
      },
      "additionalContracts": [],
      "isFixedGasLimit": false
    },
    {
      "hash": "0x47c2715a545efe8a20766952077003de752b4d562f4c17b598a23862c05b5a89",
      "transactionType": "CALL",
      "contractName": null,
      "contractAddress": "0x89e7fdbd1ea30300719357a1584c28ee34bcb4be",
      "function": "mint(address,uint256)",
      "arguments": [
        "0x4985797e68Dd69fE0FccD32f2a23457235EDE021",
        "10000000000000000000000"
      ],
      "transaction": {
        "from": "0x75998e806d0be5b37c5de74acfa0006b3c7dcdff",
        "to": "0x89e7fdbd1ea30300719357a1584c28ee34bcb4be",
        "gas": "0x125d5",
        "value": "0x0",
        "input": "0x40c10f190000000000000000000000004985797e68dd69fe0fccd32f2a23457235ede02100000000000000000000000000000000000000000000021e19e0c9bab2400000",
        "nonce": "0x66",
        "chainId": "0xaa36a7"
      },
      "additionalContracts": [],
      "isFixedGasLimit": false
    },
    {
      "hash": "0x0a683987632c78c81e674e14607b2a5fb3a2165c0f0f7223f3b67a16a7b614d7",
      "transactionType": "CALL",
      "contractName": "MultiTokenKeeper",
      "contractAddress": "0x4985797e68dd69fe0fccd32f2a23457235ede021",
      "function": "addOrder(address,address,uint8,int256,uint256)",
      "arguments": [
        "0x7E29ee6eE5Ed4195C797B06f20b0a500eA30a79C",
        "0x7E29ee6eE5Ed4195C797B06f20b0a500eA30a79C",
        "0",
        "0",
        "100000000000000000000"
      ],
      "transaction": {
        "from": "0x75998e806d0be5b37c5de74acfa0006b3c7dcdff",
        "to": "0x4985797e68dd69fe0fccd32f2a23457235ede021",
        "gas": "0x299b8",
        "value": "0x0",
        "input": "0xd1cd871d0000000000000000000000007e29ee6ee5ed4195c797b06f20b0a500ea30a79c0000000000000000000000007e29ee6ee5ed4195c797b06f20b0a500ea30a79c000000000000000000000000000000000000000000000000000000000000000000000000000000000000000000000000000000000000000000000000000000000000000000000000000000000000000000000000000000056bc75e2d63100000",
        "nonce": "0x67",
        "chainId": "0xaa36a7"
      },
      "additionalContracts": [],
      "isFixedGasLimit": false
    }
  ],
  "receipts": [
    {
      "status": "0x1",
      "cumulativeGasUsed": "0x9d00cc",
      "logs": [],
      "logsBloom": "0x00000000000000000000000000000000000000000000000000000000000000000000000000000000000000000000000000000000000000000000000000000000000000000000000000000000000000000000000000000000000000000000000000000000000000000000000000000000000000000000000000000000000000000000000000000000000000000000000000000000000000000000000000000000000000000000000000000000000000000000000000000000000000000000000000000000000000000000000000000000000000000000000000000000000000000000000000000000000000000000000000000000000000000000000000000000",
      "type": "0x2",
      "transactionHash": "0xe9bb602b61662818c77b3633846f992adf8ca75eb06c4e734212dbb7984ee913",
      "transactionIndex": "0x31",
      "blockHash": "0x5b1993cbc39deaf39610773524d9d12d937ecba627364564f753f9aefd7359ad",
      "blockNumber": "0x629353",
      "gasUsed": "0xbb1d7",
      "effectiveGasPrice": "0x235965b89",
      "from": "0x75998e806d0be5b37c5de74acfa0006b3c7dcdff",
      "to": null,
      "contractAddress": "0x4985797e68dd69fe0fccd32f2a23457235ede021"
    },
    {
      "status": "0x1",
      "cumulativeGasUsed": "0x9dc9b6",
      "logs": [
        {
          "address": "0x89e7fdbd1ea30300719357a1584c28ee34bcb4be",
          "topics": [
            "0xddf252ad1be2c89b69c2b068fc378daa952ba7f163c4a11628f55a4df523b3ef",
            "0x0000000000000000000000000000000000000000000000000000000000000000",
            "0x0000000000000000000000004985797e68dd69fe0fccd32f2a23457235ede021"
          ],
          "data": "0x00000000000000000000000000000000000000000000021e19e0c9bab2400000",
          "blockHash": "0x5b1993cbc39deaf39610773524d9d12d937ecba627364564f753f9aefd7359ad",
          "blockNumber": "0x629353",
          "transactionHash": "0x47c2715a545efe8a20766952077003de752b4d562f4c17b598a23862c05b5a89",
          "transactionIndex": "0x32",
          "logIndex": "0x85",
          "removed": false
        }
      ],
      "logsBloom": "0x00200000000000000000000000000000000000000000000000000000000000000000000000000000000000000000008001000000000000080000000000000000000000000000000000000008000000000000000000000000000000000000000000000000020008000000000000000800000000000000000000000010000000000000000000000000000000000000000000000000000000000000000000000000000000000000000000000000000000000000000000000000000000000000000000000002000000000000000000000000000000000000000000000000000020000000000000000000000000001000000000000000000000000000000000000000",
      "type": "0x2",
      "transactionHash": "0x47c2715a545efe8a20766952077003de752b4d562f4c17b598a23862c05b5a89",
      "transactionIndex": "0x32",
      "blockHash": "0x5b1993cbc39deaf39610773524d9d12d937ecba627364564f753f9aefd7359ad",
      "blockNumber": "0x629353",
      "gasUsed": "0xc8ea",
      "effectiveGasPrice": "0x235965b89",
      "from": "0x75998e806d0be5b37c5de74acfa0006b3c7dcdff",
      "to": "0x89e7fdbd1ea30300719357a1584c28ee34bcb4be",
      "contractAddress": null
    },
    {
      "status": "0x1",
      "cumulativeGasUsed": "0x9f90e8",
      "logs": [],
      "logsBloom": "0x00000000000000000000000000000000000000000000000000000000000000000000000000000000000000000000000000000000000000000000000000000000000000000000000000000000000000000000000000000000000000000000000000000000000000000000000000000000000000000000000000000000000000000000000000000000000000000000000000000000000000000000000000000000000000000000000000000000000000000000000000000000000000000000000000000000000000000000000000000000000000000000000000000000000000000000000000000000000000000000000000000000000000000000000000000000",
      "type": "0x2",
      "transactionHash": "0x0a683987632c78c81e674e14607b2a5fb3a2165c0f0f7223f3b67a16a7b614d7",
      "transactionIndex": "0x33",
      "blockHash": "0x5b1993cbc39deaf39610773524d9d12d937ecba627364564f753f9aefd7359ad",
      "blockNumber": "0x629353",
      "gasUsed": "0x1c732",
      "effectiveGasPrice": "0x235965b89",
      "from": "0x75998e806d0be5b37c5de74acfa0006b3c7dcdff",
      "to": "0x4985797e68dd69fe0fccd32f2a23457235ede021",
      "contractAddress": null
    }
  ],
  "libraries": [],
  "pending": [],
  "returns": {},
  "timestamp": 1723115128,
  "chain": 11155111,
  "commit": "84b1ee4"
}