{
  "transactions": [
    {
      "hash": "0x37a2ca9baab765f19f01c398e3bf0e01cc9e3e40c1984f03d043cd73e137e056",
      "transactionType": "CALL",
      "contractName": null,
      "contractAddress": "0x89e7fdbd1ea30300719357a1584c28ee34bcb4be",
      "function": "mint(address,uint256)",
      "arguments": [
        "0x7243D5C456491e2206E22c803602704f3a8409d1",
        "10000000000000000000000"
      ],
      "transaction": {
        "from": "0x75998e806d0be5b37c5de74acfa0006b3c7dcdff",
        "to": "0x89e7fdbd1ea30300719357a1584c28ee34bcb4be",
        "gas": "0xb93e",
        "value": "0x0",
        "input": "0x40c10f190000000000000000000000007243d5c456491e2206e22c803602704f3a8409d100000000000000000000000000000000000000000000021e19e0c9bab2400000",
        "nonce": "0x5b",
        "chainId": "0xaa36a7"
      },
      "additionalContracts": [],
      "isFixedGasLimit": false
    },
    {
      "hash": "0x05a11fc2c5619fee9c30a6b4fae737c6e2aedfc669847c17e0f73cf7e78086ff",
      "transactionType": "CALL",
      "contractName": null,
      "contractAddress": "0x7243d5c456491e2206e22c803602704f3a8409d1",
      "function": "addOrder(address,address,uint8,int256,uint256)",
      "arguments": [
        "0x7E29ee6eE5Ed4195C797B06f20b0a500eA30a79C",
        "0x7E29ee6eE5Ed4195C797B06f20b0a500eA30a79C",
        "0",
        "0",
        "100000000000000000000"
      ],
      "transaction": {
        "from": "0x75998e806d0be5b37c5de74acfa0006b3c7dcdff",
        "to": "0x7243d5c456491e2206e22c803602704f3a8409d1",
        "gas": "0x299b8",
        "value": "0x0",
        "input": "0xd1cd871d0000000000000000000000007e29ee6ee5ed4195c797b06f20b0a500ea30a79c0000000000000000000000007e29ee6ee5ed4195c797b06f20b0a500ea30a79c000000000000000000000000000000000000000000000000000000000000000000000000000000000000000000000000000000000000000000000000000000000000000000000000000000000000000000000000000000056bc75e2d63100000",
        "nonce": "0x5c",
        "chainId": "0xaa36a7"
      },
      "additionalContracts": [],
      "isFixedGasLimit": false
    }
  ],
  "receipts": [
    {
      "status": "0x1",
      "cumulativeGasUsed": "0xf7c545",
      "logs": [
        {
          "address": "0x89e7fdbd1ea30300719357a1584c28ee34bcb4be",
          "topics": [
            "0xddf252ad1be2c89b69c2b068fc378daa952ba7f163c4a11628f55a4df523b3ef",
            "0x0000000000000000000000000000000000000000000000000000000000000000",
            "0x0000000000000000000000007243d5c456491e2206e22c803602704f3a8409d1"
          ],
          "data": "0x00000000000000000000000000000000000000000000021e19e0c9bab2400000",
          "blockHash": "0xc8096980897dbe11b49886ba3ea3767ae06dfa478be81591625e278a57fd8647",
          "blockNumber": "0x6292fe",
          "transactionHash": "0x37a2ca9baab765f19f01c398e3bf0e01cc9e3e40c1984f03d043cd73e137e056",
          "transactionIndex": "0x34",
          "logIndex": "0x74",
          "removed": false
        }
      ],
      "logsBloom": "0x00200000000000000000000000000000000000000000000000000000000000000000000000040000000000000000000000000000000000080000000000000000000000000000000000000008000000000000000000000000000000000000000000000000020000000000000000000800000000000000000000000010000000000000000000000000000000000000000000000000000000000000000000000000000000000400000000000000000000000000000000000000000000000000000000000002000000000000000000000000000020000000000000000000000020000000000000000000000000001000000000000000000000000000000000000000",
      "type": "0x2",
      "transactionHash": "0x37a2ca9baab765f19f01c398e3bf0e01cc9e3e40c1984f03d043cd73e137e056",
      "transactionIndex": "0x34",
      "blockHash": "0xc8096980897dbe11b49886ba3ea3767ae06dfa478be81591625e278a57fd8647",
      "blockNumber": "0x6292fe",
      "gasUsed": "0x861e",
      "effectiveGasPrice": "0x2482d1844",
      "from": "0x75998e806d0be5b37c5de74acfa0006b3c7dcdff",
      "to": "0x89e7fdbd1ea30300719357a1584c28ee34bcb4be",
      "contractAddress": null
    },
    {
      "status": "0x1",
      "cumulativeGasUsed": "0xf9f707",
      "logs": [],
      "logsBloom": "0x00000000000000000000000000000000000000000000000000000000000000000000000000000000000000000000000000000000000000000000000000000000000000000000000000000000000000000000000000000000000000000000000000000000000000000000000000000000000000000000000000000000000000000000000000000000000000000000000000000000000000000000000000000000000000000000000000000000000000000000000000000000000000000000000000000000000000000000000000000000000000000000000000000000000000000000000000000000000000000000000000000000000000000000000000000000",
      "type": "0x2",
      "transactionHash": "0x05a11fc2c5619fee9c30a6b4fae737c6e2aedfc669847c17e0f73cf7e78086ff",
      "transactionIndex": "0x36",
      "blockHash": "0xc8096980897dbe11b49886ba3ea3767ae06dfa478be81591625e278a57fd8647",
      "blockNumber": "0x6292fe",
      "gasUsed": "0x1c732",
      "effectiveGasPrice": "0x2482d1844",
      "from": "0x75998e806d0be5b37c5de74acfa0006b3c7dcdff",
      "to": "0x7243d5c456491e2206e22c803602704f3a8409d1",
      "contractAddress": null
    }
  ],
  "libraries": [],
  "pending": [],
  "returns": {},
  "timestamp": 1723113918,
  "chain": 11155111,
  "commit": "84b1ee4"
}