{
  "transactions": [
    {
      "hash": "0x22c7153eb857e8810d2bbde8e5290112dc3b86cd40e8b3a7b6a676a9b0a5f225",
      "transactionType": "CREATE",
      "contractName": "MultiTokenKeeper",
      "contractAddress": "0x45b43bfcbc460309a6d685946ebc36c99998c0a0",
      "function": null,
      "arguments": [
        "0xC532a74256D3Db42D0Bf7a0400fEFDbad7694008",
        "0x89E7fdbd1EA30300719357A1584C28ee34bcB4bE"
      ],
      "transaction": {
        "from": "0x75998e806d0be5b37c5de74acfa0006b3c7dcdff",
        "gas": "0x13d90f",
        "value": "0x0",
        "input": "0x6080604052348015600f57600080fd5b506040516110fc3803806110fc833981016040819052602c916077565b600280546001600160a01b039384166001600160a01b0319918216179091556001805492909316911617905560a5565b80516001600160a01b0381168114607257600080fd5b919050565b60008060408385031215608957600080fd5b609083605c565b9150609c60208401605c565b90509250929050565b611048806100b46000396000f3fe608060405234801561001057600080fd5b50600436106100885760003560e01c8063735de9f71161005b578063735de9f7146100fc5780639ab4a44514610127578063a85c38ef1461013a578063d1cd871d1461015f57600080fd5b806316345f181461008d5780634585e33b146100b357806368f8fc10146100c85780636e04ff0d146100db575b600080fd5b6100a061009b366004610ace565b610172565b6040519081526020015b60405180910390f35b6100c66100c1366004610af0565b6101e3565b005b6100c66100d6366004610b64565b610450565b6100ee6100e9366004610af0565b61061d565b6040516100aa929190610b8e565b60025461010f906001600160a01b031681565b6040516001600160a01b0390911681526020016100aa565b60015461010f906001600160a01b031681565b61014d610148366004610be5565b6107ec565b6040516100aa96959493929190610c36565b6100c661016d366004610c87565b610848565b600080826001600160a01b031663feaf968c6040518163ffffffff1660e01b815260040160a060405180830381865afa1580156101b3573d6000803e3d6000fd5b505050506040513d601f19601f820116820180604052508101906101d79190610cf6565b50919695505050505050565b60006101f182840184610da0565b905060006102028260200151610172565b90507fe317dab6c24412531a104b7fae35d5271976c773fae5615e5fba0b02347257688160405161023591815260200190565b60405180910390a160008260400151600181111561025557610255610bfe565b1480156102655750816060015181125b156102885761027c82600001518360a00151610450565b600160808301526102cf565b6001826040015160018111156102a0576102a0610bfe565b1480156102b05750816060015181135b156102cf576102c782600001518360a00151610a6c565b600160808301525b60005b6000548110156104495782600001516001600160a01b0316600082815481106102fd576102fd610e37565b60009182526020909120600590910201546001600160a01b031614801561037a57508260400151600181111561033557610335610bfe565b6000828154811061034857610348610e37565b906000526020600020906005020160010160149054906101000a900460ff16600181111561037857610378610bfe565b145b1561044157826000828154811061039357610393610e37565b6000918252602091829020835160059092020180546001600160a01b039283166001600160a01b031991821617825592840151600180830180549290941694821685178455604086015192949293926001600160a81b031990921690911790600160a01b90849081111561040957610409610bfe565b021790555060608201516002820155608082015160038201805460ff191691151591909117905560a090910151600490910155610449565b6001016102d2565b5050505050565b604080516002808252606082018352600092602083019080368337505060015482519293506001600160a01b03169183915060009061049157610491610e37565b60200260200101906001600160a01b031690816001600160a01b03168152505082816001815181106104c5576104c5610e37565b6001600160a01b03928316602091820292909201015260015460025460405163095ea7b360e01b815290831660048201526024810185905291169063095ea7b3906044016020604051808303816000875af1158015610528573d6000803e3d6000fd5b505050506040513d601f19601f8201168201806040525081019061054c9190610e4d565b506002546001600160a01b03166338ed1739836000843061056e42600f610e6a565b6040518663ffffffff1660e01b815260040161058e959493929190610e91565b6000604051808303816000875af11580156105ad573d6000803e3d6000fd5b505050506040513d6000823e601f3d908101601f191682016040526105d59190810190610f03565b50604080516001600160a01b0385168152602081018490527f55c18555197c6574627cf460c66073d10aa05d412468800b7b71feeaf82ea92d910160405180910390a1505050565b60006060815b6000548110156107e45760006106676000838154811061064557610645610e37565b60009182526020909120600160059092020101546001600160a01b0316610172565b90506000828154811061067c5761067c610e37565b600091825260209091206003600590920201015460ff1615801561078a575060008083815481106106af576106af610e37565b906000526020600020906005020160010160149054906101000a900460ff1660018111156106df576106df610bfe565b14801561070f5750600082815481106106fa576106fa610e37565b90600052602060002090600502016002015481125b8061078a575060016000838154811061072a5761072a610e37565b906000526020600020906005020160010160149054906101000a900460ff16600181111561075a5761075a610bfe565b14801561078a57506000828154811061077557610775610e37565b90600052602060002090600502016002015481135b156107db5760019350600082815481106107a6576107a6610e37565b90600052602060002090600502016040516020016107c49190610fb4565b6040516020818303038152906040529250506107e4565b50600101610623565b509250929050565b600081815481106107fc57600080fd5b6000918252602090912060059091020180546001820154600283015460038401546004909401546001600160a01b0393841695509282169360ff600160a01b9093048316939192169086565b60005b60005481101561095f57856001600160a01b03166000828154811061087257610872610e37565b60009182526020909120600590910201546001600160a01b03161415806108ec57508360018111156108a6576108a6610bfe565b600082815481106108b9576108b9610e37565b906000526020600020906005020160010160149054906101000a900460ff1660018111156108e9576108e9610bfe565b14155b6109575760405162461bcd60e51b815260206004820152603260248201527f4f7264657220666f72207468697320746f6b656e20616e64206f72646572207460448201527179706520616c72656164792065786973747360701b606482015260840160405180910390fd5b60010161084b565b5060006040518060c00160405280876001600160a01b03168152602001866001600160a01b0316815260200185600181111561099d5761099d610bfe565b8152602080820186905260006040808401829052606090930186905284546001808201875595825290829020845160059092020180546001600160a01b03199081166001600160a01b0393841617825592850151818701805494851691909316908117835593850151949590949391926001600160a81b03191690911790600160a01b908490811115610a3257610a32610bfe565b021790555060608201516002820155608082015160038201805460ff191691151591909117905560a0909101516004909101555050505050565b604080516001600160a01b0384168152602081018390527ffe2ff4cf36ff7d2c2b06eb960897ee0d76d9c3e58da12feb7b93e86b226dd344910160405180910390a15050565b80356001600160a01b0381168114610ac957600080fd5b919050565b600060208284031215610ae057600080fd5b610ae982610ab2565b9392505050565b60008060208385031215610b0357600080fd5b823567ffffffffffffffff811115610b1a57600080fd5b8301601f81018513610b2b57600080fd5b803567ffffffffffffffff811115610b4257600080fd5b856020828401011115610b5457600080fd5b6020919091019590945092505050565b60008060408385031215610b7757600080fd5b610b8083610ab2565b946020939093013593505050565b8215158152604060208201526000825180604084015260005b81811015610bc45760208186018101516060868401015201610ba7565b506000606082850101526060601f19601f8301168401019150509392505050565b600060208284031215610bf757600080fd5b5035919050565b634e487b7160e01b600052602160045260246000fd5b60028110610c3257634e487b7160e01b600052602160045260246000fd5b9052565b6001600160a01b0387811682528616602082015260c08101610c5b6040830187610c14565b6060820194909452911515608083015260a0909101529392505050565b803560028110610ac957600080fd5b600080600080600060a08688031215610c9f57600080fd5b610ca886610ab2565b9450610cb660208701610ab2565b9350610cc460408701610c78565b94979396509394606081013594506080013592915050565b805169ffffffffffffffffffff81168114610ac957600080fd5b600080600080600060a08688031215610d0e57600080fd5b610d1786610cdc565b60208701516040880151606089015192975090955093509150610d3c60808701610cdc565b90509295509295909350565b634e487b7160e01b600052604160045260246000fd5b604051601f8201601f1916810167ffffffffffffffff81118282101715610d8757610d87610d48565b604052919050565b8015158114610d9d57600080fd5b50565b600060c0828403128015610db357600080fd5b5060405160c0810167ffffffffffffffff81118282101715610dd757610dd7610d48565b604052610de383610ab2565b8152610df160208401610ab2565b6020820152610e0260408401610c78565b6040820152606083810135908201526080830135610e1f81610d8f565b608082015260a0928301359281019290925250919050565b634e487b7160e01b600052603260045260246000fd5b600060208284031215610e5f57600080fd5b8151610ae981610d8f565b80820180821115610e8b57634e487b7160e01b600052601160045260246000fd5b92915050565b600060a0820187835286602084015260a0604084015280865180835260c08501915060208801925060005b81811015610ee35783516001600160a01b0316835260209384019390920191600101610ebc565b50506001600160a01b039590951660608401525050608001529392505050565b600060208284031215610f1557600080fd5b815167ffffffffffffffff811115610f2c57600080fd5b8201601f81018413610f3d57600080fd5b805167ffffffffffffffff811115610f5757610f57610d48565b8060051b610f6760208201610d5e565b91825260208184018101929081019087841115610f8357600080fd5b6020850194505b83851015610fa957845180835260209586019590935090910190610f8a565b979650505050505050565b81546001600160a01b0390811682526001830154908116602083015260c0820190610fe96040840160a083901c60ff16610c14565b5060028301546060830152600383015460ff161515608083015260049092015460a0909101529056fea2646970667358221220dc1ab5e54488a54ca36a6d06d67e055bc17349ad40b16636e16f5a3dba94c4ca64736f6c634300081a0033000000000000000000000000c532a74256d3db42d0bf7a0400fefdbad769400800000000000000000000000089e7fdbd1ea30300719357a1584c28ee34bcb4be",
        "nonce": "0x55",
        "chainId": "0xaa36a7"
      },
      "additionalContracts": [],
      "isFixedGasLimit": false
    },
    {
      "hash": "0x6c64382b44275b9623e765a26061b15166326af0008df923c2a5944271141208",
      "transactionType": "CALL",
      "contractName": null,
      "contractAddress": "0x89e7fdbd1ea30300719357a1584c28ee34bcb4be",
      "function": "mint(address,uint256)",
      "arguments": [
        "0x45B43BFCbC460309a6d685946ebc36C99998C0a0",
        "1000000000000000000000"
      ],
      "transaction": {
        "from": "0x75998e806d0be5b37c5de74acfa0006b3c7dcdff",
        "to": "0x89e7fdbd1ea30300719357a1584c28ee34bcb4be",
        "gas": "0x11571",
        "value": "0x0",
        "input": "0x40c10f1900000000000000000000000045b43bfcbc460309a6d685946ebc36c99998c0a000000000000000000000000000000000000000000000003635c9adc5dea00000",
        "nonce": "0x56",
        "chainId": "0xaa36a7"
      },
      "additionalContracts": [],
      "isFixedGasLimit": false
    },
    {
      "hash": "0x4bed5fd285fcc4ef1d7d002e257ce46dded946f41eb26949833f8b2453b32080",
      "transactionType": "CALL",
      "contractName": "MultiTokenKeeper",
      "contractAddress": "0x45b43bfcbc460309a6d685946ebc36c99998c0a0",
      "function": "buyToken(address,uint256)",
      "arguments": [
        "0x7E29ee6eE5Ed4195C797B06f20b0a500eA30a79C",
        "100000000000000000000"
      ],
      "transaction": {
        "from": "0x75998e806d0be5b37c5de74acfa0006b3c7dcdff",
        "to": "0x45b43bfcbc460309a6d685946ebc36c99998c0a0",
        "gas": "0x2bb1e",
        "value": "0x0",
        "input": "0x68f8fc100000000000000000000000007e29ee6ee5ed4195c797b06f20b0a500ea30a79c0000000000000000000000000000000000000000000000056bc75e2d63100000",
        "nonce": "0x57",
        "chainId": "0xaa36a7"
      },
      "additionalContracts": [],
      "isFixedGasLimit": false
    }
  ],
  "receipts": [
    {
      "status": "0x1",
      "cumulativeGasUsed": "0xc80772",
      "logs": [],
      "logsBloom": "0x00000000000000000000000000000000000000000000000000000000000000000000000000000000000000000000000000000000000000000000000000000000000000000000000000000000000000000000000000000000000000000000000000000000000000000000000000000000000000000000000000000000000000000000000000000000000000000000000000000000000000000000000000000000000000000000000000000000000000000000000000000000000000000000000000000000000000000000000000000000000000000000000000000000000000000000000000000000000000000000000000000000000000000000000000000000",
      "type": "0x2",
      "transactionHash": "0x22c7153eb857e8810d2bbde8e5290112dc3b86cd40e8b3a7b6a676a9b0a5f225",
      "transactionIndex": "0x40",
      "blockHash": "0xe6eb4d8e4660f5e2eaac387570d4582d6afae3343847552406bc12d585f084e0",
      "blockNumber": "0x6292d1",
      "gasUsed": "0xf4596",
      "effectiveGasPrice": "0x3460fd60b",
      "from": "0x75998e806d0be5b37c5de74acfa0006b3c7dcdff",
      "to": null,
      "contractAddress": "0x45b43bfcbc460309a6d685946ebc36c99998c0a0"
    },
    {
      "status": "0x1",
      "cumulativeGasUsed": "0xca3c4f",
      "logs": [
        {
          "address": "0x89e7fdbd1ea30300719357a1584c28ee34bcb4be",
          "topics": [
            "0xddf252ad1be2c89b69c2b068fc378daa952ba7f163c4a11628f55a4df523b3ef",
            "0x0000000000000000000000000000000000000000000000000000000000000000",
            "0x00000000000000000000000045b43bfcbc460309a6d685946ebc36c99998c0a0"
          ],
          "data": "0x00000000000000000000000000000000000000000000003635c9adc5dea00000",
          "blockHash": "0xe6eb4d8e4660f5e2eaac387570d4582d6afae3343847552406bc12d585f084e0",
          "blockNumber": "0x6292d1",
          "transactionHash": "0x6c64382b44275b9623e765a26061b15166326af0008df923c2a5944271141208",
          "transactionIndex": "0x42",
          "logIndex": "0x83",
          "removed": false
        }
      ],
      "logsBloom": "0x00210000000000000000800000000000000000000000000000000000000000000000000000000000000000000000000000000000000000080000000000000000000000000000000000000008000000000000000000000000000000000000000000000000020000000000000000000800000000000000000000000010000000000000000000000000000000000000000000000000000000000000000000000000000000000000000000000000000000000000000080000000000000000000000000000002000000000000000000000000000000000000000000000000000020000000000000000000000000001000000000000000000000000000000000000000",
      "type": "0x2",
      "transactionHash": "0x6c64382b44275b9623e765a26061b15166326af0008df923c2a5944271141208",
      "transactionIndex": "0x42",
      "blockHash": "0xe6eb4d8e4660f5e2eaac387570d4582d6afae3343847552406bc12d585f084e0",
      "blockNumber": "0x6292d1",
      "gasUsed": "0xc8de",
      "effectiveGasPrice": "0x3460fd60b",
      "from": "0x75998e806d0be5b37c5de74acfa0006b3c7dcdff",
      "to": "0x89e7fdbd1ea30300719357a1584c28ee34bcb4be",
      "contractAddress": null
    },
    {
      "status": "0x1",
      "cumulativeGasUsed": "0xcc3676",
      "logs": [
        {
          "address": "0x89e7fdbd1ea30300719357a1584c28ee34bcb4be",
          "topics": [
            "0x8c5be1e5ebec7d5bd14f71427d1e84f3dd0314c0f7b2291e5b200ac8c7c3b925",
            "0x00000000000000000000000045b43bfcbc460309a6d685946ebc36c99998c0a0",
            "0x000000000000000000000000c532a74256d3db42d0bf7a0400fefdbad7694008"
          ],
          "data": "0x0000000000000000000000000000000000000000000000056bc75e2d63100000",
          "blockHash": "0xe6eb4d8e4660f5e2eaac387570d4582d6afae3343847552406bc12d585f084e0",
          "blockNumber": "0x6292d1",
          "transactionHash": "0x4bed5fd285fcc4ef1d7d002e257ce46dded946f41eb26949833f8b2453b32080",
          "transactionIndex": "0x43",
          "logIndex": "0x84",
          "removed": false
        },
        {
          "address": "0x89e7fdbd1ea30300719357a1584c28ee34bcb4be",
          "topics": [
            "0xddf252ad1be2c89b69c2b068fc378daa952ba7f163c4a11628f55a4df523b3ef",
            "0x00000000000000000000000045b43bfcbc460309a6d685946ebc36c99998c0a0",
            "0x000000000000000000000000b56ed26463adbc40f25e6c627a2cff41954f5738"
          ],
          "data": "0x0000000000000000000000000000000000000000000000056bc75e2d63100000",
          "blockHash": "0xe6eb4d8e4660f5e2eaac387570d4582d6afae3343847552406bc12d585f084e0",
          "blockNumber": "0x6292d1",
          "transactionHash": "0x4bed5fd285fcc4ef1d7d002e257ce46dded946f41eb26949833f8b2453b32080",
          "transactionIndex": "0x43",
          "logIndex": "0x85",
          "removed": false
        },
        {
          "address": "0x7e29ee6ee5ed4195c797b06f20b0a500ea30a79c",
          "topics": [
            "0xddf252ad1be2c89b69c2b068fc378daa952ba7f163c4a11628f55a4df523b3ef",
            "0x000000000000000000000000b56ed26463adbc40f25e6c627a2cff41954f5738",
            "0x00000000000000000000000045b43bfcbc460309a6d685946ebc36c99998c0a0"
          ],
          "data": "0x00000000000000000000000000000000000000000000000000b11a4f960ce1ae",
          "blockHash": "0xe6eb4d8e4660f5e2eaac387570d4582d6afae3343847552406bc12d585f084e0",
          "blockNumber": "0x6292d1",
          "transactionHash": "0x4bed5fd285fcc4ef1d7d002e257ce46dded946f41eb26949833f8b2453b32080",
          "transactionIndex": "0x43",
          "logIndex": "0x86",
          "removed": false
        },
        {
          "address": "0xb56ed26463adbc40f25e6c627a2cff41954f5738",
          "topics": [
            "0x1c411e9a96e071241c2f21f7726b17ae89e3cab4c78be50e062b03a9fffbbad1"
          ],
          "data": "0x0000000000000000000000000000000000000000a4ce6374e246631c42331e5200000000000000000000000000000000000005078c690132994b38b6d7100000",
          "blockHash": "0xe6eb4d8e4660f5e2eaac387570d4582d6afae3343847552406bc12d585f084e0",
          "blockNumber": "0x6292d1",
          "transactionHash": "0x4bed5fd285fcc4ef1d7d002e257ce46dded946f41eb26949833f8b2453b32080",
          "transactionIndex": "0x43",
          "logIndex": "0x87",
          "removed": false
        },
        {
          "address": "0xb56ed26463adbc40f25e6c627a2cff41954f5738",
          "topics": [
            "0xd78ad95fa46c994b6551d0da85fc275fe613ce37657fb8d5e3d130840159d822",
            "0x000000000000000000000000c532a74256d3db42d0bf7a0400fefdbad7694008",
            "0x00000000000000000000000045b43bfcbc460309a6d685946ebc36c99998c0a0"
          ],
          "data": "0x00000000000000000000000000000000000000000000000000000000000000000000000000000000000000000000000000000000000000056bc75e2d6310000000000000000000000000000000000000000000000000000000b11a4f960ce1ae0000000000000000000000000000000000000000000000000000000000000000",
          "blockHash": "0xe6eb4d8e4660f5e2eaac387570d4582d6afae3343847552406bc12d585f084e0",
          "blockNumber": "0x6292d1",
          "transactionHash": "0x4bed5fd285fcc4ef1d7d002e257ce46dded946f41eb26949833f8b2453b32080",
          "transactionIndex": "0x43",
          "logIndex": "0x88",
          "removed": false
        },
        {
          "address": "0x45b43bfcbc460309a6d685946ebc36c99998c0a0",
          "topics": [
            "0x55c18555197c6574627cf460c66073d10aa05d412468800b7b71feeaf82ea92d"
          ],
          "data": "0x0000000000000000000000007e29ee6ee5ed4195c797b06f20b0a500ea30a79c0000000000000000000000000000000000000000000000056bc75e2d63100000",
          "blockHash": "0xe6eb4d8e4660f5e2eaac387570d4582d6afae3343847552406bc12d585f084e0",
          "blockNumber": "0x6292d1",
          "transactionHash": "0x4bed5fd285fcc4ef1d7d002e257ce46dded946f41eb26949833f8b2453b32080",
          "transactionIndex": "0x43",
          "logIndex": "0x89",
          "removed": false
        }
      ],
      "logsBloom": "0x00210000000004000000800080000000000000008014000000000000000800000008000000000000000002000000000000000000000100080000000000200000000000000000000000000008000000200000000000000000000000000000000000000000000000000000000000040000000000000000000000000010000080000000000000000010000002000000000000000000000000080000004000000000020000000000000000000000000000000000000080000000000500000000000000000102000000000000000004000040100000000000001000000000000000000010000000000000000000001000000000000000000000000000000000000000",
      "type": "0x2",
      "transactionHash": "0x4bed5fd285fcc4ef1d7d002e257ce46dded946f41eb26949833f8b2453b32080",
      "transactionIndex": "0x43",
      "blockHash": "0xe6eb4d8e4660f5e2eaac387570d4582d6afae3343847552406bc12d585f084e0",
      "blockNumber": "0x6292d1",
      "gasUsed": "0x1fa27",
      "effectiveGasPrice": "0x3460fd60b",
      "from": "0x75998e806d0be5b37c5de74acfa0006b3c7dcdff",
      "to": "0x45b43bfcbc460309a6d685946ebc36c99998c0a0",
      "contractAddress": null
    }
  ],
  "libraries": [],
  "pending": [],
  "returns": {},
  "timestamp": 1723113306,
  "chain": 11155111,
  "commit": "84b1ee4"
}