{
  "transactions": [
    {
      "hash": "0x03bbc18c818b42518e6dc313650deb6de85220fb57d89231b0dd4a20ed9702a7",
      "transactionType": "CREATE",
      "contractName": "MultiTokenKeeper",
      "contractAddress": "0x0d5fa506452ead3bbf5f8a1639866ca50e5a3888",
      "function": null,
      "arguments": [
        "0xC532a74256D3Db42D0Bf7a0400fEFDbad7694008",
        "0x89E7fdbd1EA30300719357A1584C28ee34bcB4bE"
      ],
      "transaction": {
        "from": "0x75998e806d0be5b37c5de74acfa0006b3c7dcdff",
        "gas": "0x140e7a",
        "value": "0x0",
        "input": "0x6080604052348015600f57600080fd5b5060405161112d38038061112d833981016040819052602c916077565b600280546001600160a01b039384166001600160a01b0319918216179091556001805492909316911617905560a5565b80516001600160a01b0381168114607257600080fd5b919050565b60008060408385031215608957600080fd5b609083605c565b9150609c60208401605c565b90509250929050565b611079806100b46000396000f3fe608060405234801561001057600080fd5b50600436106100b45760003560e01c8063735de9f711610071578063735de9f7146101635780638c651f111461018e5780639ab4a445146101bd578063a85c38ef146101d0578063d0aae7a5146101f6578063d1cd871d1461022957600080fd5b806311a00327146100b957806316345f18146100ce5780632a58b330146100f45780634585e33b146100fd5780636689adde146101105780636e04ff0d14610142575b600080fd5b6100cc6100c7366004610a9e565b61023c565b005b6100e16100dc366004610ad3565b61044a565b6040519081526020015b60405180910390f35b6100e160035481565b6100cc61010b366004610af5565b6104bb565b6100cc61011e366004610ad3565b6001600160a01b03166000908152600460205260409020805460ff19166001179055565b610155610150366004610af5565b61052b565b6040516100eb929190610b69565b600254610176906001600160a01b031681565b6040516001600160a01b0390911681526020016100eb565b6100cc61019c366004610ad3565b6001600160a01b03166000908152600460205260409020805460ff19169055565b600154610176906001600160a01b031681565b6101e36101de366004610a9e565b610602565b6040516100eb9796959493929190610bf8565b610219610204366004610ad3565b60046020526000908152604090205460ff1681565b60405190151581526020016100eb565b6100cc610237366004610c50565b610667565b60005481106102925760405162461bcd60e51b815260206004820152601960248201527f4f7264657220696e646578206f7574206f6620626f756e64730000000000000060448201526064015b60405180910390fd5b805b6000546102a390600190610cbb565b8110156103a65760006102b7826001610cd4565b815481106102c7576102c7610ce7565b9060005260206000209060060201600082815481106102e8576102e8610ce7565b60009182526020909120825460069092020190815560018083015481830180546001600160a01b03199081166001600160a01b03938416179091556002808601805491860180549384169290941691821784555460ff600160a01b9182900416946001600160a81b031990931690911791849081111561036a5761036a610bc0565b021790555060038281015490820155600480830154908201805460ff191660ff9092161515919091179055600591820154910155600101610294565b5060008054806103b8576103b8610cfd565b6000828152602081206006600019909301928302018181556001810180546001600160a01b03191690556002810180546001600160a81b03191690556003810182905560048101805460ff191690556005015590556040517f91635156bba825be2f9a200b140420e4bee0d251f7d43bf956e63f74960030e09061043f9083815260200190565b60405180910390a150565b600080826001600160a01b031663feaf968c6040518163ffffffff1660e01b815260040160a060405180830381865afa15801561048b573d6000803e3d6000fd5b505050506040513d601f19601f820116820180604052508101906104af9190610d2d565b50919695505050505050565b60006104c982840184610e00565b905060006104da826040015161044a565b90507fe317dab6c24412531a104b7fae35d5271976c773fae5615e5fba0b02347257688160405161050d91815260200190565b60405180910390a161051e82610804565b50600160a0909101525050565b60006060815b6000548110156105fa5760006105756000838154811061055357610553610ce7565b60009182526020909120600260069092020101546001600160a01b031661044a565b90506000828154811061058a5761058a610ce7565b600091825260209091206004600690920201015460ff166105f15760019350600082815481106105bc576105bc610ce7565b90600052602060002090600602016040516020016105da9190610e83565b6040516020818303038152906040529250506105fa565b50600101610531565b509250929050565b6000818154811061061257600080fd5b60009182526020909120600690910201805460018201546002830154600384015460048501546005909501549395506001600160a01b039283169492821693600160a01b90920460ff90811693919291169087565b6001600160a01b03841660009081526004602052604090205460ff166106cf5760405162461bcd60e51b815260206004820152601760248201527f41676772656761746f72206e6f7420617070726f7665640000000000000000006044820152606401610289565b60006040518060e001604052806003548152602001876001600160a01b03168152602001866001600160a01b0316815260200185600181111561071457610714610bc0565b815260208082018690526000604080840182905260609384018790528554600180820188559683529183902085516006909302019182559184015181860180546001600160a01b03199081166001600160a01b03938416179091559285015160028301805494851691909216908117825593850151949591949390926001600160a81b0319161790600160a01b9084908111156107b3576107b3610bc0565b0217905550608082015160038281019190915560a083015160048301805460ff191691151591909117905560c09092015160059091015580549060006107f883610eea565b91905055505050505050565b602081015160c082015160408051600280825260608201909252600091816020016020820280368337505060015482519293506001600160a01b03169183915060009061085357610853610ce7565b60200260200101906001600160a01b031690816001600160a01b031681525050828160018151811061088757610887610ce7565b6001600160a01b03928316602091820292909201015260015460025460405163095ea7b360e01b815290831660048201526024810185905291169063095ea7b3906044016020604051808303816000875af11580156108ea573d6000803e3d6000fd5b505050506040513d601f19601f8201168201806040525081019061090e9190610f03565b506002546001600160a01b03166338ed1739836000843061093042600f610cd4565b6040518663ffffffff1660e01b8152600401610950959493929190610f20565b6000604051808303816000875af115801561096f573d6000803e3d6000fd5b505050506040513d6000823e601f3d908101601f191682016040526109979190810190610f92565b5083516109a3906109eb565b604080516001600160a01b0385168152602081018490527f55c18555197c6574627cf460c66073d10aa05d412468800b7b71feeaf82ea92d910160405180910390a150505050565b60005b600054811015610a9a578160008281548110610a0c57610a0c610ce7565b90600052602060002090600602016000015403610a9257600160008281548110610a3857610a38610ce7565b600091825260209182902060069190910201600401805460ff1916921515929092179091556040518381527f7c44208b5a90de3907889263317a131f5178339f16bd7d512528f9f48876ffdc910160405180910390a15050565b6001016109ee565b5050565b600060208284031215610ab057600080fd5b5035919050565b80356001600160a01b0381168114610ace57600080fd5b919050565b600060208284031215610ae557600080fd5b610aee82610ab7565b9392505050565b60008060208385031215610b0857600080fd5b823567ffffffffffffffff811115610b1f57600080fd5b8301601f81018513610b3057600080fd5b803567ffffffffffffffff811115610b4757600080fd5b856020828401011115610b5957600080fd5b6020919091019590945092505050565b8215158152604060208201526000825180604084015260005b81811015610b9f5760208186018101516060868401015201610b82565b506000606082850101526060601f19601f8301168401019150509392505050565b634e487b7160e01b600052602160045260246000fd5b60028110610bf457634e487b7160e01b600052602160045260246000fd5b9052565b8781526001600160a01b0387811660208301528616604082015260e08101610c236060830187610bd6565b608082019490945291151560a083015260c090910152949350505050565b803560028110610ace57600080fd5b600080600080600060a08688031215610c6857600080fd5b610c7186610ab7565b9450610c7f60208701610ab7565b9350610c8d60408701610c41565b94979396509394606081013594506080013592915050565b634e487b7160e01b600052601160045260246000fd5b81810381811115610cce57610cce610ca5565b92915050565b80820180821115610cce57610cce610ca5565b634e487b7160e01b600052603260045260246000fd5b634e487b7160e01b600052603160045260246000fd5b805169ffffffffffffffffffff81168114610ace57600080fd5b600080600080600060a08688031215610d4557600080fd5b610d4e86610d13565b60208701516040880151606089015192975090955093509150610d7360808701610d13565b90509295509295909350565b634e487b7160e01b600052604160045260246000fd5b60405160e0810167ffffffffffffffff81118282101715610db857610db8610d7f565b60405290565b604051601f8201601f1916810167ffffffffffffffff81118282101715610de757610de7610d7f565b604052919050565b8015158114610dfd57600080fd5b50565b600060e0828403128015610e1357600080fd5b50610e1c610d95565b82358152610e2c60208401610ab7565b6020820152610e3d60408401610ab7565b6040820152610e4e60608401610c41565b60608201526080838101359082015260a0830135610e6b81610def565b60a082015260c0928301359281019290925250919050565b8154815260018201546001600160a01b0390811660208301526002830154908116604083015260e0820190610ec16060840160ff8360a01c16610bd6565b5060038301546080830152600483015460ff16151560a083015260059092015460c09091015290565b600060018201610efc57610efc610ca5565b5060010190565b600060208284031215610f1557600080fd5b8151610aee81610def565b600060a0820187835286602084015260a0604084015280865180835260c08501915060208801925060005b81811015610f725783516001600160a01b0316835260209384019390920191600101610f4b565b50506001600160a01b039590951660608401525050608001529392505050565b600060208284031215610fa457600080fd5b815167ffffffffffffffff811115610fbb57600080fd5b8201601f81018413610fcc57600080fd5b805167ffffffffffffffff811115610fe657610fe6610d7f565b8060051b610ff660208201610dbe565b9182526020818401810192908101908784111561101257600080fd5b6020850194505b8385101561103857845180835260209586019590935090910190611019565b97965050505050505056fea2646970667358221220b6a8826b37b15c6def62a643a58516a4bf8e3591e9a6a1085a1c628522b6da8864736f6c634300081a0033000000000000000000000000c532a74256d3db42d0bf7a0400fefdbad769400800000000000000000000000089e7fdbd1ea30300719357a1584c28ee34bcb4be",
        "nonce": "0x6f",
        "chainId": "0xaa36a7"
      },
      "additionalContracts": [],
      "isFixedGasLimit": false
    },
    {
      "hash": "0x655cee08104664dd8b0d3d314148adcf9c56e31b4d6e6ec2d80fe602809edc6d",
      "transactionType": "CALL",
      "contractName": "MultiTokenKeeper",
      "contractAddress": "0x0d5fa506452ead3bbf5f8a1639866ca50e5a3888",
      "function": "approveAggregator(address)",
      "arguments": [
        "0x1b44F3514812d835EB1BDB0acB33d3fA3351Ee43"
      ],
      "transaction": {
        "from": "0x75998e806d0be5b37c5de74acfa0006b3c7dcdff",
        "to": "0x0d5fa506452ead3bbf5f8a1639866ca50e5a3888",
        "gas": "0xfb79",
        "value": "0x0",
        "input": "0x6689adde0000000000000000000000001b44f3514812d835eb1bdb0acb33d3fa3351ee43",
        "nonce": "0x70",
        "chainId": "0xaa36a7"
      },
      "additionalContracts": [],
      "isFixedGasLimit": false
    },
    {
      "hash": "0x7154efd769f53d5e7bbe99dc4e8c1060b9c54394e9890b17a8f37a307c845bbf",
      "transactionType": "CALL",
      "contractName": null,
      "contractAddress": "0x89e7fdbd1ea30300719357a1584c28ee34bcb4be",
      "function": "mint(address,uint256)",
      "arguments": [
        "0x0D5Fa506452EAd3BbF5f8A1639866cA50e5a3888",
        "10000000000000000000000"
      ],
      "transaction": {
        "from": "0x75998e806d0be5b37c5de74acfa0006b3c7dcdff",
        "to": "0x89e7fdbd1ea30300719357a1584c28ee34bcb4be",
        "gas": "0x125d5",
        "value": "0x0",
        "input": "0x40c10f190000000000000000000000000d5fa506452ead3bbf5f8a1639866ca50e5a388800000000000000000000000000000000000000000000021e19e0c9bab2400000",
        "nonce": "0x71",
        "chainId": "0xaa36a7"
      },
      "additionalContracts": [],
      "isFixedGasLimit": false
    },
    {
      "hash": "0xbddb58052ef8b85c1bd28f714acaf093e7de36c406c7bb518f9e086e86b34817",
      "transactionType": "CALL",
      "contractName": "MultiTokenKeeper",
      "contractAddress": "0x0d5fa506452ead3bbf5f8a1639866ca50e5a3888",
      "function": "addOrder(address,address,uint8,int256,uint256)",
      "arguments": [
        "0x7E29ee6eE5Ed4195C797B06f20b0a500eA30a79C",
        "0x1b44F3514812d835EB1BDB0acB33d3fA3351Ee43",
        "0",
        "0",
        "100000000000000000000"
      ],
      "transaction": {
        "from": "0x75998e806d0be5b37c5de74acfa0006b3c7dcdff",
        "to": "0x0d5fa506452ead3bbf5f8a1639866ca50e5a3888",
        "gas": "0x33217",
        "value": "0x0",
        "input": "0xd1cd871d0000000000000000000000007e29ee6ee5ed4195c797b06f20b0a500ea30a79c0000000000000000000000001b44f3514812d835eb1bdb0acb33d3fa3351ee43000000000000000000000000000000000000000000000000000000000000000000000000000000000000000000000000000000000000000000000000000000000000000000000000000000000000000000000000000000056bc75e2d63100000",
        "nonce": "0x72",
        "chainId": "0xaa36a7"
      },
      "additionalContracts": [],
      "isFixedGasLimit": false
    }
  ],
  "receipts": [
    {
      "status": "0x1",
      "cumulativeGasUsed": "0x543a01",
      "logs": [],
      "logsBloom": "0x00000000000000000000000000000000000000000000000000000000000000000000000000000000000000000000000000000000000000000000000000000000000000000000000000000000000000000000000000000000000000000000000000000000000000000000000000000000000000000000000000000000000000000000000000000000000000000000000000000000000000000000000000000000000000000000000000000000000000000000000000000000000000000000000000000000000000000000000000000000000000000000000000000000000000000000000000000000000000000000000000000000000000000000000000000000",
      "type": "0x2",
      "transactionHash": "0x03bbc18c818b42518e6dc313650deb6de85220fb57d89231b0dd4a20ed9702a7",
      "transactionIndex": "0x1f",
      "blockHash": "0x48d259df1f4b3049d8d0e03e169f3ee6019893d9ad7b6a37f71e666f54452f56",
      "blockNumber": "0x6293e2",
      "gasUsed": "0xf6eb1",
      "effectiveGasPrice": "0x1f12c989e",
      "from": "0x75998e806d0be5b37c5de74acfa0006b3c7dcdff",
      "to": null,
      "contractAddress": "0x0d5fa506452ead3bbf5f8a1639866ca50e5a3888"
    },
    {
      "status": "0x1",
      "cumulativeGasUsed": "0x54e5f4",
      "logs": [],
      "logsBloom": "0x00000000000000000000000000000000000000000000000000000000000000000000000000000000000000000000000000000000000000000000000000000000000000000000000000000000000000000000000000000000000000000000000000000000000000000000000000000000000000000000000000000000000000000000000000000000000000000000000000000000000000000000000000000000000000000000000000000000000000000000000000000000000000000000000000000000000000000000000000000000000000000000000000000000000000000000000000000000000000000000000000000000000000000000000000000000",
      "type": "0x2",
      "transactionHash": "0x655cee08104664dd8b0d3d314148adcf9c56e31b4d6e6ec2d80fe602809edc6d",
      "transactionIndex": "0x20",
      "blockHash": "0x48d259df1f4b3049d8d0e03e169f3ee6019893d9ad7b6a37f71e666f54452f56",
      "blockNumber": "0x6293e2",
      "gasUsed": "0xabf3",
      "effectiveGasPrice": "0x1f12c989e",
      "from": "0x75998e806d0be5b37c5de74acfa0006b3c7dcdff",
      "to": "0x0d5fa506452ead3bbf5f8a1639866ca50e5a3888",
      "contractAddress": null
    },
    {
      "status": "0x1",
      "cumulativeGasUsed": "0x55aede",
      "logs": [
        {
          "address": "0x89e7fdbd1ea30300719357a1584c28ee34bcb4be",
          "topics": [
            "0xddf252ad1be2c89b69c2b068fc378daa952ba7f163c4a11628f55a4df523b3ef",
            "0x0000000000000000000000000000000000000000000000000000000000000000",
            "0x0000000000000000000000000d5fa506452ead3bbf5f8a1639866ca50e5a3888"
          ],
          "data": "0x00000000000000000000000000000000000000000000021e19e0c9bab2400000",
          "blockHash": "0x48d259df1f4b3049d8d0e03e169f3ee6019893d9ad7b6a37f71e666f54452f56",
          "blockNumber": "0x6293e2",
          "transactionHash": "0x7154efd769f53d5e7bbe99dc4e8c1060b9c54394e9890b17a8f37a307c845bbf",
          "transactionIndex": "0x21",
          "logIndex": "0x5d",
          "removed": false
        }
      ],
      "logsBloom": "0x00200000000000000000000000000000000000000000000000000000000000000000000000000000000000000000000100000000000000080000000000000000000000000000000000000008000000000000000000000000000000000000000000000000020000000000400000000800000000000000000000000010000000000000000000000000000000000000000000000000000000000000000000000000000000000000000000000000000000000000000000000000000000000000000000000002000000000000000000000000000000000000000000000000000020000000000000000000000000001000000000000000000000080000000000000000",
      "type": "0x2",
      "transactionHash": "0x7154efd769f53d5e7bbe99dc4e8c1060b9c54394e9890b17a8f37a307c845bbf",
      "transactionIndex": "0x21",
      "blockHash": "0x48d259df1f4b3049d8d0e03e169f3ee6019893d9ad7b6a37f71e666f54452f56",
      "blockNumber": "0x6293e2",
      "gasUsed": "0xc8ea",
      "effectiveGasPrice": "0x1f12c989e",
      "from": "0x75998e806d0be5b37c5de74acfa0006b3c7dcdff",
      "to": "0x89e7fdbd1ea30300719357a1584c28ee34bcb4be",
      "contractAddress": null
    },
    {
      "status": "0x1",
      "cumulativeGasUsed": "0x57de3f",
      "logs": [],
      "logsBloom": "0x00000000000000000000000000000000000000000000000000000000000000000000000000000000000000000000000000000000000000000000000000000000000000000000000000000000000000000000000000000000000000000000000000000000000000000000000000000000000000000000000000000000000000000000000000000000000000000000000000000000000000000000000000000000000000000000000000000000000000000000000000000000000000000000000000000000000000000000000000000000000000000000000000000000000000000000000000000000000000000000000000000000000000000000000000000000",
      "type": "0x2",
      "transactionHash": "0xbddb58052ef8b85c1bd28f714acaf093e7de36c406c7bb518f9e086e86b34817",
      "transactionIndex": "0x22",
      "blockHash": "0x48d259df1f4b3049d8d0e03e169f3ee6019893d9ad7b6a37f71e666f54452f56",
      "blockNumber": "0x6293e2",
      "gasUsed": "0x22f61",
      "effectiveGasPrice": "0x1f12c989e",
      "from": "0x75998e806d0be5b37c5de74acfa0006b3c7dcdff",
      "to": "0x0d5fa506452ead3bbf5f8a1639866ca50e5a3888",
      "contractAddress": null
    }
  ],
  "libraries": [],
  "pending": [],
  "returns": {},
  "timestamp": 1723117097,
  "chain": 11155111,
  "commit": "84b1ee4"
}