{
  "transactions": [
    {
      "hash": "0x81b08e8e276678c2d0e405891e7ec2d8b12d77db8489b37a9259efc8f5ae8c3e",
      "transactionType": "CREATE",
      "contractName": "MultiTokenKeeper",
      "contractAddress": "0x311c9cc21913d49b06578fb931033e624c61027c",
      "function": null,
      "arguments": [
        "0xC532a74256D3Db42D0Bf7a0400fEFDbad7694008",
        "0x89E7fdbd1EA30300719357A1584C28ee34bcB4bE"
      ],
      "transaction": {
        "from": "0x75998e806d0be5b37c5de74acfa0006b3c7dcdff",
        "gas": "0xa14d7",
        "value": "0x0",
        "input": "0x6080604052348015600f57600080fd5b50604051610813380380610813833981016040819052602c916077565b600280546001600160a01b039384166001600160a01b0319918216179091556001805492909316911617905560a5565b80516001600160a01b0381168114607257600080fd5b919050565b60008060408385031215608957600080fd5b609083605c565b9150609c60208401605c565b90509250929050565b61075f806100b46000396000f3fe608060405234801561001057600080fd5b506004361061007d5760003560e01c8063735de9f71161005b578063735de9f7146100e35780639ab4a4451461010e578063a85c38ef14610121578063d1cd871d1461014657600080fd5b806316345f18146100825780634585e33b146100a85780636e04ff0d146100bd575b600080fd5b6100956100903660046104d6565b610159565b6040519081526020015b60405180910390f35b6100bb6100b63660046104f8565b6101ca565b005b6100d56100cb3660046104f8565b5060019160609150565b60405161009f92919061056c565b6002546100f6906001600160a01b031681565b6040516001600160a01b03909116815260200161009f565b6001546100f6906001600160a01b031681565b61013461012f3660046105c3565b6101f4565b60405161009f969594939291906105f2565b6100bb61015436600461064c565b610250565b600080826001600160a01b031663feaf968c6040518163ffffffff1660e01b815260040160a060405180830381865afa15801561019a573d6000803e3d6000fd5b505050506040513d601f19601f820116820180604052508101906101be91906106c1565b50919695505050505050565b6101f0737e29ee6ee5ed4195c797b06f20b0a500ea30a79c670de0b6b3a7640000610474565b5050565b6000818154811061020457600080fd5b6000918252602090912060059091020180546001820154600283015460038401546004909401546001600160a01b0393841695509282169360ff600160a01b9093048316939192169086565b60005b60005481101561036757856001600160a01b03166000828154811061027a5761027a610713565b60009182526020909120600590910201546001600160a01b03161415806102f457508360018111156102ae576102ae6105dc565b600082815481106102c1576102c1610713565b906000526020600020906005020160010160149054906101000a900460ff1660018111156102f1576102f16105dc565b14155b61035f5760405162461bcd60e51b815260206004820152603260248201527f4f7264657220666f72207468697320746f6b656e20616e64206f72646572207460448201527179706520616c72656164792065786973747360701b606482015260840160405180910390fd5b600101610253565b5060006040518060c00160405280876001600160a01b03168152602001866001600160a01b031681526020018560018111156103a5576103a56105dc565b8152602080820186905260006040808401829052606090930186905284546001808201875595825290829020845160059092020180546001600160a01b03199081166001600160a01b0393841617825592850151818701805494851691909316908117835593850151949590949391926001600160a81b03191690911790600160a01b90849081111561043a5761043a6105dc565b021790555060608201516002820155608082015160038201805460ff191691151591909117905560a0909101516004909101555050505050565b604080516001600160a01b0384168152602081018390527f55c18555197c6574627cf460c66073d10aa05d412468800b7b71feeaf82ea92d910160405180910390a15050565b80356001600160a01b03811681146104d157600080fd5b919050565b6000602082840312156104e857600080fd5b6104f1826104ba565b9392505050565b6000806020838503121561050b57600080fd5b823567ffffffffffffffff81111561052257600080fd5b8301601f8101851361053357600080fd5b803567ffffffffffffffff81111561054a57600080fd5b85602082840101111561055c57600080fd5b6020919091019590945092505050565b8215158152604060208201526000825180604084015260005b818110156105a25760208186018101516060868401015201610585565b506000606082850101526060601f19601f8301168401019150509392505050565b6000602082840312156105d557600080fd5b5035919050565b634e487b7160e01b600052602160045260246000fd5b6001600160a01b0387811682528616602082015260c081016002861061062857634e487b7160e01b600052602160045260246000fd5b60408201959095526060810193909352901515608083015260a09091015292915050565b600080600080600060a0868803121561066457600080fd5b61066d866104ba565b945061067b602087016104ba565b935060408601356002811061068f57600080fd5b94979396509394606081013594506080013592915050565b805169ffffffffffffffffffff811681146104d157600080fd5b600080600080600060a086880312156106d957600080fd5b6106e2866106a7565b60208701516040880151606089015192975090955093509150610707608087016106a7565b90509295509295909350565b634e487b7160e01b600052603260045260246000fdfea26469706673582212206ec0cfec4c9952bafc6cbe48b7d3bb3b743f3d6a106e6380dcfa28f68fbe727c64736f6c634300081a0033000000000000000000000000c532a74256d3db42d0bf7a0400fefdbad769400800000000000000000000000089e7fdbd1ea30300719357a1584c28ee34bcb4be",
        "nonce": "0x5d",
        "chainId": "0xaa36a7"
      },
      "additionalContracts": [],
      "isFixedGasLimit": false
    },
    {
      "hash": "0x3d52c2ffcadcdc4e9a0097b633662c28ca0b7abe7f103a5ad7789546e8dddd41",
      "transactionType": "CALL",
      "contractName": null,
      "contractAddress": "0x89e7fdbd1ea30300719357a1584c28ee34bcb4be",
      "function": "mint(address,uint256)",
      "arguments": [
        "0x311c9CC21913D49B06578Fb931033E624c61027C",
        "10000000000000000000000"
      ],
      "transaction": {
        "from": "0x75998e806d0be5b37c5de74acfa0006b3c7dcdff",
        "to": "0x89e7fdbd1ea30300719357a1584c28ee34bcb4be",
        "gas": "0x125d5",
        "value": "0x0",
        "input": "0x40c10f19000000000000000000000000311c9cc21913d49b06578fb931033e624c61027c00000000000000000000000000000000000000000000021e19e0c9bab2400000",
        "nonce": "0x5e",
        "chainId": "0xaa36a7"
      },
      "additionalContracts": [],
      "isFixedGasLimit": false
    },
    {
      "hash": "0x2022a60d3fdff5f0f73cb53f35f1bdb993f37d9a9bad5e44d6b874d49d676f3a",
      "transactionType": "CALL",
      "contractName": "MultiTokenKeeper",
      "contractAddress": "0x311c9cc21913d49b06578fb931033e624c61027c",
      "function": "addOrder(address,address,uint8,int256,uint256)",
      "arguments": [
        "0x7E29ee6eE5Ed4195C797B06f20b0a500eA30a79C",
        "0x7E29ee6eE5Ed4195C797B06f20b0a500eA30a79C",
        "0",
        "0",
        "100000000000000000000"
      ],
      "transaction": {
        "from": "0x75998e806d0be5b37c5de74acfa0006b3c7dcdff",
        "to": "0x311c9cc21913d49b06578fb931033e624c61027c",
        "gas": "0x2748b",
        "value": "0x0",
        "input": "0xd1cd871d0000000000000000000000007e29ee6ee5ed4195c797b06f20b0a500ea30a79c0000000000000000000000007e29ee6ee5ed4195c797b06f20b0a500ea30a79c000000000000000000000000000000000000000000000000000000000000000000000000000000000000000000000000000000000000000000000000000000000000000000000000000000000000000000000000000000056bc75e2d63100000",
        "nonce": "0x5f",
        "chainId": "0xaa36a7"
      },
      "additionalContracts": [],
      "isFixedGasLimit": false
    }
  ],
  "receipts": [
    {
      "status": "0x1",
      "cumulativeGasUsed": "0x705ca7",
      "logs": [],
      "logsBloom": "0x00000000000000000000000000000000000000000000000000000000000000000000000000000000000000000000000000000000000000000000000000000000000000000000000000000000000000000000000000000000000000000000000000000000000000000000000000000000000000000000000000000000000000000000000000000000000000000000000000000000000000000000000000000000000000000000000000000000000000000000000000000000000000000000000000000000000000000000000000000000000000000000000000000000000000000000000000000000000000000000000000000000000000000000000000000000",
      "type": "0x2",
      "transactionHash": "0x81b08e8e276678c2d0e405891e7ec2d8b12d77db8489b37a9259efc8f5ae8c3e",
      "transactionIndex": "0x2e",
      "blockHash": "0xf61fd2660ac2f1b9adb139554ee5a3276a22832d65399353b223545d598cd649",
      "blockNumber": "0x629318",
      "gasUsed": "0x7c1c9",
      "effectiveGasPrice": "0x24610a1b2",
      "from": "0x75998e806d0be5b37c5de74acfa0006b3c7dcdff",
      "to": null,
      "contractAddress": "0x311c9cc21913d49b06578fb931033e624c61027c"
    },
    {
      "status": "0x1",
      "cumulativeGasUsed": "0x712591",
      "logs": [
        {
          "address": "0x89e7fdbd1ea30300719357a1584c28ee34bcb4be",
          "topics": [
            "0xddf252ad1be2c89b69c2b068fc378daa952ba7f163c4a11628f55a4df523b3ef",
            "0x0000000000000000000000000000000000000000000000000000000000000000",
            "0x000000000000000000000000311c9cc21913d49b06578fb931033e624c61027c"
          ],
          "data": "0x00000000000000000000000000000000000000000000021e19e0c9bab2400000",
          "blockHash": "0xf61fd2660ac2f1b9adb139554ee5a3276a22832d65399353b223545d598cd649",
          "blockNumber": "0x629318",
          "transactionHash": "0x3d52c2ffcadcdc4e9a0097b633662c28ca0b7abe7f103a5ad7789546e8dddd41",
          "transactionIndex": "0x2f",
          "logIndex": "0x3d",
          "removed": false
        }
      ],
      "logsBloom": "0x00200000000000000000000000000000000000000000000000000000000000000000000000000000000000000000000000000000000020080000200000000000000000000000000000000008000000000000000000000000000000000000000000000000020000000000000000000800000000000000000000000010000000000000000000000000000000000000000000000000000000000000000000000000000000000000000000000000000000000000000000000000000000000000000000000002000000000000000000000000000000000000000000000000000020400000000000000000000000001000000000000000000000000000000000000000",
      "type": "0x2",
      "transactionHash": "0x3d52c2ffcadcdc4e9a0097b633662c28ca0b7abe7f103a5ad7789546e8dddd41",
      "transactionIndex": "0x2f",
      "blockHash": "0xf61fd2660ac2f1b9adb139554ee5a3276a22832d65399353b223545d598cd649",
      "blockNumber": "0x629318",
      "gasUsed": "0xc8ea",
      "effectiveGasPrice": "0x24610a1b2",
      "from": "0x75998e806d0be5b37c5de74acfa0006b3c7dcdff",
      "to": "0x89e7fdbd1ea30300719357a1584c28ee34bcb4be",
      "contractAddress": null
    },
    {
      "status": "0x1",
      "cumulativeGasUsed": "0x72eca0",
      "logs": [],
      "logsBloom": "0x00000000000000000000000000000000000000000000000000000000000000000000000000000000000000000000000000000000000000000000000000000000000000000000000000000000000000000000000000000000000000000000000000000000000000000000000000000000000000000000000000000000000000000000000000000000000000000000000000000000000000000000000000000000000000000000000000000000000000000000000000000000000000000000000000000000000000000000000000000000000000000000000000000000000000000000000000000000000000000000000000000000000000000000000000000000",
      "type": "0x2",
      "transactionHash": "0x2022a60d3fdff5f0f73cb53f35f1bdb993f37d9a9bad5e44d6b874d49d676f3a",
      "transactionIndex": "0x30",
      "blockHash": "0xf61fd2660ac2f1b9adb139554ee5a3276a22832d65399353b223545d598cd649",
      "blockNumber": "0x629318",
      "gasUsed": "0x1c70f",
      "effectiveGasPrice": "0x24610a1b2",
      "from": "0x75998e806d0be5b37c5de74acfa0006b3c7dcdff",
      "to": "0x311c9cc21913d49b06578fb931033e624c61027c",
      "contractAddress": null
    }
  ],
  "libraries": [],
  "pending": [],
  "returns": {},
  "timestamp": 1723114290,
  "chain": 11155111,
  "commit": "84b1ee4"
}