{
  "transactions": [
    {
      "hash": "0xc0dd1bd70a53bfca8fbfff9c92af153333e2b1326be4deae442929d747f3d7eb",
      "transactionType": "CREATE",
      "contractName": "MultiTokenKeeper",
      "contractAddress": "0x6a22b07479d840f862271d927eb25d62289cfaed",
      "function": null,
      "arguments": [
        "0xC532a74256D3Db42D0Bf7a0400fEFDbad7694008",
        "0x89E7fdbd1EA30300719357A1584C28ee34bcB4bE"
      ],
      "transaction": {
        "from": "0x75998e806d0be5b37c5de74acfa0006b3c7dcdff",
        "gas": "0x165fb8",
        "value": "0x0",
        "input": "0x6080604052348015600f57600080fd5b5060405161134a38038061134a833981016040819052602c916077565b600280546001600160a01b039384166001600160a01b0319918216179091556001805492909316911617905560a5565b80516001600160a01b0381168114607257600080fd5b919050565b60008060408385031215608957600080fd5b609083605c565b9150609c60208401605c565b90509250929050565b611296806100b46000396000f3fe608060405234801561001057600080fd5b50600436106100b45760003560e01c8063735de9f711610071578063735de9f7146101635780638c651f111461018e5780639ab4a445146101bd578063a85c38ef146101d0578063d0aae7a5146101f6578063d1cd871d1461022957600080fd5b806311a00327146100b957806316345f18146100ce5780632a58b330146100f45780634585e33b146100fd5780636689adde146101105780636e04ff0d14610142575b600080fd5b6100cc6100c7366004610cbb565b61023c565b005b6100e16100dc366004610cf0565b61044a565b6040519081526020015b60405180910390f35b6100e160035481565b6100cc61010b366004610d12565b6104bb565b6100cc61011e366004610cf0565b6001600160a01b03166000908152600460205260409020805460ff19166001179055565b610155610150366004610d12565b61057b565b6040516100eb929190610d86565b600254610176906001600160a01b031681565b6040516001600160a01b0390911681526020016100eb565b6100cc61019c366004610cf0565b6001600160a01b03166000908152600460205260409020805460ff19169055565b600154610176906001600160a01b031681565b6101e36101de366004610cbb565b610652565b6040516100eb9796959493929190610e15565b610219610204366004610cf0565b60046020526000908152604090205460ff1681565b60405190151581526020016100eb565b6100cc610237366004610e6d565b6106b7565b60005481106102925760405162461bcd60e51b815260206004820152601960248201527f4f7264657220696e646578206f7574206f6620626f756e64730000000000000060448201526064015b60405180910390fd5b805b6000546102a390600190610ed8565b8110156103a65760006102b7826001610ef1565b815481106102c7576102c7610f04565b9060005260206000209060060201600082815481106102e8576102e8610f04565b60009182526020909120825460069092020190815560018083015481830180546001600160a01b03199081166001600160a01b03938416179091556002808601805491860180549384169290941691821784555460ff600160a01b9182900416946001600160a81b031990931690911791849081111561036a5761036a610ddd565b021790555060038281015490820155600480830154908201805460ff191660ff9092161515919091179055600591820154910155600101610294565b5060008054806103b8576103b8610f1a565b6000828152602081206006600019909301928302018181556001810180546001600160a01b03191690556002810180546001600160a81b03191690556003810182905560048101805460ff191690556005015590556040517f91635156bba825be2f9a200b140420e4bee0d251f7d43bf956e63f74960030e09061043f9083815260200190565b60405180910390a150565b600080826001600160a01b031663feaf968c6040518163ffffffff1660e01b815260040160a060405180830381865afa15801561048b573d6000803e3d6000fd5b505050506040513d601f19601f820116820180604052508101906104af9190610f4a565b50919695505050505050565b60006104c98284018461101d565b905060006104da826040015161044a565b90507fe317dab6c24412531a104b7fae35d5271976c773fae5615e5fba0b02347257688160405161050d91815260200190565b60405180910390a160008260600151600181111561052d5761052d610ddd565b036105475761053b82610854565b600160a0830152610575565b60018260600151600181111561055f5761055f610ddd565b036105755761056d82610a3c565b600160a08301525b50505050565b60006060815b60005481101561064a5760006105c5600083815481106105a3576105a3610f04565b60009182526020909120600260069092020101546001600160a01b031661044a565b9050600082815481106105da576105da610f04565b600091825260209091206004600690920201015460ff1661064157600193506000828154811061060c5761060c610f04565b906000526020600020906006020160405160200161062a91906110a0565b60405160208183030381529060405292505061064a565b50600101610581565b509250929050565b6000818154811061066257600080fd5b60009182526020909120600690910201805460018201546002830154600384015460048501546005909501549395506001600160a01b039283169492821693600160a01b90920460ff90811693919291169087565b6001600160a01b03841660009081526004602052604090205460ff1661071f5760405162461bcd60e51b815260206004820152601760248201527f41676772656761746f72206e6f7420617070726f7665640000000000000000006044820152606401610289565b60006040518060e001604052806003548152602001876001600160a01b03168152602001866001600160a01b0316815260200185600181111561076457610764610ddd565b815260208082018690526000604080840182905260609384018790528554600180820188559683529183902085516006909302019182559184015181860180546001600160a01b03199081166001600160a01b03938416179091559285015160028301805494851691909216908117825593850151949591949390926001600160a81b0319161790600160a01b90849081111561080357610803610ddd565b0217905550608082015160038281019190915560a083015160048301805460ff191691151591909117905560c090920151600590910155805490600061084883611107565b91905055505050505050565b602081015160c082015160408051600280825260608201909252600091816020016020820280368337505060015482519293506001600160a01b0316918391506000906108a3576108a3610f04565b60200260200101906001600160a01b031690816001600160a01b03168152505082816001815181106108d7576108d7610f04565b6001600160a01b03928316602091820292909201015260015460025460405163095ea7b360e01b815290831660048201526024810185905291169063095ea7b3906044016020604051808303816000875af115801561093a573d6000803e3d6000fd5b505050506040513d601f19601f8201168201806040525081019061095e9190611120565b506002546001600160a01b03166338ed1739836000843061098042600f610ef1565b6040518663ffffffff1660e01b81526004016109a095949392919061113d565b6000604051808303816000875af11580156109bf573d6000803e3d6000fd5b505050506040513d6000823e601f3d908101601f191682016040526109e791908101906111af565b5083516109f390610c08565b604080516001600160a01b0385168152602081018490527f55c18555197c6574627cf460c66073d10aa05d412468800b7b71feeaf82ea92d91015b60405180910390a150505050565b602081015160c0820151604080516002808252606082019092526000918160200160208202803683370190505090508281600081518110610a7f57610a7f610f04565b6001600160a01b0392831660209182029290920101526001805483519216918391908110610aaf57610aaf610f04565b6001600160a01b03928316602091820292909201015260025460405163095ea7b360e01b81529082166004820152602481018490529084169063095ea7b3906044016020604051808303816000875af1158015610b10573d6000803e3d6000fd5b505050506040513d601f19601f82011682018060405250810190610b349190611120565b506002546001600160a01b03166338ed17398360008430610b5642600f610ef1565b6040518663ffffffff1660e01b8152600401610b7695949392919061113d565b6000604051808303816000875af1158015610b95573d6000803e3d6000fd5b505050506040513d6000823e601f3d908101601f19168201604052610bbd91908101906111af565b508351610bc990610c08565b604080516001600160a01b0385168152602081018490527ffe2ff4cf36ff7d2c2b06eb960897ee0d76d9c3e58da12feb7b93e86b226dd3449101610a2e565b60005b600054811015610cb7578160008281548110610c2957610c29610f04565b90600052602060002090600602016000015403610caf57600160008281548110610c5557610c55610f04565b600091825260209182902060069190910201600401805460ff1916921515929092179091556040518381527f7c44208b5a90de3907889263317a131f5178339f16bd7d512528f9f48876ffdc910160405180910390a15050565b600101610c0b565b5050565b600060208284031215610ccd57600080fd5b5035919050565b80356001600160a01b0381168114610ceb57600080fd5b919050565b600060208284031215610d0257600080fd5b610d0b82610cd4565b9392505050565b60008060208385031215610d2557600080fd5b823567ffffffffffffffff811115610d3c57600080fd5b8301601f81018513610d4d57600080fd5b803567ffffffffffffffff811115610d6457600080fd5b856020828401011115610d7657600080fd5b6020919091019590945092505050565b8215158152604060208201526000825180604084015260005b81811015610dbc5760208186018101516060868401015201610d9f565b506000606082850101526060601f19601f8301168401019150509392505050565b634e487b7160e01b600052602160045260246000fd5b60028110610e1157634e487b7160e01b600052602160045260246000fd5b9052565b8781526001600160a01b0387811660208301528616604082015260e08101610e406060830187610df3565b608082019490945291151560a083015260c090910152949350505050565b803560028110610ceb57600080fd5b600080600080600060a08688031215610e8557600080fd5b610e8e86610cd4565b9450610e9c60208701610cd4565b9350610eaa60408701610e5e565b94979396509394606081013594506080013592915050565b634e487b7160e01b600052601160045260246000fd5b81810381811115610eeb57610eeb610ec2565b92915050565b80820180821115610eeb57610eeb610ec2565b634e487b7160e01b600052603260045260246000fd5b634e487b7160e01b600052603160045260246000fd5b805169ffffffffffffffffffff81168114610ceb57600080fd5b600080600080600060a08688031215610f6257600080fd5b610f6b86610f30565b60208701516040880151606089015192975090955093509150610f9060808701610f30565b90509295509295909350565b634e487b7160e01b600052604160045260246000fd5b60405160e0810167ffffffffffffffff81118282101715610fd557610fd5610f9c565b60405290565b604051601f8201601f1916810167ffffffffffffffff8111828210171561100457611004610f9c565b604052919050565b801515811461101a57600080fd5b50565b600060e082840312801561103057600080fd5b50611039610fb2565b8235815261104960208401610cd4565b602082015261105a60408401610cd4565b604082015261106b60608401610e5e565b60608201526080838101359082015260a08301356110888161100c565b60a082015260c0928301359281019290925250919050565b8154815260018201546001600160a01b0390811660208301526002830154908116604083015260e08201906110de6060840160ff8360a01c16610df3565b5060038301546080830152600483015460ff16151560a083015260059092015460c09091015290565b60006001820161111957611119610ec2565b5060010190565b60006020828403121561113257600080fd5b8151610d0b8161100c565b600060a0820187835286602084015260a0604084015280865180835260c08501915060208801925060005b8181101561118f5783516001600160a01b0316835260209384019390920191600101611168565b50506001600160a01b039590951660608401525050608001529392505050565b6000602082840312156111c157600080fd5b815167ffffffffffffffff8111156111d857600080fd5b8201601f810184136111e957600080fd5b805167ffffffffffffffff81111561120357611203610f9c565b8060051b61121360208201610fdb565b9182526020818401810192908101908784111561122f57600080fd5b6020850194505b8385101561125557845180835260209586019590935090910190611236565b97965050505050505056fea2646970667358221220bd25ab98d251caa56b8300fb530a3636f3e5109c48c7fa2e43fce164e0fcda7a64736f6c634300081a0033000000000000000000000000c532a74256d3db42d0bf7a0400fefdbad769400800000000000000000000000089e7fdbd1ea30300719357a1584c28ee34bcb4be",
        "nonce": "0x82",
        "chainId": "0xaa36a7"
      },
      "additionalContracts": [],
      "isFixedGasLimit": false
    },
    {
      "hash": "0xf8e316503fb2ddc9926e77841ede0a37fa775e6ecee136bb296f685a7ae7ee6f",
      "transactionType": "CALL",
      "contractName": "MultiTokenKeeper",
      "contractAddress": "0x6a22b07479d840f862271d927eb25d62289cfaed",
      "function": "approveAggregator(address)",
      "arguments": [
        "0x1b44F3514812d835EB1BDB0acB33d3fA3351Ee43"
      ],
      "transaction": {
        "from": "0x75998e806d0be5b37c5de74acfa0006b3c7dcdff",
        "to": "0x6a22b07479d840f862271d927eb25d62289cfaed",
        "gas": "0xfb79",
        "value": "0x0",
        "input": "0x6689adde0000000000000000000000001b44f3514812d835eb1bdb0acb33d3fa3351ee43",
        "nonce": "0x83",
        "chainId": "0xaa36a7"
      },
      "additionalContracts": [],
      "isFixedGasLimit": false
    },
    {
      "hash": "0xdc661691b287fdb6485215ad560451df116cc46fd06caf846b86c39e190d8b33",
      "transactionType": "CALL",
      "contractName": null,
      "contractAddress": "0x89e7fdbd1ea30300719357a1584c28ee34bcb4be",
      "function": "mint(address,uint256)",
      "arguments": [
        "0x6a22B07479d840f862271D927EB25d62289CFAeD",
        "10000000000000000000000"
      ],
      "transaction": {
        "from": "0x75998e806d0be5b37c5de74acfa0006b3c7dcdff",
        "to": "0x89e7fdbd1ea30300719357a1584c28ee34bcb4be",
        "gas": "0x125d5",
        "value": "0x0",
        "input": "0x40c10f190000000000000000000000006a22b07479d840f862271d927eb25d62289cfaed00000000000000000000000000000000000000000000021e19e0c9bab2400000",
        "nonce": "0x84",
        "chainId": "0xaa36a7"
      },
      "additionalContracts": [],
      "isFixedGasLimit": false
    },
    {
      "hash": "0xa33071a7c061a316cff5e2905599ac6f134d8ac06a0da93854538f89110d672a",
      "transactionType": "CALL",
      "contractName": "MultiTokenKeeper",
      "contractAddress": "0x6a22b07479d840f862271d927eb25d62289cfaed",
      "function": "addOrder(address,address,uint8,int256,uint256)",
      "arguments": [
        "0x3aF31C01444f14F5761b7205685bc92663d5bDfB",
        "0x1b44F3514812d835EB1BDB0acB33d3fA3351Ee43",
        "0",
        "0",
        "100000000000000000000"
      ],
      "transaction": {
        "from": "0x75998e806d0be5b37c5de74acfa0006b3c7dcdff",
        "to": "0x6a22b07479d840f862271d927eb25d62289cfaed",
        "gas": "0x304b3",
        "value": "0x0",
        "input": "0xd1cd871d0000000000000000000000003af31c01444f14f5761b7205685bc92663d5bdfb0000000000000000000000001b44f3514812d835eb1bdb0acb33d3fa3351ee43000000000000000000000000000000000000000000000000000000000000000000000000000000000000000000000000000000000000000000000000000000000000000000000000000000000000000000000000000000056bc75e2d63100000",
        "nonce": "0x85",
        "chainId": "0xaa36a7"
      },
      "additionalContracts": [],
      "isFixedGasLimit": false
    }
  ],
  "receipts": [
    {
      "status": "0x1",
      "cumulativeGasUsed": "0x7d415c",
      "logs": [],
      "logsBloom": "0x00000000000000000000000000000000000000000000000000000000000000000000000000000000000000000000000000000000000000000000000000000000000000000000000000000000000000000000000000000000000000000000000000000000000000000000000000000000000000000000000000000000000000000000000000000000000000000000000000000000000000000000000000000000000000000000000000000000000000000000000000000000000000000000000000000000000000000000000000000000000000000000000000000000000000000000000000000000000000000000000000000000000000000000000000000000",
      "type": "0x2",
      "transactionHash": "0xc0dd1bd70a53bfca8fbfff9c92af153333e2b1326be4deae442929d747f3d7eb",
      "transactionIndex": "0x36",
      "blockHash": "0x182e4379fc428cdd66da63681fa45b843e021d9f74fb6a2652098451a923d02d",
      "blockNumber": "0x62a51e",
      "gasUsed": "0x11372a",
      "effectiveGasPrice": "0x6948a502",
      "from": "0x75998e806d0be5b37c5de74acfa0006b3c7dcdff",
      "to": null,
      "contractAddress": "0x6a22b07479d840f862271d927eb25d62289cfaed"
    },
    {
      "status": "0x1",
      "cumulativeGasUsed": "0x7ded4f",
      "logs": [],
      "logsBloom": "0x00000000000000000000000000000000000000000000000000000000000000000000000000000000000000000000000000000000000000000000000000000000000000000000000000000000000000000000000000000000000000000000000000000000000000000000000000000000000000000000000000000000000000000000000000000000000000000000000000000000000000000000000000000000000000000000000000000000000000000000000000000000000000000000000000000000000000000000000000000000000000000000000000000000000000000000000000000000000000000000000000000000000000000000000000000000",
      "type": "0x2",
      "transactionHash": "0xf8e316503fb2ddc9926e77841ede0a37fa775e6ecee136bb296f685a7ae7ee6f",
      "transactionIndex": "0x37",
      "blockHash": "0x182e4379fc428cdd66da63681fa45b843e021d9f74fb6a2652098451a923d02d",
      "blockNumber": "0x62a51e",
      "gasUsed": "0xabf3",
      "effectiveGasPrice": "0x6948a502",
      "from": "0x75998e806d0be5b37c5de74acfa0006b3c7dcdff",
      "to": "0x6a22b07479d840f862271d927eb25d62289cfaed",
      "contractAddress": null
    },
    {
      "status": "0x1",
      "cumulativeGasUsed": "0x7eb639",
      "logs": [
        {
          "address": "0x89e7fdbd1ea30300719357a1584c28ee34bcb4be",
          "topics": [
            "0xddf252ad1be2c89b69c2b068fc378daa952ba7f163c4a11628f55a4df523b3ef",
            "0x0000000000000000000000000000000000000000000000000000000000000000",
            "0x0000000000000000000000006a22b07479d840f862271d927eb25d62289cfaed"
          ],
          "data": "0x00000000000000000000000000000000000000000000021e19e0c9bab2400000",
          "blockHash": "0x182e4379fc428cdd66da63681fa45b843e021d9f74fb6a2652098451a923d02d",
          "blockNumber": "0x62a51e",
          "transactionHash": "0xdc661691b287fdb6485215ad560451df116cc46fd06caf846b86c39e190d8b33",
          "transactionIndex": "0x38",
          "logIndex": "0x48",
          "removed": false
        }
      ],
      "logsBloom": "0x00200000000000000000000000000000000000000000000200000000000000000000000000000000000000000000000000000000000000080000000000000000000000000000000400000008000000000000000000000000000000000000000000000000020000000000000000000800000000000000000000000010000000000000000000000000000000000000000000000000000000000000000000000000000000000000000000000000000000000000000000000000000000000000000000000002000010000000000000000000000000000000000000000000000020000000000000000000000000001000000000000000000000000000000000000000",
      "type": "0x2",
      "transactionHash": "0xdc661691b287fdb6485215ad560451df116cc46fd06caf846b86c39e190d8b33",
      "transactionIndex": "0x38",
      "blockHash": "0x182e4379fc428cdd66da63681fa45b843e021d9f74fb6a2652098451a923d02d",
      "blockNumber": "0x62a51e",
      "gasUsed": "0xc8ea",
      "effectiveGasPrice": "0x6948a502",
      "from": "0x75998e806d0be5b37c5de74acfa0006b3c7dcdff",
      "to": "0x89e7fdbd1ea30300719357a1584c28ee34bcb4be",
      "contractAddress": null
    },
    {
      "status": "0x1",
      "cumulativeGasUsed": "0xcf11c6",
      "logs": [],
      "logsBloom": "0x00000000000000000000000000000000000000000000000000000000000000000000000000000000000000000000000000000000000000000000000000000000000000000000000000000000000000000000000000000000000000000000000000000000000000000000000000000000000000000000000000000000000000000000000000000000000000000000000000000000000000000000000000000000000000000000000000000000000000000000000000000000000000000000000000000000000000000000000000000000000000000000000000000000000000000000000000000000000000000000000000000000000000000000000000000000",
      "type": "0x2",
      "transactionHash": "0xa33071a7c061a316cff5e2905599ac6f134d8ac06a0da93854538f89110d672a",
      "transactionIndex": "0x4c",
      "blockHash": "0x2f8ecba158be857549452aa2bbdc3838df3f60a6d347df0b1a3d67c55ace566b",
      "blockNumber": "0x62a51f",
      "gasUsed": "0x22f6d",
      "effectiveGasPrice": "0x67d4f563",
      "from": "0x75998e806d0be5b37c5de74acfa0006b3c7dcdff",
      "to": "0x6a22b07479d840f862271d927eb25d62289cfaed",
      "contractAddress": null
    }
  ],
  "libraries": [],
  "pending": [],
  "returns": {},
  "timestamp": 1723178283,
  "chain": 11155111,
  "commit": "4533426"
}