{
  "transactions": [
    {
      "hash": "0x459512b2756a5043f40bbc846e869e8119011df9d4d2d4ca5da2a59c6405062d",
      "transactionType": "CREATE",
      "contractName": "MultiTokenKeeper",
      "contractAddress": "0x4d4fb49053983ef146cba96c41fe7975800aac82",
      "function": null,
      "arguments": [
        "0xC532a74256D3Db42D0Bf7a0400fEFDbad7694008",
        "0x89E7fdbd1EA30300719357A1584C28ee34bcB4bE"
      ],
      "transaction": {
        "from": "0x75998e806d0be5b37c5de74acfa0006b3c7dcdff",
        "gas": "0x129333",
        "value": "0x0",
        "input": "0x6080604052348015600f57600080fd5b50604051610fd3380380610fd3833981016040819052602c916077565b600280546001600160a01b039384166001600160a01b0319918216179091556001805492909316911617905560a5565b80516001600160a01b0381168114607257600080fd5b919050565b60008060408385031215608957600080fd5b609083605c565b9150609c60208401605c565b90509250929050565b610f1f806100b46000396000f3fe608060405234801561001057600080fd5b50600436106100a95760003560e01c8063735de9f711610071578063735de9f71461014f5780638c651f111461017a5780639ab4a445146101a9578063a85c38ef146101bc578063d0aae7a5146101e1578063d1cd871d1461021457600080fd5b806311a00327146100ae57806316345f18146100c35780634585e33b146100e95780636689adde146100fc5780636e04ff0d1461012e575b600080fd5b6100c16100bc366004610982565b610227565b005b6100d66100d13660046109b7565b610424565b6040519081526020015b60405180910390f35b6100c16100f73660046109d9565b610495565b6100c161010a3660046109b7565b6001600160a01b03166000908152600360205260409020805460ff19166001179055565b61014161013c3660046109d9565b61050e565b6040516100e0929190610a4d565b600254610162906001600160a01b031681565b6040516001600160a01b0390911681526020016100e0565b6100c16101883660046109b7565b6001600160a01b03166000908152600360205260409020805460ff19169055565b600154610162906001600160a01b031681565b6101cf6101ca366004610982565b6105e5565b6040516100e096959493929190610adc565b6102046101ef3660046109b7565b60036020526000908152604090205460ff1681565b60405190151581526020016100e0565b6100c1610222366004610b2d565b610641565b600054811061027d5760405162461bcd60e51b815260206004820152601960248201527f4f7264657220696e646578206f7574206f6620626f756e64730000000000000060448201526064015b60405180910390fd5b805b60005461028e90600190610b98565b8110156103875760006102a2826001610bb1565b815481106102b2576102b2610bc4565b9060005260206000209060050201600082815481106102d3576102d3610bc4565b60009182526020909120825460059092020180546001600160a01b03199081166001600160a01b039384161782556001808501805482850180549485169190961690811786559054939460ff600160a01b95869004169490936001600160a81b03191690911791849081111561034b5761034b610aa4565b021790555060028281015490820155600380830154908201805460ff191660ff909216151591909117905560049182015491015560010161027f565b50600080548061039957610399610bda565b60008281526020812060056000199093019283020180546001600160a01b03191681556001810180546001600160a81b03191690556002810182905560038101805460ff191690556004015590556040517f91635156bba825be2f9a200b140420e4bee0d251f7d43bf956e63f74960030e0906104199083815260200190565b60405180910390a150565b600080826001600160a01b031663feaf968c6040518163ffffffff1660e01b815260040160a060405180830381865afa158015610465573d6000803e3d6000fd5b505050506040513d601f19601f820116820180604052508101906104899190610c0a565b50919695505050505050565b60006104a382840184610cb4565b905060006104b48260200151610424565b90507fe317dab6c24412531a104b7fae35d5271976c773fae5615e5fba0b0234725768816040516104e791815260200190565b60405180910390a161050182600001518360a001516107b5565b5060016080909101525050565b60006060815b6000548110156105dd5760006105586000838154811061053657610536610bc4565b60009182526020909120600160059092020101546001600160a01b0316610424565b90506000828154811061056d5761056d610bc4565b600091825260209091206003600590920201015460ff166105d457600193506000828154811061059f5761059f610bc4565b90600052602060002090600502016040516020016105bd9190610d4b565b6040516020818303038152906040529250506105dd565b50600101610514565b509250929050565b600081815481106105f557600080fd5b6000918252602090912060059091020180546001820154600283015460038401546004909401546001600160a01b0393841695509282169360ff600160a01b9093048316939192169086565b6001600160a01b03841660009081526003602052604090205460ff166106a95760405162461bcd60e51b815260206004820152601760248201527f41676772656761746f72206e6f7420617070726f7665640000000000000000006044820152606401610274565b60006040518060c00160405280876001600160a01b03168152602001866001600160a01b031681526020018560018111156106e6576106e6610aa4565b8152602080820186905260006040808401829052606090930186905284546001808201875595825290829020845160059092020180546001600160a01b03199081166001600160a01b0393841617825592850151818701805494851691909316908117835593850151949590949391926001600160a81b03191690911790600160a01b90849081111561077b5761077b610aa4565b021790555060608201516002820155608082015160038201805460ff191691151591909117905560a0909101516004909101555050505050565b604080516002808252606082018352600092602083019080368337505060015482519293506001600160a01b0316918391506000906107f6576107f6610bc4565b60200260200101906001600160a01b031690816001600160a01b031681525050828160018151811061082a5761082a610bc4565b6001600160a01b03928316602091820292909201015260015460025460405163095ea7b360e01b815290831660048201526024810185905291169063095ea7b3906044016020604051808303816000875af115801561088d573d6000803e3d6000fd5b505050506040513d601f19601f820116820180604052508101906108b19190610da9565b506002546001600160a01b03166338ed173983600084306108d342600f610bb1565b6040518663ffffffff1660e01b81526004016108f3959493929190610dc6565b6000604051808303816000875af1158015610912573d6000803e3d6000fd5b505050506040513d6000823e601f3d908101601f1916820160405261093a9190810190610e38565b50604080516001600160a01b0385168152602081018490527f55c18555197c6574627cf460c66073d10aa05d412468800b7b71feeaf82ea92d910160405180910390a1505050565b60006020828403121561099457600080fd5b5035919050565b80356001600160a01b03811681146109b257600080fd5b919050565b6000602082840312156109c957600080fd5b6109d28261099b565b9392505050565b600080602083850312156109ec57600080fd5b823567ffffffffffffffff811115610a0357600080fd5b8301601f81018513610a1457600080fd5b803567ffffffffffffffff811115610a2b57600080fd5b856020828401011115610a3d57600080fd5b6020919091019590945092505050565b8215158152604060208201526000825180604084015260005b81811015610a835760208186018101516060868401015201610a66565b506000606082850101526060601f19601f8301168401019150509392505050565b634e487b7160e01b600052602160045260246000fd5b60028110610ad857634e487b7160e01b600052602160045260246000fd5b9052565b6001600160a01b0387811682528616602082015260c08101610b016040830187610aba565b6060820194909452911515608083015260a0909101529392505050565b8035600281106109b257600080fd5b600080600080600060a08688031215610b4557600080fd5b610b4e8661099b565b9450610b5c6020870161099b565b9350610b6a60408701610b1e565b94979396509394606081013594506080013592915050565b634e487b7160e01b600052601160045260246000fd5b81810381811115610bab57610bab610b82565b92915050565b80820180821115610bab57610bab610b82565b634e487b7160e01b600052603260045260246000fd5b634e487b7160e01b600052603160045260246000fd5b805169ffffffffffffffffffff811681146109b257600080fd5b600080600080600060a08688031215610c2257600080fd5b610c2b86610bf0565b60208701516040880151606089015192975090955093509150610c5060808701610bf0565b90509295509295909350565b634e487b7160e01b600052604160045260246000fd5b604051601f8201601f1916810167ffffffffffffffff81118282101715610c9b57610c9b610c5c565b604052919050565b8015158114610cb157600080fd5b50565b600060c0828403128015610cc757600080fd5b5060405160c0810167ffffffffffffffff81118282101715610ceb57610ceb610c5c565b604052610cf78361099b565b8152610d056020840161099b565b6020820152610d1660408401610b1e565b6040820152606083810135908201526080830135610d3381610ca3565b608082015260a0928301359281019290925250919050565b81546001600160a01b0390811682526001830154908116602083015260c0820190610d806040840160a083901c60ff16610aba565b5060028301546060830152600383015460ff161515608083015260049092015460a09091015290565b600060208284031215610dbb57600080fd5b81516109d281610ca3565b600060a0820187835286602084015260a0604084015280865180835260c08501915060208801925060005b81811015610e185783516001600160a01b0316835260209384019390920191600101610df1565b50506001600160a01b039590951660608401525050608001529392505050565b600060208284031215610e4a57600080fd5b815167ffffffffffffffff811115610e6157600080fd5b8201601f81018413610e7257600080fd5b805167ffffffffffffffff811115610e8c57610e8c610c5c565b8060051b610e9c60208201610c72565b91825260208184018101929081019087841115610eb857600080fd5b6020850194505b83851015610ede57845180835260209586019590935090910190610ebf565b97965050505050505056fea2646970667358221220407c9986ca7e02568168aababf73d42c24b3a0b544d2526268990d6b48741ea664736f6c634300081a0033000000000000000000000000c532a74256d3db42d0bf7a0400fefdbad769400800000000000000000000000089e7fdbd1ea30300719357a1584c28ee34bcb4be",
        "nonce": "0x6a",
        "chainId": "0xaa36a7"
      },
      "additionalContracts": [],
      "isFixedGasLimit": false
    },
    {
      "hash": "0x22e3de794339b265c8441895ee056b20d31457e50ef40723d825f0e1a89f7e74",
      "transactionType": "CALL",
      "contractName": "MultiTokenKeeper",
      "contractAddress": "0x4d4fb49053983ef146cba96c41fe7975800aac82",
      "function": "approveAggregator(address)",
      "arguments": [
        "0x1b44F3514812d835EB1BDB0acB33d3fA3351Ee43"
      ],
      "transaction": {
        "from": "0x75998e806d0be5b37c5de74acfa0006b3c7dcdff",
        "to": "0x4d4fb49053983ef146cba96c41fe7975800aac82",
        "gas": "0xed61",
        "value": "0x0",
        "input": "0x6689adde0000000000000000000000001b44f3514812d835eb1bdb0acb33d3fa3351ee43",
        "nonce": "0x6b",
        "chainId": "0xaa36a7"
      },
      "additionalContracts": [],
      "isFixedGasLimit": false
    },
    {
      "hash": "0x928ee2eecdc866bc89a12163b3f2ed6a8d5480609bddfe8a9d8cadda6a95fe10",
      "transactionType": "CALL",
      "contractName": null,
      "contractAddress": "0x89e7fdbd1ea30300719357a1584c28ee34bcb4be",
      "function": "mint(address,uint256)",
      "arguments": [
        "0x4d4FB49053983Ef146CBa96c41fE7975800AaC82",
        "10000000000000000000000"
      ],
      "transaction": {
        "from": "0x75998e806d0be5b37c5de74acfa0006b3c7dcdff",
        "to": "0x89e7fdbd1ea30300719357a1584c28ee34bcb4be",
        "gas": "0x125d5",
        "value": "0x0",
        "input": "0x40c10f190000000000000000000000004d4fb49053983ef146cba96c41fe7975800aac8200000000000000000000000000000000000000000000021e19e0c9bab2400000",
        "nonce": "0x6c",
        "chainId": "0xaa36a7"
      },
      "additionalContracts": [],
      "isFixedGasLimit": false
    },
    {
      "hash": "0x048d7c8bf0f5247680d5e157c56ce7548eb70e562cbd653eca9c809caba27064",
      "transactionType": "CALL",
      "contractName": "MultiTokenKeeper",
      "contractAddress": "0x4d4fb49053983ef146cba96c41fe7975800aac82",
      "function": "addOrder(address,address,uint8,int256,uint256)",
      "arguments": [
        "0x7E29ee6eE5Ed4195C797B06f20b0a500eA30a79C",
        "0x1b44F3514812d835EB1BDB0acB33d3fA3351Ee43",
        "0",
        "0",
        "100000000000000000000"
      ],
      "transaction": {
        "from": "0x75998e806d0be5b37c5de74acfa0006b3c7dcdff",
        "to": "0x4d4fb49053983ef146cba96c41fe7975800aac82",
        "gas": "0x28040",
        "value": "0x0",
        "input": "0xd1cd871d0000000000000000000000007e29ee6ee5ed4195c797b06f20b0a500ea30a79c0000000000000000000000001b44f3514812d835eb1bdb0acb33d3fa3351ee43000000000000000000000000000000000000000000000000000000000000000000000000000000000000000000000000000000000000000000000000000000000000000000000000000000000000000000000000000000056bc75e2d63100000",
        "nonce": "0x6d",
        "chainId": "0xaa36a7"
      },
      "additionalContracts": [],
      "isFixedGasLimit": false
    }
  ],
  "receipts": [
    {
      "status": "0x1",
      "cumulativeGasUsed": "0xc4cf8b",
      "logs": [],
      "logsBloom": "0x00000000000000000000000000000000000000000000000000000000000000000000000000000000000000000000000000000000000000000000000000000000000000000000000000000000000000000000000000000000000000000000000000000000000000000000000000000000000000000000000000000000000000000000000000000000000000000000000000000000000000000000000000000000000000000000000000000000000000000000000000000000000000000000000000000000000000000000000000000000000000000000000000000000000000000000000000000000000000000000000000000000000000000000000000000000",
      "type": "0x2",
      "transactionHash": "0x459512b2756a5043f40bbc846e869e8119011df9d4d2d4ca5da2a59c6405062d",
      "transactionIndex": "0x46",
      "blockHash": "0xc94bcfb4ca9f0fae7ce851c468f456ee32d5072181aa16a9689671521b13358d",
      "blockNumber": "0x62938f",
      "gasUsed": "0xe4adb",
      "effectiveGasPrice": "0x298d9115d",
      "from": "0x75998e806d0be5b37c5de74acfa0006b3c7dcdff",
      "to": null,
      "contractAddress": "0x4d4fb49053983ef146cba96c41fe7975800aac82"
    },
    {
      "status": "0x1",
      "cumulativeGasUsed": "0xc57b68",
      "logs": [],
      "logsBloom": "0x00000000000000000000000000000000000000000000000000000000000000000000000000000000000000000000000000000000000000000000000000000000000000000000000000000000000000000000000000000000000000000000000000000000000000000000000000000000000000000000000000000000000000000000000000000000000000000000000000000000000000000000000000000000000000000000000000000000000000000000000000000000000000000000000000000000000000000000000000000000000000000000000000000000000000000000000000000000000000000000000000000000000000000000000000000000",
      "type": "0x2",
      "transactionHash": "0x22e3de794339b265c8441895ee056b20d31457e50ef40723d825f0e1a89f7e74",
      "transactionIndex": "0x47",
      "blockHash": "0xc94bcfb4ca9f0fae7ce851c468f456ee32d5072181aa16a9689671521b13358d",
      "blockNumber": "0x62938f",
      "gasUsed": "0xabdd",
      "effectiveGasPrice": "0x298d9115d",
      "from": "0x75998e806d0be5b37c5de74acfa0006b3c7dcdff",
      "to": "0x4d4fb49053983ef146cba96c41fe7975800aac82",
      "contractAddress": null
    },
    {
      "status": "0x1",
      "cumulativeGasUsed": "0xc64452",
      "logs": [
        {
          "address": "0x89e7fdbd1ea30300719357a1584c28ee34bcb4be",
          "topics": [
            "0xddf252ad1be2c89b69c2b068fc378daa952ba7f163c4a11628f55a4df523b3ef",
            "0x0000000000000000000000000000000000000000000000000000000000000000",
            "0x0000000000000000000000004d4fb49053983ef146cba96c41fe7975800aac82"
          ],
          "data": "0x00000000000000000000000000000000000000000000021e19e0c9bab2400000",
          "blockHash": "0xc94bcfb4ca9f0fae7ce851c468f456ee32d5072181aa16a9689671521b13358d",
          "blockNumber": "0x62938f",
          "transactionHash": "0x928ee2eecdc866bc89a12163b3f2ed6a8d5480609bddfe8a9d8cadda6a95fe10",
          "transactionIndex": "0x48",
          "logIndex": "0x5f",
          "removed": false
        }
      ],
      "logsBloom": "0x002000000000000000000000000000000000000000000000000000000000000000000000000000000000000000000000000000000000000c0000000000000000000000000000000000000008000000000400020000000000000000000000000000000000020000000000000000000800000000000000000000000010000000000000000000000000000000000000000000000000000000000000000000000000000000000000000000000000000000000000000000000000000000000000000000000002000000000000000000000000000000000000000000000000000020000000000000000000000000001000000000000000000000000000000000000000",
      "type": "0x2",
      "transactionHash": "0x928ee2eecdc866bc89a12163b3f2ed6a8d5480609bddfe8a9d8cadda6a95fe10",
      "transactionIndex": "0x48",
      "blockHash": "0xc94bcfb4ca9f0fae7ce851c468f456ee32d5072181aa16a9689671521b13358d",
      "blockNumber": "0x62938f",
      "gasUsed": "0xc8ea",
      "effectiveGasPrice": "0x298d9115d",
      "from": "0x75998e806d0be5b37c5de74acfa0006b3c7dcdff",
      "to": "0x89e7fdbd1ea30300719357a1584c28ee34bcb4be",
      "contractAddress": null
    },
    {
      "status": "0x1",
      "cumulativeGasUsed": "0xc813da",
      "logs": [],
      "logsBloom": "0x00000000000000000000000000000000000000000000000000000000000000000000000000000000000000000000000000000000000000000000000000000000000000000000000000000000000000000000000000000000000000000000000000000000000000000000000000000000000000000000000000000000000000000000000000000000000000000000000000000000000000000000000000000000000000000000000000000000000000000000000000000000000000000000000000000000000000000000000000000000000000000000000000000000000000000000000000000000000000000000000000000000000000000000000000000000",
      "type": "0x2",
      "transactionHash": "0x048d7c8bf0f5247680d5e157c56ce7548eb70e562cbd653eca9c809caba27064",
      "transactionIndex": "0x49",
      "blockHash": "0xc94bcfb4ca9f0fae7ce851c468f456ee32d5072181aa16a9689671521b13358d",
      "blockNumber": "0x62938f",
      "gasUsed": "0x1cf88",
      "effectiveGasPrice": "0x298d9115d",
      "from": "0x75998e806d0be5b37c5de74acfa0006b3c7dcdff",
      "to": "0x4d4fb49053983ef146cba96c41fe7975800aac82",
      "contractAddress": null
    }
  ],
  "libraries": [],
  "pending": [],
  "returns": {},
  "timestamp": 1723116004,
  "chain": 11155111,
  "commit": "84b1ee4"
}