{
  "transactions": [
    {
      "hash": "0xeb79bed182d9dc1b67cca3f148149391b3f06e2c1b0a465e5841e2f76ae03414",
      "transactionType": "CREATE",
      "contractName": "Router",
      "contractAddress": "0x04b8132360c1129aae9a2fce025b40a3d25c609e",
      "function": null,
      "arguments": [
        "0x1689E7B1F10000AE47eBfE339a4f69dECd19F602"
      ],
      "transaction": {
        "from": "0x75998e806d0be5b37c5de74acfa0006b3c7dcdff",
        "gas": "0xeaa25",
        "value": "0x0",
        "input": "0x6080604052348015600f57600080fd5b50604051610c85380380610c85833981016040819052602c916050565b600080546001600160a01b0319166001600160a01b0392909216919091179055607e565b600060208284031215606157600080fd5b81516001600160a01b0381168114607757600080fd5b9392505050565b610bf88061008d6000396000f3fe60806040526004361061004a5760003560e01c8063735de9f71461004f57806375223ebe1461008c5780639d857e91146100ae578063af8c5f3a1461014f578063c0a2ec93146101b8575b600080fd5b34801561005b57600080fd5b5060005461006f906001600160a01b031681565b6040516001600160a01b0390911681526020015b60405180910390f35b34801561009857600080fd5b506100ac6100a73660046108d8565b6101cb565b005b3480156100ba57600080fd5b506101286100c936600461092c565b6040805180820182526000808252602091820181905267ffffffffffffffff94909416845260018082528285206001600160a01b0394851686528252938290208251808401909352805484168352909301549091169181019190915290565b6040805182516001600160a01b039081168252602093840151169281019290925201610083565b34801561015b57600080fd5b5061019861016a36600461092c565b6001602081815260009384526040808520909152918352912080549101546001600160a01b03918216911682565b604080516001600160a01b03938416815292909116602083015201610083565b6100ac6101c636600461095f565b610284565b6040805180820182526001600160a01b03848116808352848216602080850182815267ffffffffffffffff8b16600081815260018085528982208d8916808452908652918a9020985189546001600160a01b0319908116918a16919091178a5593519801805490931697909616969096179055855194855284019290925282840152606082015290517f23100b01664d2b1a34cfa556c0db93a24e5b6224316568a8e25fdd0bd679426f9181900360800190a150505050565b6001600160a01b0388166102f9578534146102f45760405162461bcd60e51b815260206004820152602560248201527f496e636f727265637420616d6f756e74206f66206e617469766520746f6b656e604482015264081cd95b9d60da1b60648201526084015b60405180910390fd5b6103ae565b6040516323b872dd60e01b8152336004820152306024820152604481018790526001600160a01b038916906323b872dd906064016020604051808303816000875af115801561034c573d6000803e3d6000fd5b505050506040513d601f19601f8201168201806040525081019061037091906109ff565b6103ae5760405162461bcd60e51b815260206004820152600f60248201526e151c985b9cd9995c8819985a5b1959608a1b60448201526064016102eb565b60008960028111156103c2576103c2610a28565b036103d9576103d48888888887610422565b610417565b60018960028111156103ed576103ed610a28565b1461041757600289600281111561040657610406610a28565b036104175761041788858589610616565b505050505050505050565b60005460405163095ea7b360e01b81526001600160a01b039182166004820152602481018590529086169063095ea7b3906044016020604051808303816000875af1158015610475573d6000803e3d6000fd5b505050506040513d601f19601f8201168201806040525081019061049991906109ff565b5060408051600280825260608201835260009260208301908036833701905050905085816000815181106104cf576104cf610a54565b60200260200101906001600160a01b031690816001600160a01b031681525050848160018151811061050357610503610a54565b6001600160a01b039283166020918202929092010152600080546040516338ed173960e01b8152919216906338ed17399061054a9088908890879089904290600401610a6a565b6000604051808303816000875af1158015610569573d6000803e3d6000fd5b505050506040513d6000823e601f3d908101601f191682016040526105919190810190610adc565b9050856001600160a01b0316876001600160a01b0316336001600160a01b03167f764f0dc063c06f32d89a3f3af80c0db4be8a090901f589a478b447e0a51f09f188856001815181106105e6576105e6610a54565b6020026020010151604051610605929190918252602082015260400190565b60405180910390a450505050505050565b67ffffffffffffffff831660009081526001602081815260408084206001600160a01b03808a16865290835293819020815180830190925280548516825290920154909216918101829052906106ae5760405162461bcd60e51b815260206004820152601f60248201527f44657374696e6174696f6e20706f6f6c206e6f7420726567697374657265640060448201526064016102eb565b6040516323b872dd60e01b8152336004820152306024820152604481018390526001600160a01b038616906323b872dd906064016020604051808303816000875af1158015610701573d6000803e3d6000fd5b505050506040513d601f19601f8201168201806040525081019061072591906109ff565b50805160405163095ea7b360e01b81526001600160a01b039182166004820152602481018490529086169063095ea7b3906044016020604051808303816000875af1158015610778573d6000803e3d6000fd5b505050506040513d601f19601f8201168201806040525081019061079c91906109ff565b5080516020808301516040805180820182526001600160a01b038881168252938101878152915163fee8c14d60e01b815267ffffffffffffffff8a1660048201529284166024840152518316604483015251606482015291169063fee8c14d906084016020604051808303816000875af115801561081e573d6000803e3d6000fd5b505050506040513d601f19601f820116820180604052508101906108429190610ba9565b506040805167ffffffffffffffff861681526001600160a01b0385811660208301529181018490529086169033907f673b4333c5d4e7b11bb594e7523f62f923ea43810e4dc7f995676c5d76b6f24b9060600160405180910390a35050505050565b803567ffffffffffffffff811681146108bc57600080fd5b919050565b80356001600160a01b03811681146108bc57600080fd5b600080600080608085870312156108ee57600080fd5b6108f7856108a4565b9350610905602086016108c1565b9250610913604086016108c1565b9150610921606086016108c1565b905092959194509250565b6000806040838503121561093f57600080fd5b610948836108a4565b9150610956602084016108c1565b90509250929050565b60008060008060008060008060006101208a8c03121561097e57600080fd5b89356003811061098d57600080fd5b985061099b60208b016108c1565b97506109a960408b016108c1565b965060608a0135955060808a013594506109c560a08b016108a4565b93506109d360c08b016108c1565b92506109e160e08b016108c1565b91506109f06101008b016108c1565b90509295985092959850929598565b600060208284031215610a1157600080fd5b81518015158114610a2157600080fd5b9392505050565b634e487b7160e01b600052602160045260246000fd5b634e487b7160e01b600052604160045260246000fd5b634e487b7160e01b600052603260045260246000fd5b600060a0820187835286602084015260a0604084015280865180835260c08501915060208801925060005b81811015610abc5783516001600160a01b0316835260209384019390920191600101610a95565b50506001600160a01b039590951660608401525050608001529392505050565b600060208284031215610aee57600080fd5b815167ffffffffffffffff811115610b0557600080fd5b8201601f81018413610b1657600080fd5b805167ffffffffffffffff811115610b3057610b30610a3e565b8060051b604051601f19603f830116810181811067ffffffffffffffff82111715610b5d57610b5d610a3e565b604052918252602081840181019290810187841115610b7b57600080fd5b6020850194505b83851015610b9e57845180825260209586019590935001610b82565b509695505050505050565b600060208284031215610bbb57600080fd5b505191905056fea26469706673582212200108dfd5321d80fda2573542975484521619f6320a7f6e8f507075bceabe5a9a64736f6c634300081a00330000000000000000000000001689e7b1f10000ae47ebfe339a4f69decd19f602",
        "nonce": "0x5a",
        "chainId": "0x14a34"
      },
      "additionalContracts": [],
      "isFixedGasLimit": false
    },
    {
      "hash": "0x03f6984167f18d3b043a50d9fcf3a3afe45a4ea45cb1efd98c2287dc665331b1",
      "transactionType": "CALL",
      "contractName": "Router",
      "contractAddress": "0x04b8132360c1129aae9a2fce025b40a3d25c609e",
      "function": "registerPool(uint64,address,address,address)",
      "arguments": [
        "16015286601757825753",
        "0x84cEc3F89A0f28803F177575BbF7b2010A62d2Ec",
        "0x20Fa0Fc715121F50ffe229E0DB1504543d04cEA3",
        "0x8B9572E05ee495cd9DDbeBC50b60F6aC3b4eF9dB"
      ],
      "transaction": {
        "from": "0x75998e806d0be5b37c5de74acfa0006b3c7dcdff",
        "to": "0x04b8132360c1129aae9a2fce025b40a3d25c609e",
        "gas": "0x1769a",
        "value": "0x0",
        "input": "0x75223ebe000000000000000000000000000000000000000000000000de41ba4fc9d91ad900000000000000000000000084cec3f89a0f28803f177575bbf7b2010a62d2ec00000000000000000000000020fa0fc715121f50ffe229e0db1504543d04cea30000000000000000000000008b9572e05ee495cd9ddbebc50b60f6ac3b4ef9db",
        "nonce": "0x5b",
        "chainId": "0x14a34"
      },
      "additionalContracts": [],
      "isFixedGasLimit": false
    },
    {
      "hash": "0x158565304d129ae255cc742ac12468a6b78cfaa20e4b0e711cc74fa96584aa7e",
      "transactionType": "CALL",
      "contractName": null,
      "contractAddress": "0x84cec3f89a0f28803f177575bbf7b2010a62d2ec",
      "function": "approve(address,uint256)",
      "arguments": [
        "0x04b8132360c1129aAE9A2fcE025B40a3D25C609e",
        "100000000000000000000000000000000000000"
      ],
      "transaction": {
        "from": "0x75998e806d0be5b37c5de74acfa0006b3c7dcdff",
        "to": "0x84cec3f89a0f28803f177575bbf7b2010a62d2ec",
        "gas": "0x10974",
        "value": "0x0",
        "input": "0x095ea7b300000000000000000000000004b8132360c1129aae9a2fce025b40a3d25c609e000000000000000000000000000000004b3b4ca85a86c47a098a224000000000",
        "nonce": "0x5c",
        "chainId": "0x14a34"
      },
      "additionalContracts": [],
      "isFixedGasLimit": false
    },
    {
      "hash": "0x737e55a7162d0a9c6ed1e5285186d0c0606500913e5f00076287e8066d38ab22",
      "transactionType": "CALL",
      "contractName": "Router",
      "contractAddress": "0x04b8132360c1129aae9a2fce025b40a3d25c609e",
      "function": "execute(uint8,address,address,uint256,uint256,uint64,address,address,address)",
      "arguments": [
        "2",
        "0x84cEc3F89A0f28803F177575BbF7b2010A62d2Ec",
        "0x0000000000000000000000000000000000000000",
        "50000000000000000000",
        "0",
        "16015286601757825753",
        "0x75998e806D0BE5B37c5DE74AcfA0006B3C7DCdfF",
        "0x0000000000000000000000000000000000000000",
        "0x0000000000000000000000000000000000000000"
      ],
      "transaction": {
        "from": "0x75998e806d0be5b37c5de74acfa0006b3c7dcdff",
        "to": "0x04b8132360c1129aae9a2fce025b40a3d25c609e",
        "gas": "0x4adbf",
        "value": "0x0",
        "input": "0xc0a2ec93000000000000000000000000000000000000000000000000000000000000000200000000000000000000000084cec3f89a0f28803f177575bbf7b2010a62d2ec0000000000000000000000000000000000000000000000000000000000000000000000000000000000000000000000000000000000000002b5e3af16b18800000000000000000000000000000000000000000000000000000000000000000000000000000000000000000000000000000000000000000000de41ba4fc9d91ad900000000000000000000000075998e806d0be5b37c5de74acfa0006b3c7dcdff00000000000000000000000000000000000000000000000000000000000000000000000000000000000000000000000000000000000000000000000000000000",
        "nonce": "0x5d",
        "chainId": "0x14a34"
      },
      "additionalContracts": [],
      "isFixedGasLimit": false
    }
  ],
  "receipts": [
    {
      "status": "0x1",
      "cumulativeGasUsed": "0x2fb3b5",
      "logs": [],
      "logsBloom": "0x00000000000000000000000000000000000000000000000000000000000000000000000000000000000000000000000000000000000000000000000000000000000000000000000000000000000000000000000000000000000000000000000000000000000000000000000000000000000000000000000000000000000000000000000000000000000000000000000000000000000000000000000000000000000000000000000000000000000000000000000000000000000000000000000000000000000000000000000000000000000000000000000000000000000000000000000000000000000000000000000000000000000000000000000000000000",
      "type": "0x2",
      "transactionHash": "0xeb79bed182d9dc1b67cca3f148149391b3f06e2c1b0a465e5841e2f76ae03414",
      "transactionIndex": "0x8",
      "blockHash": "0x327225339deea3ab4f5c9eeedf2c8f076490e392bbe28d4c911060936a5767e0",
      "blockNumber": "0xcf3a58",
      "gasUsed": "0xb489a",
      "effectiveGasPrice": "0xba1c29",
      "from": "0x75998e806d0be5b37c5de74acfa0006b3c7dcdff",
      "to": null,
      "contractAddress": "0x04b8132360c1129aae9a2fce025b40a3d25c609e",
      "l1BaseFeeScalar": "0x44d",
      "l1BlobBaseFee": "0x187493bd4e5",
      "l1BlobBaseFeeScalar": "0xa118b",
      "l1Fee": "0x7beeb52762441",
      "l1GasPrice": "0x1d3d77f26",
      "l1GasUsed": "0x7add"
    },
    {
      "status": "0x1",
      "cumulativeGasUsed": "0x30c2ea",
      "logs": [
        {
          "address": "0x04b8132360c1129aae9a2fce025b40a3d25c609e",
          "topics": [
            "0x23100b01664d2b1a34cfa556c0db93a24e5b6224316568a8e25fdd0bd679426f"
          ],
          "data": "0x000000000000000000000000000000000000000000000000de41ba4fc9d91ad900000000000000000000000084cec3f89a0f28803f177575bbf7b2010a62d2ec00000000000000000000000020fa0fc715121f50ffe229e0db1504543d04cea30000000000000000000000008b9572e05ee495cd9ddbebc50b60f6ac3b4ef9db",
          "blockHash": "0x327225339deea3ab4f5c9eeedf2c8f076490e392bbe28d4c911060936a5767e0",
          "blockNumber": "0xcf3a58",
          "transactionHash": "0x03f6984167f18d3b043a50d9fcf3a3afe45a4ea45cb1efd98c2287dc665331b1",
          "transactionIndex": "0x9",
          "logIndex": "0x3e",
          "removed": false
        }
      ],
      "logsBloom": "0x00000000200000000000000000000000000000000000000000000000000000000000000000000000000000000000000000000000000000000000000000000000000000000000000000000000000000000000000000000000000000000000000000000000000000000000000000000000000000000000000000000000400000000000000000000000000000000000000000000000000000000000000000000000000000000000000000000000000000000020000000000000000000400000000000000000000000000000000000000000000000000000000000000000000000000020000000000000000000000000000000040000000000000000000000000000",
      "type": "0x2",
      "transactionHash": "0x03f6984167f18d3b043a50d9fcf3a3afe45a4ea45cb1efd98c2287dc665331b1",
      "transactionIndex": "0x9",
      "blockHash": "0x327225339deea3ab4f5c9eeedf2c8f076490e392bbe28d4c911060936a5767e0",
      "blockNumber": "0xcf3a58",
      "gasUsed": "0x10f35",
      "effectiveGasPrice": "0xba1c29",
      "from": "0x75998e806d0be5b37c5de74acfa0006b3c7dcdff",
      "to": "0x04b8132360c1129aae9a2fce025b40a3d25c609e",
      "contractAddress": null,
      "l1BaseFeeScalar": "0x44d",
      "l1BlobBaseFee": "0x187493bd4e5",
      "l1BlobBaseFeeScalar": "0xa118b",
      "l1Fee": "0x82dc1bc6311d",
      "l1GasPrice": "0x1d3d77f26",
      "l1GasUsed": "0x81b"
    },
    {
      "status": "0x1",
      "cumulativeGasUsed": "0x3e46d8",
      "logs": [
        {
          "address": "0x84cec3f89a0f28803f177575bbf7b2010a62d2ec",
          "topics": [
            "0x8c5be1e5ebec7d5bd14f71427d1e84f3dd0314c0f7b2291e5b200ac8c7c3b925",
            "0x00000000000000000000000075998e806d0be5b37c5de74acfa0006b3c7dcdff",
            "0x00000000000000000000000004b8132360c1129aae9a2fce025b40a3d25c609e"
          ],
          "data": "0x000000000000000000000000000000004b3b4ca85a86c47a098a224000000000",
          "blockHash": "0xbc4b5ead8be6e149f6bd1fec6572e77aaa373a64a10bd440cfed95e9d0cb8f03",
          "blockNumber": "0xcf3a59",
          "transactionHash": "0x158565304d129ae255cc742ac12468a6b78cfaa20e4b0e711cc74fa96584aa7e",
          "transactionIndex": "0xe",
          "logIndex": "0x73",
          "removed": false
        }
      ],
      "logsBloom": "0x00000000000000100000000000000000000000000000000000000000000000000000000000000000000000000000000000000000010000000000000000200000000000000000000000008000000000000000000000000002000000000000000000000000000000000000000000000000000000000000000000000000000000000000000010000000000000000000000000000000000000000000000000000000020000000000000040000000000000000000000000000002000000000000000000000000000000000000000000000000000000000000000000000000000000000010000000000000008000008000000000000000000000000000000000000000",
      "type": "0x2",
      "transactionHash": "0x158565304d129ae255cc742ac12468a6b78cfaa20e4b0e711cc74fa96584aa7e",
      "transactionIndex": "0xe",
      "blockHash": "0xbc4b5ead8be6e149f6bd1fec6572e77aaa373a64a10bd440cfed95e9d0cb8f03",
      "blockNumber": "0xcf3a59",
      "gasUsed": "0xb582",
      "effectiveGasPrice": "0xb9edfb",
      "from": "0x75998e806d0be5b37c5de74acfa0006b3c7dcdff",
      "to": "0x84cec3f89a0f28803f177575bbf7b2010a62d2ec",
      "contractAddress": null,
      "l1BaseFeeScalar": "0x44d",
      "l1BlobBaseFee": "0x187493bd4e5",
      "l1BlobBaseFeeScalar": "0xa118b",
      "l1Fee": "0x64de450dc8af",
      "l1GasPrice": "0x1d3d77f26",
      "l1GasUsed": "0x640"
    },
    {
      "status": "0x1",
      "cumulativeGasUsed": "0x4179d1",
      "logs": [
        {
          "address": "0x84cec3f89a0f28803f177575bbf7b2010a62d2ec",
          "topics": [
            "0xddf252ad1be2c89b69c2b068fc378daa952ba7f163c4a11628f55a4df523b3ef",
            "0x00000000000000000000000075998e806d0be5b37c5de74acfa0006b3c7dcdff",
            "0x00000000000000000000000004b8132360c1129aae9a2fce025b40a3d25c609e"
          ],
          "data": "0x000000000000000000000000000000000000000000000002b5e3af16b1880000",
          "blockHash": "0xbc4b5ead8be6e149f6bd1fec6572e77aaa373a64a10bd440cfed95e9d0cb8f03",
          "blockNumber": "0xcf3a59",
          "transactionHash": "0x737e55a7162d0a9c6ed1e5285186d0c0606500913e5f00076287e8066d38ab22",
          "transactionIndex": "0xf",
          "logIndex": "0x74",
          "removed": false
        },
        {
          "address": "0x84cec3f89a0f28803f177575bbf7b2010a62d2ec",
          "topics": [
            "0xddf252ad1be2c89b69c2b068fc378daa952ba7f163c4a11628f55a4df523b3ef",
            "0x00000000000000000000000075998e806d0be5b37c5de74acfa0006b3c7dcdff",
            "0x00000000000000000000000004b8132360c1129aae9a2fce025b40a3d25c609e"
          ],
          "data": "0x000000000000000000000000000000000000000000000002b5e3af16b1880000",
          "blockHash": "0xbc4b5ead8be6e149f6bd1fec6572e77aaa373a64a10bd440cfed95e9d0cb8f03",
          "blockNumber": "0xcf3a59",
          "transactionHash": "0x737e55a7162d0a9c6ed1e5285186d0c0606500913e5f00076287e8066d38ab22",
          "transactionIndex": "0xf",
          "logIndex": "0x75",
          "removed": false
        },
        {
          "address": "0x84cec3f89a0f28803f177575bbf7b2010a62d2ec",
          "topics": [
            "0x8c5be1e5ebec7d5bd14f71427d1e84f3dd0314c0f7b2291e5b200ac8c7c3b925",
            "0x00000000000000000000000004b8132360c1129aae9a2fce025b40a3d25c609e",
            "0x00000000000000000000000020fa0fc715121f50ffe229e0db1504543d04cea3"
          ],
          "data": "0x000000000000000000000000000000000000000000000002b5e3af16b1880000",
          "blockHash": "0xbc4b5ead8be6e149f6bd1fec6572e77aaa373a64a10bd440cfed95e9d0cb8f03",
          "blockNumber": "0xcf3a59",
          "transactionHash": "0x737e55a7162d0a9c6ed1e5285186d0c0606500913e5f00076287e8066d38ab22",
          "transactionIndex": "0xf",
          "logIndex": "0x76",
          "removed": false
        },
        {
          "address": "0xe4ab69c077896252fafbd49efd26b5d171a32410",
          "topics": [
            "0x8c5be1e5ebec7d5bd14f71427d1e84f3dd0314c0f7b2291e5b200ac8c7c3b925",
            "0x00000000000000000000000020fa0fc715121f50ffe229e0db1504543d04cea3",
            "0x000000000000000000000000d3b06cebf099ce7da4accf578aaebfdbd6e88a93"
          ],
          "data": "0x00000000000000000000000000000000000000000000000002ab39658e6f1a1f",
          "blockHash": "0xbc4b5ead8be6e149f6bd1fec6572e77aaa373a64a10bd440cfed95e9d0cb8f03",
          "blockNumber": "0xcf3a59",
          "transactionHash": "0x737e55a7162d0a9c6ed1e5285186d0c0606500913e5f00076287e8066d38ab22",
          "transactionIndex": "0xf",
          "logIndex": "0x77",
          "removed": false
        },
        {
          "address": "0x84cec3f89a0f28803f177575bbf7b2010a62d2ec",
          "topics": [
            "0xddf252ad1be2c89b69c2b068fc378daa952ba7f163c4a11628f55a4df523b3ef",
            "0x00000000000000000000000004b8132360c1129aae9a2fce025b40a3d25c609e",
            "0x00000000000000000000000020fa0fc715121f50ffe229e0db1504543d04cea3"
          ],
          "data": "0x000000000000000000000000000000000000000000000002b5e3af16b1880000",
          "blockHash": "0xbc4b5ead8be6e149f6bd1fec6572e77aaa373a64a10bd440cfed95e9d0cb8f03",
          "blockNumber": "0xcf3a59",
          "transactionHash": "0x737e55a7162d0a9c6ed1e5285186d0c0606500913e5f00076287e8066d38ab22",
          "transactionIndex": "0xf",
          "logIndex": "0x78",
          "removed": false
        },
        {
          "address": "0xe4ab69c077896252fafbd49efd26b5d171a32410",
          "topics": [
            "0x8c5be1e5ebec7d5bd14f71427d1e84f3dd0314c0f7b2291e5b200ac8c7c3b925",
            "0x00000000000000000000000020fa0fc715121f50ffe229e0db1504543d04cea3",
            "0x000000000000000000000000d3b06cebf099ce7da4accf578aaebfdbd6e88a93"
          ],
          "data": "0x0000000000000000000000000000000000000000000000000000000000000000",
          "blockHash": "0xbc4b5ead8be6e149f6bd1fec6572e77aaa373a64a10bd440cfed95e9d0cb8f03",
          "blockNumber": "0xcf3a59",
          "transactionHash": "0x737e55a7162d0a9c6ed1e5285186d0c0606500913e5f00076287e8066d38ab22",
          "transactionIndex": "0xf",
          "logIndex": "0x79",
          "removed": false
        },
        {
          "address": "0xe4ab69c077896252fafbd49efd26b5d171a32410",
          "topics": [
            "0xddf252ad1be2c89b69c2b068fc378daa952ba7f163c4a11628f55a4df523b3ef",
            "0x00000000000000000000000020fa0fc715121f50ffe229e0db1504543d04cea3",
            "0x0000000000000000000000006486906bb2d85a6c0ccef2a2831c11a2059ebfea"
          ],
          "data": "0x00000000000000000000000000000000000000000000000002ab39658e6f1a1f",
          "blockHash": "0xbc4b5ead8be6e149f6bd1fec6572e77aaa373a64a10bd440cfed95e9d0cb8f03",
          "blockNumber": "0xcf3a59",
          "transactionHash": "0x737e55a7162d0a9c6ed1e5285186d0c0606500913e5f00076287e8066d38ab22",
          "transactionIndex": "0xf",
          "logIndex": "0x7a",
          "removed": false
        },
        {
          "address": "0x6486906bb2d85a6c0ccef2a2831c11a2059ebfea",
          "topics": [
            "0xd0c3c799bf9e2639de44391e7f524d229b2b55f5b1ea94b2bf7da42f7243dddd"
          ],
          "data": "0x00000000000000000000000000000000000000000000000000000000000000200000000000000000000000000000000000000000000000008f90b8876dee653800000000000000000000000020fa0fc715121f50ffe229e0db1504543d04cea30000000000000000000000008b9572e05ee495cd9ddbebc50b60f6ac3b4ef9db00000000000000000000000000000000000000000000000000000000000006990000000000000000000000000000000000000000000000000000000000030d4000000000000000000000000000000000000000000000000000000000000000000000000000000000000000000000000000000000000000000000000000000017000000000000000000000000e4ab69c077896252fafbd49efd26b5d171a3241000000000000000000000000000000000000000000000000002ab39658e6f1a1f00000000000000000000000000000000000000000000000000000000000001a0000000000000000000000000000000000000000000000000000000000000020000000000000000000000000000000000000000000000000000000000000002205ed71732c452ebb0d83a933ea2100efde6437262943a5d1d0dd1551f63f67c52000000000000000000000000000000000000000000000000000000000000004000000000000000000000000075998e806d0be5b37c5de74acfa0006b3c7dcdff000000000000000000000000000000000000000000000002b5e3af16b188000000000000000000000000000000000000000000000000000000000000000000000000000000000000000000000000000000000000000000000000000000000000",
          "blockHash": "0xbc4b5ead8be6e149f6bd1fec6572e77aaa373a64a10bd440cfed95e9d0cb8f03",
          "blockNumber": "0xcf3a59",
          "transactionHash": "0x737e55a7162d0a9c6ed1e5285186d0c0606500913e5f00076287e8066d38ab22",
          "transactionIndex": "0xf",
          "logIndex": "0x7b",
          "removed": false
        },
        {
          "address": "0x20fa0fc715121f50ffe229e0db1504543d04cea3",
          "topics": [
            "0x9fb548811cfe022ba6400d8533a80d63fbc228e596f93603959dc47b1886af54",
            "0x5ed71732c452ebb0d83a933ea2100efde6437262943a5d1d0dd1551f63f67c52",
            "0x000000000000000000000000000000000000000000000000de41ba4fc9d91ad9"
          ],
          "data": "0x0000000000000000000000008b9572e05ee495cd9ddbebc50b60f6ac3b4ef9db000000000000000000000000e4ab69c077896252fafbd49efd26b5d171a3241000000000000000000000000000000000000000000000000002ab39658e6f1a1f",
          "blockHash": "0xbc4b5ead8be6e149f6bd1fec6572e77aaa373a64a10bd440cfed95e9d0cb8f03",
          "blockNumber": "0xcf3a59",
          "transactionHash": "0x737e55a7162d0a9c6ed1e5285186d0c0606500913e5f00076287e8066d38ab22",
          "transactionIndex": "0xf",
          "logIndex": "0x7c",
          "removed": false
        },
        {
          "address": "0x04b8132360c1129aae9a2fce025b40a3d25c609e",
          "topics": [
            "0x673b4333c5d4e7b11bb594e7523f62f923ea43810e4dc7f995676c5d76b6f24b",
            "0x00000000000000000000000075998e806d0be5b37c5de74acfa0006b3c7dcdff",
            "0x00000000000000000000000084cec3f89a0f28803f177575bbf7b2010a62d2ec"
          ],
          "data": "0x000000000000000000000000000000000000000000000000de41ba4fc9d91ad900000000000000000000000075998e806d0be5b37c5de74acfa0006b3c7dcdff000000000000000000000000000000000000000000000002b5e3af16b1880000",
          "blockHash": "0xbc4b5ead8be6e149f6bd1fec6572e77aaa373a64a10bd440cfed95e9d0cb8f03",
          "blockNumber": "0xcf3a59",
          "transactionHash": "0x737e55a7162d0a9c6ed1e5285186d0c0606500913e5f00076287e8066d38ab22",
          "transactionIndex": "0xf",
          "logIndex": "0x7d",
          "removed": false
        }
      ],
      "logsBloom": "0x00008000000000100000880000010000000000000000000000000000000000000000008000004000000000000000000000000000010000000000000000200000000000000000001000008808000000002000000000000002000000000000000000000000000000000000040000010040000000050000000000000210400002000000020110000000000000000000000000000020000000000001000000000000020040000000000440000000000220002020000000004002020100000000100000000002000000000000000000000000000000000000000000000000000000000030000000000000028000008000000004100000000001000000200000000000",
      "type": "0x2",
      "transactionHash": "0x737e55a7162d0a9c6ed1e5285186d0c0606500913e5f00076287e8066d38ab22",
      "transactionIndex": "0xf",
      "blockHash": "0xbc4b5ead8be6e149f6bd1fec6572e77aaa373a64a10bd440cfed95e9d0cb8f03",
      "blockNumber": "0xcf3a59",
      "gasUsed": "0x332f9",
      "effectiveGasPrice": "0xb9edfb",
      "from": "0x75998e806d0be5b37c5de74acfa0006b3c7dcdff",
      "to": "0x04b8132360c1129aae9a2fce025b40a3d25c609e",
      "contractAddress": null,
      "l1BaseFeeScalar": "0x44d",
      "l1BlobBaseFee": "0x187493bd4e5",
      "l1BlobBaseFeeScalar": "0xa118b",
      "l1Fee": "0x88c421a9d43c",
      "l1GasPrice": "0x1d3d77f26",
      "l1GasUsed": "0x879"
    }
  ],
  "libraries": [],
  "pending": [],
  "returns": {},
  "timestamp": 1722930071,
  "chain": 84532,
  "commit": "d0800ff"
}